:020000040000FA
:1000000038260020150400001D0400001F04000015
:10001000210400002304000025040000000000006B
:1000200000000000000000000000000027040000A5
:1000300029040000000000002B0400002D04000033
:100040002F0400002F040000FD0F0000C10C000071
:10005000D10C00002F0400002F040000690B0000E9
:10006000B10F00002F0400002F0400002F04000037
:100070002F0400002F0400002F0400002F040000B4
:100080002F0400002F0400002F0400002F040000A4
:100090002F0400002F0400002F0400002F04000094
:1000A0002F0400002F0400002F0400002F04000084
:1000B0002F0400002F0400000000000000000000DA
:1000C0002F0400002F0400002F0400002F04000064
:1000D0002F0400002F0400002F0400000000000087
:1000E0000000000000000000000000000000000010
:1000F0000000000000000000000000000000000000
:1001000000000000000000000000000000000000EF
:1001100000000000000000000000000000000000DF
:10040000DFF80CD000F090FB00480047591A0000BC
:10041000382600200648804706480047FEE7FEE7EA
:10042000FEE7FEE7FEE7FEE7FEE7FEE7FEE7FEE7A4
:10043000150D00000104000000487047B8370000A7
:1004400040EA01039B0703D009E008C9121F08C056
:10045000042AFAD203E011F8013B00F8013B521ED6
:10046000F9D27047421C10F8011B0029FBD1801AF9
:1004700070472DE9F04791460F4680460446002616
:1004800014F8015B2DB1FFF7D7FF0068405DC0078E
:10049000F6D12B2D02D02D2D18D0641E4A46394698
:1004A000204600F05DFA27B13968A14201D1C7F8B2
:1004B000008071054FF002040BD54042002803DD97
:1004C00000F0D6FD0460A007BDE8F08746F4806622
:1004D000E4E70028F8DA00F0CBFD04606FF000409C
:1004E000F2E72DE9FE4F804681EA0300C00F0C467B
:1004F000009021F0004123F00045B8EB0200A94133
:1005000005D24046214690461C460B46024623F043
:100510000040104347D0270DC7F30A00C3F30A5128
:100520000290401A019040286BDAC3F3130040F4A4
:10053000801B0098924620B10023D2EB030A63EBA4
:100540000B0B01985946C0F14002504600F0D7F914
:1005500006460D4650465946019A00F0EFF910EB59
:1005600008006141002487EA115284EAE7731A43C4
:1005700040D0009A62B3019A012A4FEA075215DC73
:10058000001B61EB02014FF0004202EA0752CDE985
:100590000042001C41F5801132462B4600F075FAEE
:1005A00003B0BDE8F08F40462146F9E7001B61EB40
:1005B0000201001C41F5801300185B412018A2F5D0
:1005C000001747EB030140EAD570B6196D4111E001
:1005D0006D084FEA360645EAC0754FEA0752001B20
:1005E00061EB0201001C41F5801149084FEA30001F
:1005F0000019514132462B4603B0BDE8F04F00F0E0
:1006000035BA0098012240000023D0EB020263EBD0
:10061000E073009821464FEAE074B8EB000061EB0C
:100620000401E9E783F000435BE781F0004158E70C
:100630002DE9FE4F81EA030404F0004421F000415B
:1006400000944FF0000B23F0004350EA01045ED009
:1006500052EA03045BD0C3F30A54C1F30A552C4495
:10066000A4F2F3340194A0FB0254C1F3130141F44A
:100670008011C3F3130343F4801301FB024400FB16
:10068000034E840A970A44EA815447EA8357A4FB3D
:10069000076802958D0A05FB07854FEA932C04FB3A
:1006A0000C542705029D4FEA065847EA1637B5EB6A
:1006B00008056EEB070C870E920E47EA811742EA97
:1006C0008312A7FB0201B6EB0B0164EB00042B0DB8
:1006D00043EA0C335E1844EB1C50DA465146E7FB04
:1006E0000201C5F313044FEA0B3343EA14534FEAF4
:1006F0000432019C43EA0603A4F10C040294009C1A
:10070000CDE900B400F0C1F903B0BDE8F08F0020DE
:100710000146F9E72DE9F04D81EA030404F0004BAE
:1007200021F0004514464FF0000A23F0004150EA42
:10073000050220D054EA01021DD0C5F30A57024633
:10074000C5F31303C1F31300C1F30A5640F4801537
:1007500043F48013A7EB0608101BD64608F2FD38B9
:1007600073EB050002D308F1010801E092185B4128
:10077000B8F1000F03DA00200146BDE8F08D00203B
:100780004FF48011064684460EE0171B73EB0507F5
:1007900005D3121B63EB050306434CEA010C490821
:1007A0004FEA300092185B4150EA0107EDD152EA5E
:1007B000030012D082EA040083EA0501084305D051
:1007C000101BAB4106D20122002306E000224FF0AD
:1007D000004302E06FF0010253101AEB06004CEBED
:1007E000085110EB0A0041EB0B01BDE8F04D00F0A1
:1007F0003DB90EB540F2334102910021CDE900111F
:100800000A460B4600F041F903B000BDC1F30A529D
:1008100010B5C1F3130140F2FF3341F480119A4245
:1008200001DA002010BD40F233439A42A2F2334273
:1008300003DC524200F072F810BD904010BD00F091
:10084000004230F000400AD0C10D01F56071C0F3E4
:10085000160042EA0151C2084007114370470020C8
:100860000146704701F0004330B421F0004150EAE6
:10087000010206D00A0DA2F56072C1F31301002A2D
:1008800002DC30BC00207047440F44EAC104C100C0
:10089000E01830BC00EBC25000F0B1B82DE9F05FB9
:1008A0000546002092469B468846064681464024DF
:1008B0001BE0284641464746224600F02FF85346A3
:1008C0005A46C01A914110D311461846224600F0EC
:1008D00016F82D1A67EB01084F4622460120002129
:1008E00000F00DF817EB00094E41201EA4F10104A1
:1008F000DFDC484631462A464346BDE8F09F202AC1
:1009000004DB203A00FA02F1002070479140C2F166
:10091000200320FA03F3194390407047202A04DB98
:10092000203A21FA02F00021704721FA02F3D04068
:10093000C2F120029140084319467047202A06DB85
:10094000CB17203A41FA02F043EAE07306E041FA9D
:1009500002F3D040C2F1200291400843194670478B
:100960002DE9F05F82460078002715468B460AF194
:100970000104B946302801D09DB113E014F8010BF1
:100980000127782803D0582801D045B10AE00DB1DD
:10099000102D07D10027102514F8010B02E00825BF
:1009A00000E00A250026B0460EE005FB080005FB26
:1009B00006F1012701EB10461FFA80F8B6F5803FDB
:1009C00000D3B94614F8010B294600F0BFF80028FF
:1009D000EBDABBF1000F05D00FB1641E00E0544606
:1009E000CBF80040B9F1000F06D000F041FB022126
:1009F0000160C81EBDE8F09F48EA0640FAE70029FA
:100A0000A8BF7047401C490008BF20F00100704794
:100A100010B4B0FA80FC00FA0CF050EA010404BFF4
:100A200010BC704749B1CCF1200421FA04F411FA4A
:100A30000CF118BF012121430843A3EB0C01CB1D8E
:100A40004FEA00614FEA102042BF002010BC7047FF
:100A500000EBC35010440029A4BF10BC7047401CD9
:100A6000490008BF20F0010010BC704710B5141EEB
:100A700073F1000408DA401C41F1000192185B4157
:100A80001A4301D120F0010010BD2DE9F04D92462E
:100A90009B4611B1B1FA81F202E0B0FA80F2203245
:100AA0009046FFF72CFF04460F4640EA0A0041EA51
:100AB0000B0153465A46084313D0114653EA01002E
:100AC00019D0C8F140025046FFF728FF05460E46F0
:100AD000504659464246FFF712FF084305D0012011
:100AE00004E020463946BDE8F08D0020054346EA83
:100AF000E0762C4337430A986305E40AA0EB08002C
:100B00000022FD0A44EA47540A3002D5002001467B
:100B1000E9E7010510196941DDE908450019694156
:100B2000BDE8F04DA2E70000064C074D06E0E06886
:100B300040F0010394E8070098471034AC42F6D324
:100B4000FFF762FCC8370000E83700003A2800D2FF
:100B5000303820F02002412A01D3A2F13700884228
:100B600001D34FF0FF3070472DE9FE434FF48278F8
:100B7000404601F0F9FF504F0025504C012600B3CC
:100B8000404601F0F9FF94F82B0010B194F82C10B6
:100B9000D1B18DF80050616801912189ADF808103C
:100BA000E16829B16160A18A2181E56018B103E0A3
:100BB00084F8295000E03E6021686846884784F840
:100BC0002C5094F82B0098B34FF48077384601F0FE
:100BD000CBFF68B3384601F0CFFFE28A72B194F8D8
:100BE0002A108A4210D9A2EB010080B2E082228949
:100BF000A2EB0000626802EB40000BE0208994F851
:100C00002A10A0EB0100F0E707D1E06828B184F8D2
:100C10002C60E58201F0A0FF04E08A4202D184F852
:100C20002C60E582404601F0A7FF2348001D0660C6
:100C30004FF48877384601F097FF50B1384601F0FD
:100C40009BFF84F8295002208DF800002168684637
:100C500088474FF48A77384601F086FF30B138462E
:100C600001F08AFF84F82950BDE8FE834FF0004868
:100C70004FF48C7927691CE0B7FA87F028FA00F165
:100C800009EB80058F43284601F06EFF88B12846A6
:100C900001F072FFA5F58C75E8088DF8040045F3A6
:100CA0008000401C8DF800608DF8050021686846C2
:100CB0008847002FE0D1D7E700700040E400002013
:100CC0000149024800F020BE7C00002000300040B6
:100CD000F8B54FF040200E4D04464FF48C7101F0F2
:100CE00055FF002813D00026C4F81861D4F8180165
:100CF0000090A87E2C46FF2801D001F072FC667699
:100D00002671216801B0201DBDE8F0400847F8BDFC
:100D1000C4000020F0B598480023021D0178012589
:100D2000101D4FF08056062907D11478240704D1EE
:100D30000478C4F30314032C02D0062904D00FE076
:100D40008F4F8E4C7C670EE01478240708D104780E
:100D5000C4F30314032C06D0042C04D0052C02D0B9
:100D6000062907D00EE0D6F84442864FC4F3423439
:100D70003C6002E01478240704D10478C4F303141F
:100D8000032C02D0062906D011E07F4C276827F0FB
:100D9000807727600EE01478240708D10478C4F324
:100DA0000314032C06D0042C04D0052C02D00629F1
:100DB0000AD011E04FF08044C4F80C31C4F810316F
:100DC000704C241F236002E01478240704D10478B7
:100DD000C4F30314032C02D0062905D00CE0694F9C
:100DE000032464373C600AE01478240704D10478B3
:100DF000C4F30314032C02D006290DD014E0634F72
:100E000005243C60614C78342560604C08342360D4
:100E10003F243F1D3C6002E01478240704D104788D
:100E2000C4F30314052C02D0062957D068E05849B2
:100E30000968584A11605649091D0968121D116058
:100E4000534908310968121D116051490C31096874
:100E5000121D11604E4910310968121D11604C4974
:100E600014310968121D1160494918310968494A4D
:100E70002032116046491C310968121D1160444935
:100E800020310968121D1160414924310968121D81
:100E900011603F4928310968121D11603C492C310D
:100EA0000968121D11603A4930310968394A4032E7
:100EB0001160374934310968121D116034493831E5
:100EC0000968121D116032493C310968121D116018
:100ED0002F4940310968121D116002E0117809079D
:100EE0000ED10078C0F30310032803D0042801D0EA
:100EF000052805D1D6F85802274900F04F000860B0
:100F000021487438016841F470010160BFF34F8FCC
:100F1000BFF36F8F4FF01021D1F80002002803DBE0
:100F2000D1F80402002822DA1C4A15601C48046823
:100F3000002CFCD01524C1F800420568002DFCD01F
:100F4000C1F8044201680029FCD01360016800293F
:100F5000FCD0BFF34F8F0C48F0380168114A01F400
:100F6000E06111430160BFF34F8F00BFFDE70F4900
:100F70000D480860F0BD0000E00F00F00DF0ADBAC4
:100F800000C007403C050040FCED00E0105600406A
:100F90000404001020C50040E40E004004E50140B8
:100FA00000E401400400FA050090D0036400002032
:100FB0002DE9F84300250F4C04274FF4A078BE0319
:100FC0004FEA050908EB850006FA05F122585AB1E7
:100FD000D4F804230A4207D044F800902158064A66
:100FE00000915168126890476D1CEDB2BD42E9D383
:100FF000BDE8F88300800040140100200448017F10
:1010000004480029024901D002F05DBA02F0CCB9CF
:10101000A4000020002000400FB41CB502460020B0
:1010200007AC00290BD0491ECDE90021054B6A46CB
:101030002146069800F030F8009A002111701CBC7F
:101040005DF814FBFB1400000FB4084B10B504A9A5
:1010500002AA039800F020F8044602A9002000F03C
:1010600057FA204610BC5DF814FB00001115000073
:10107000004870476800002002E008C8121F08C13D
:10108000002AFAD170477047002001E001C1121F09
:10109000002AFBD1704700002DE9FF4F8DB00F46AD
:1010A0000546002606E025280BD0DDE90F12904703
:1010B0006D1C761C28780028F5D111B03046BDE8AB
:1010C000F08F0024A246A1460122EC4900E004432F
:1010D00015F8013F203B02FA03F00842F7D12878C7
:1010E0002A2810D06FF02F022878A0F130010929AA
:1010F00014D80AEB8A0102EB410144F0020400EB30
:10110000010A6D1CF0E701CF5FEA000A03D544F441
:101110000054CAF1000A44F002046D1C28782E28FD
:1011200017D115F8010F44F004042A280ED06FF0EF
:101130002F022878A0F1300109290AD809EB89018A
:1011400002EB410100EB01096D1CF2E757F8049B2B
:101150006D1C28786C280FD006DC4C2817D0682826
:101160000DD06A2814D104E0742810D07A280FD149
:101170000DE044F400140AE044F4801401E044F467
:1011800040146978814202D104F580146D1C6D1CF5
:101190002A786E2A1FD00CDC632A31D004DC002AA6
:1011A0008BD0582A11D1A3E0642A68D0692A0CD1C7
:1011B00065E0732A2ED004DC6F2A73D0702A04D124
:1011C0009BE0752A6FD0782A6ED01046DDE90F12A9
:1011D0009047761C50E1C4F30250022806D0032841
:1011E00009D0042801CF09D0066045E101CFF117ED
:1011F000C0E9006140E101CF06803DE106703BE1BE
:1012000017F8040B8DF8000000208DF80100EB4664
:10121000012003E057F804BB4FF0FF3061074FF0A7
:10122000000102D40DE008F10101884649450FDABA
:101230008045F8DB1BF808100029F4D108E008F11C
:10124000010188468142FADB1BF808100029F6D11B
:10125000DDE90F23AAEB08008146214600F036F9AC
:10126000304400EB080604E0DDE90F121BF8010B27
:101270009047B8F10108F7D221464846F7E00A2125
:10128000C4F302534FF0000B0891022B04D001CF9E
:10129000C117032B09D00AE0FF1D27F00707F7E865
:1012A000020108E032E01FE020E000B2C117042B89
:1012B00001D140B2C117031E71F1000307DA4FF0EC
:1012C000000CD0EB0C006CEB01012D2302E0230598
:1012D00004D52B238DF82430012303E0E30701D04C
:1012E0002023F7E7984658E00A2110E010210EE08D
:1012F00010204FF0000B08900CE010214FF0000B75
:1013000044F004044FF00809089103E008214FF06D
:10131000000B0891C4F30253022B04D001CF00212B
:10132000032B06D006E0FF1D27F00707F7E80201B0
:1013300003E080B2042B00D1C0B24FF000082307B5
:101340002BD5702A07D0DDF820C08CF0100C5CEA99
:101350000B0C05D00EE040238DF82430012308E06B
:1013600050EA010306D030238DF824308DF8252073
:1013700002239846DDF820C08CF0080C5CEA0B0CC8
:101380000BD150EA010301D1630706D530238DF854
:1013900024304FF00108A9F10109582A04D038A2DD
:1013A0000B9208AA0A920BE03AA2F9E75B46089A68
:1013B000FFF774FA0B9B9B5C0A9A521E0A921370F9
:1013C00050EA0102F2D10A98ADEB000000F1200BC7
:1013D000600702D524F4803401E04FF00109D945BB
:1013E00002DDA9EB0B0000E0002000EB0B01414403
:1013F0000890AAEB010AE00306D4DDE90F23214699
:10140000504600F063F806444FF0000908E009A9CF
:1014100011F80900DDE90F12904709F10109761C66
:10142000C145F4DBE0030CD5DDE90F23214650462E
:1014300000F04CF8064404E0DDE90F12302090473C
:10144000761C0899481E08900029F5DC08E00A98E7
:101450000A990078491C0A91DDE90F129047761C21
:10146000BBF10001ABF1010BF1DC21465046DDE997
:101470000F2300F019F806446D1C1BE60928010033
:1014800030313233343536373839616263646566FA
:1014900000000000303132333435363738394142BC
:1014A00043444546000000002DE9F0410446002574
:1014B0001E461746880404D405E039462020B0476C
:1014C0006D1C641EF9D52846BDE8F0812DE9F04178
:1014D000044600251E469046C80301D5302700E08B
:1014E0002027880404D505E041463846B0476D1CE6
:1014F000641EF9D52846BDE8F0814A68002A06D066
:101500000A68531C0B6010704868401E48607047A2
:101510000A68531C0B601070704700000BA101207B
:1015200001F07AFA01F0D2F901F0D4F90028FBD1E8
:10153000BFF34F8F0B4801680B4A01F4E061114380
:101540000160BFF34F8F00BFFDE700004150505FC7
:101550004552524F523A4552524F523A4661746187
:101560006C0D0A000CED00E00400FA050EB5002138
:101570000091CDE901106A4644F20100FFF7CEFF69
:101580000EBD00F003B800F009B8000072B60248C2
:101590000168491C01607047500000200349086839
:1015A000401E086000D162B6704700005000002065
:1015B0002DE9F041064608680C46411C4FF0A04753
:1015C0004FF0010506D005FA00F1C7F808152068AC
:1015D00000F0EEFF6068411C02D0002100F0DFFF48
:1015E0003079204901EB4010A169007F0028306864
:1015F000C0F8241525D0607D227D31681043C1F8E4
:101600006C05D4E900123068C0F80C15C0F8142538
:1016100024E0A068411C02D0002100F0C0FFE06877
:10162000411C05D08540C7F80855E06800F0C0FFB0
:10163000D4E902123068C0F80825C0F81015BDE8DA
:10164000F081607D217D32680843C2F86C05D4E9E1
:1016500000123068C0F81425C0F80C15207D012850
:10166000D7D0ECE7A40000201CB5812242EA40005C
:101670008DF8040000200090012301AA044800F026
:101680004DFE04490028886301D0FFF76FFF1CBDA1
:1016900094360000000000200249085C012100F09F
:1016A000A7BF0000E53600007CB50024084E2546A3
:1016B0000122305D009500231146019500F042FFA4
:1016C000641C042CF4D3BDE87C4000F003B8000097
:1016D000E536000010B500242046FFF7DDFF641C4E
:1016E000042CF9D310BD002901DA002070470268EC
:1016F000114401600120704770B5461C0D4601245D
:101700000020FFF73EFF114A10682860D2E9001060
:101710009568081A2B1A701C5B1C98420FD963B18C
:101720000B480C4B294000681B6802EB810163F3F6
:101730009F20C8601068401C1060002401E08819D8
:1017400010600020FFF71FFF204670BD2002002020
:101750001037000060000020034803C8814201D117
:10176000012070470020704720020020002005491A
:10177000024600BF21F81020401CC0B20828F9D34F
:10178000704700006C0000204FF0A04202EB800088
:101790000021C0F80017704710B5702000F024F841
:1017A0000A2000F013FC712000F01EF80A2000F05F
:1017B0000DFC722000F018F80A2000F007FC7320DE
:1017C00000F012F80A2000F001FC742000F00CF880
:1017D0000A2000F0FBFB752000F006F8BDE8104081
:1017E0000A2000F0F3BB00001CB504460FA0012343
:1017F000006801900020009001AA21460C4800F0EA
:101800008DFD0C49886308B1FFF7B0FE0A2000F097
:10181000DDFB21460020FFF727FF0A2000F0D6FB62
:1018200021460F2001F086FB1CBD000021000000B6
:1018300094360000000000203EB5FFF735FF114947
:10184000114AD1E90801CDE901010E4801A9103082
:1018500000F0BEFC08B1FFF789FE0C4C09481030BF
:10186000216A00F0FDFC60640121024605480B4638
:1018700000910021103000F095FC0248103000F07B
:1018800083FC3EBD94360000652F00000000002060
:1018900070B50E460446007918494FF4A27501EB65
:1018A0004010017F2068A1B14FF4887101F094F9D4
:1018B0004FF49071206801F08FF94FF49271206815
:1018C00001F08AF92946206801F086F90C49206860
:1018D00009E04FF48E7101F06EF92946206801F09D
:1018E0006AF908492068C0F80413206800F027FC52
:1018F0003146BDE8704000F006BC0000A4000020A6
:1019000010030200800002002DE9FF470D464FF44E
:1019100092770446394601F03EF94FF002094FF044
:1019200001084FF4827640B13946204601F038F97B
:101930003146204601F02FF9B0B3B2463146204679
:1019400001F029F94FF0FF36002770B351462046C9
:1019500001F026F905F10C0001AB07C883E8070088
:1019600095F8230078B1287B01282DD0D4F84C05B8
:10197000C0B28DF80600287B022828D0D4F84C0588
:10198000C0B28DF807004FF4B071204601F008F99D
:101990004FF4AE71204601F003F995F8250080B3AD
:1019A00095F8230068BB3CE000E013E0A868C4F8A9
:1019B0000803C5F80890A868C4F80403C4F8208098
:1019C000C4F81480BDE8FF87D4F83C05D0E7D4F80C
:1019D0003C05D5E74FF4A471204601F0E1F8287BDF
:1019E00080B14FF40070C4F80002801CA860C4F8F5
:1019F0000863A868C4F80403C4F80880C4F8208009
:101A0000E0E708E005F10C0001AB07C883E8070038
:101A100095F8250028B90020C4F80002AF60C4F88A
:101A20000863D4F8C404C4F8C404810702D58DF84F
:101A3000008006E0400702D58DF8009001E08DF8A7
:101A4000007095F8250008B985F82470D5E90021C3
:101A500068469047B6E700002DED028B002001F0AC
:101A600069F808B1FFF782FDC8A1032000F0D4FF98
:101A7000D2A1032000F0D0FF01F038FB0A2000F0D3
:101A8000A5FAD4A1032000F0C7FF0D20FFF77CFECC
:101A90000E20FFF779FED4A1032000F0BDFFFFF771
:101AA0007BFED8A1032000F0B7FF01F0D6FD702027
:101AB00001F096FD0A2000F089FA722001F090FDF5
:101AC0000A2000F083FA712001F08AFD0A2000F05C
:101AD0007DFAFFF74BFE01F0BBFD732001F080FDA6
:101AE0000A2000F073FA742001F07AFD0A2000F059
:101AF0006DFA752001F074FD0A2000F067FAC8A1A4
:101B0000032000F089FFCFA1032000F085FFFFF73D
:101B100093FE00BF00F0DEFE0028FBD1CFA1032022
:101B200000F07AFFD24C00250E2000F04BFDE07251
:101B3000A16CE069421ACFA10320A26200F092FFDB
:101B4000E07A10B101284AD08EE060780128FBD1FC
:101B5000207A10B101280CD086E0E269CAA10320E6
:101B6000A26400F07FFF227ACEA1032000F07AFF6A
:101B70007AE0E069E064E278D1A1032000F072FF2E
:101B80002079A18A628A401A81B2E078801A80B2F4
:101B900001F064F8722001F023FD0A2000F016FA2B
:101BA000E079CEA1401CC2B2E271032000F05AFFDE
:101BB000227AD3A1032000F055FFFFF7D7FDE0798B
:101BC00001F038F9732001F00BFD0A2000F0FEF956
:101BD000E07860822079A0826571A57144E0607828
:101BE000F0BBA06A012801D9207A40B1E16CE0691C
:101BF000401A022838D3207A012807D034E0E57053
:101C000025716571A571012020722DE02572E571A5
:101C1000FFF7ACFD01F01CFD732001F0E1FC0A2090
:101C200000F0D4F9742001F0DBFC0A2000F0CEF9BA
:101C3000752001F0D5FC0A2000F0C8F901F00DFD77
:101C4000702001F0CDFC0A2000F0C0F9722001F0F4
:101C5000C7FC0A2000F0BAF9712001F0C1FC00E0D5
:101C600002E00A2000F0B2F90E2000F0ABFC607038
:101C7000E078218A884211D0217A01290ED1217978
:101C800000F0ECFFA38A628AA6A1032000F016FFF1
:101C9000702001F0A5FC0A2000F098F9E07820827D
:101CA000207A012809D1A179607900F0D7FF71204D
:101CB00001F096FC0A2000F089F96079E0820D209D
:101CC00000F080FC10F0FF00207305D1A0780128FF
:101CD00002D1607A401C60720D2000F073FCA0708D
:101CE000207A002850D1A0694FF47A71B0FBF1F24C
:101CF00001FB1200C0B9606AFEF77BFD41EC180BD6
:101D0000206BFEF79CFD9FED951B53EC112BFEF70E
:101D10008FFC53EC182BFEF7FDFCFEF777FDA0734C
:101D20009FED900A84ED0C0A607AC00712D1606AB8
:101D3000E062206BFEF783FD9FED8B1B53EC112BB4
:101D4000FEF7CFFBFEF78EFD6562206388A10320BE
:101D500000F062FEFFF70AFDA07B01F06BF8742033
:101D600001F03EFC0A2000F031F9627A89A10320DB
:101D700000F078FEA27B8EA1032000F073FE00BF6E
:101D800000F0A8FD0028FBD130BFCDE64150503A0D
:101D9000494E464F3A0D0A56696E63692045636F96
:101DA000204472697665204F6E426F6172642053E1
:101DB000797374656D0D0A0D0A0000004150503AA8
:101DC000494E464F3A74776920696E6974203A200B
:101DD0000A0000004150503A494E464F3A47504998
:101DE0004F20696E69740A004150503A494E464F7F
:101DF0003A73637265656E20696E6974203A200AD1
:101E0000000000004150503A494E464F3A636C651D
:101E100061722073637265656E73203A200A000058
:101E20004150503A494E464F3A4465636C6172697D
:101E30006E67207661726961626C6573203A200A70
:101E4000000000004150503A494E464F3A496E69F1
:101E5000742054696D65720A000000004150503AC8
:101E6000494E464F3A456E642054696D65720A00CA
:101E7000000000204150503A494E464F3A6469668E
:101E8000663A202575200A004150503A494E464F87
:101E90003A73746172742070757368203A202575E6
:101EA000000000004150503A494E464F3A73746169
:101EB00072742070757368203A202575200A00001E
:101EC0004150503A494E464F3A6368726F6E6F20E8
:101ED000736563203A202575200A00004150503A6E
:101EE000494E464F3A6E756D206C61707320737960
:101EF0007374656D20737461727425750000000041
:101F00004150503A494E464F3A73686F7274207090
:101F100075736820737973746D2073746172743A89
:101F2000202575004150503A494E464F3A4C415099
:101F300053203A206368726F6E6F20656E20736560
:101F400063203A2025752C206368726F6E6F2065C0
:101F50006E206D696E3A202575200A00CDCCCCCC60
:101F6000CCCC0C40000000009A9999999999A93F0E
:101F70004150503A494E464F3A6A6520737569732D
:101F80002064616E73206C6120626F75636C6520E4
:101F90000A0000004150503A494E464F3A76616C73
:101FA00065757220686F6C65203A202575200A00DF
:101FB0004150503A494E464F3A64697374616E63BA
:101FC00065203A202564200A000000004FF47A7151
:101FD000484300F001B8000000283ED01F49204AC5
:101FE000096800BF00BF00BF00BF00BF00BF00BF47
:101FF00000BF91422FD000BF00BF00BF00BF00BF95
:1020000000BF00BF00BF00BF00BF00BF00BF00BFD8
:1020100000BF00BF00BF00BF00BF00BF00BF00BFC8
:1020200000BF00BF00BF00BF00BF00BF00BF00BFB8
:1020300000BF00BF00BF00BF00BF00BF00BF00BFA8
:1020400000BF00BF00BF00BF00BF00BF00BF00BF98
:1020500000BF00BF00BF401EC3D170476400002016
:102060000024F40000283ED01F49204A096800BF20
:1020700000BF00BF00BF00BF00BF00BF00BF914254
:102080002FD000BF00BF00BF00BF00BF00BF00BF18
:1020900000BF00BF00BF00BF00BF00BF00BF00BF48
:1020A00000BF00BF00BF00BF00BF00BF00BF00BF38
:1020B00000BF00BF00BF00BF00BF00BF00BF00BF28
:1020C00000BF00BF00BF00BF00BF00BF00BF00BF18
:1020D00000BF00BF00BF00BF00BF00BF00BF00BF08
:1020E00000BF401EC3D17047640000200024F400EC
:1020F00000F01F02012191404009800000F1E02022
:10210000C0F8801170474907090E002806DA00F070
:102110000F0202F1E02282F8141D03E000F1E02238
:1021200082F8001400F01F02012191404009800054
:1021300000F1E020C0F88012C0F800117047000BD9
:1021400040B270470121B1EB507F01D101207047AF
:10215000002070470121B1EB507F01D10120704771
:102160000020704730B54FF4803405688C4013B1BF
:10217000C5F8044301E0C5F80843006800EB81009E
:10218000C0F8402530BD0000016801220A600079D6
:10219000034A00EB400002EB80000221017270470D
:1021A00014010020F0B40468049E40F20115D4F834
:1021B00000728D40AF43C4F800720468D4F8005236
:1021C0001D43C4F800523346F0BCFFF7CBBF0000FC
:1021D000F8B504460D460079204900EB400001EBBC
:1021E0008006307A08B10820F8BD3AB132606868DC
:1021F0007060002003464FF4A07709E00720F8BD87
:10220000226807EB800153505158401CC0B2009126
:1022100061798142F4D82068E978000B40B2FFF779
:1022200072FF20686978D0F8042561F30102C0F8D4
:1022300004252068A978D0F8082561F30102C0F8C8
:10224000082520682978D0F8102561F30302C0F82A
:102250001025012030720020F8BD0000140100207C
:102260000068D0F810254FF47A504843D0407047AA
:102270000179064A01EB8101006802EBC1010622E7
:10228000C0F80025022081F8220070477C00002061
:1022900070B506460D4600791F4900EB800001EB42
:1022A000C00494F8220008B1082070BD0020C4E9E1
:1022B0000023A06084F8250084F82400A87B84F81B
:1022C0002700687B10B1284600F092FE296840F292
:1022D0000C60890001F1A041C1F80007696889001C
:1022E00001F1A041C1F80007D5E900123068C0F83B
:1022F0000815C0F80C25A968C0F82415206828B175
:102300003068297B000B40B2FFF7FDFE012084F806
:102310002200002070BD00007C0000203EB500259A
:102320000095069C8DF8011002958DF802300192FF
:102330000CB1202200E00022694600F001F83EBD09
:1023400030B40379064C03EB830304EBC304006849
:1023500013460A460146204630BC00F0DFBE0000AE
:102360007C0000202DE9F04105460079164F90468B
:1023700007EB40140E46E07E10B10820BDE8F08166
:10238000707F20772846FFF713F95FEA0800606046
:102390003169216003D0317F2846FFF779FA287927
:1023A00007EB4010007F0028286801D0082100E0DA
:1023B0000421C0F800150020E0752076A0750121E9
:1023C000E176A076DAE70000A40000202DE9F047CE
:1023D000054600793F4E904606EB40140F46207F9D
:1023E00018B10846FFF7B6FE30B1284600F074F881
:1023F00020B11120BDE8F0871020FBE784F816809B
:10240000A7600027A78228794FF0010806EB401447
:102410003E46207F0028286825D04FF49079494611
:1024200000F0DAFB4FF4AC7A5146286800F0D4FB98
:102430002868A17DA268C0F84425C0F8481528681E
:10244000C0F808806068F0B94946286800F0BFFB12
:1024500080465146286800F0BAFB58EA0001F3D0E4
:1024600058BBA7750FE04FF48E7A514600F0A3FBDE
:102470002868C0F808802146286800F06FFF61686E
:102480004FF4807089B13046B4E75146286800F0B7
:102490008DFB10B9A08A4845F7D1A08A484505D0E0
:1024A0002146286800F05AFF00E08146A08AA17DFD
:1024B0008842EAD3A08A484501D10F26D1E7514688
:1024C000286800F073FB0028F9D02868C0F80C8059
:1024D000C7E70000A40000200079044901EB401088
:1024E000807D002800D0012070470000A40000205B
:1024F00070B5044600791149002601EB40152068AB
:102500002A7FC0F80065686888B1207901EB401027
:10251000007F0028206801D0094901E008498C3972
:10252000C0F808132068FFF70AFEFFF7E1FD204618
:1025300000F058FBEE766E6070BD0000A400002035
:102540001003020070B541EA4201DDE904564FF084
:10255000A04441EA830141EA052104EB800041EAFD
:102560000641C0F8001770BD70B541EA4201DDE9CF
:1025700004564FF0A04441EA830141EA052104EBEF
:10258000800041EA0641C0F8001770BD1CB500216B
:1025900000910B4601220191FFF7E6FF1CBD1CB51F
:1025A00000220B46009211460192FFF7DDFF1CBD91
:1025B0001CB5002100910B46012201911146FFF745
:1025C000D3FF1CBD4FF0A041D1F81015C14001F060
:1025D000010070474FF0A04201218140C2F8081568
:1025E00070474FF0A04201218140C2F808157047A2
:1025F00001224FF0A043824011B1C3F80825704773
:10260000C3F80C2570470000004870478126000081
:1026100030B5184C054689B0207828B160788542DD
:1026200002D1002009B030BD202213496846FDF7D1
:1026300007FF00208DF8140006200090082001906C
:1026400005200390072002904FF0EB700690094898
:10265000001DFFF74DFF0DB1002200E0074A0548BD
:102660006946001DFFF77EFE0028DBD101202070A7
:102670006570D6E754000020F03600009933000062
:102680002DE9F04FC1B00D004FF0000140914D9881
:102690004B991C46174601EB000B01D00A2000E0C5
:1026A0000020804600F02AFC00287CD16E46BCB990
:1026B000409840AA3118284600F080FC002872D0CB
:1026C0003846FDF7CFFEC22800D9C2200546409803
:1026D0002A4630443946FDF7B3FE409828444090DE
:1026E0004FF0200A409901EB080231320DEB010551
:1026F0000DEB0206002002E005F801AB401C40454E
:10270000FAD300275C4508D305F801AB05F801AB07
:1027100005F801AB06F801AB2DE04B98844202D2DC
:102720004A98005D02E0211A4C98405C2B46814695
:1027300002460121880022FA00F000F00F0009286B
:1027400001D9373000E03030C1F1010C491E03F8E7
:102750000C00EFD29D1C05F801ABFDF76DFE016882
:1027600011F8090010F03E0F01D0484600E02E207D
:1027700006F8010B641C7F1C102FC3D30D20307092
:102780000A20707085F800A04099684641444331A2
:10279000409100F0B9FB30B100F0B0FB18B9002057
:1027A00040905C459ED341B02046BDE8F08F2DE9B6
:1027B000F043C7B000251C46904689464E9F45957C
:1027C00000F09CFB00287AD1459805AE311845AA47
:1027D000484600F0F3FB002835D0072F27D2DFE86A
:1027E00007F004121B35424F5D004046FDF73AFEEC
:1027F000054645982918FF2919D830442A464146EC
:10280000FDF71EFE13E045982368C0F58071304443
:102810004246FEF701FC09E0606800904598236895
:10282000C0F5807130444246FEF7F6FB0546294666
:1028300045A8FEF758FF459978B3B1F5807F3ED89B
:1028400005A800F061FB47B0BDE8F083D4E90101C1
:10285000CDE9000145982368C0F5807130444246B7
:10286000FEF7DAFBE2E7201D07C88DE80700459870
:102870002368C0F5807130444246FEF7CDFBD5E7B2
:10288000201D0FC88DE80F0045982368C0F58071A2
:1028900030444246FEF7C0FBC8E710E004F10800F0
:1028A00001AD0FC885E80F00606800904598236867
:1028B000C0F5807130444246FEF7AEFBB6E700201B
:1028C000C1E7000000487047AF2700000120FFF774
:1028D0009FBE00002DE9F04F87B0FEF73DFF18B115
:1028E000002007B0BDE8F08F454ED6E9014704EA65
:1028F000070006EB8000A146641CC5680CE000BF21
:10290000C5F3891000EB9550044404EA070006EB78
:102910008000A146C568641CA807F1D005F003003B
:102920004FF0000B022805D0AA0A01A8C5F38313B3
:10293000002153E004EA070006EB800004F1010ADD
:102940000AEA0704C268381B80004FEA9558001D48
:10295000C5F38913804521D929490C3138B106EBDB
:10296000840400F0FF0CA8EB00000C3404E00C46DB
:10297000002108F0FF0C0846C0B2CDE90210CDE9F5
:10298000004CD6F81444C5F3C2005946A047404550
:1029900011D108F103080AEB98042AE0002106EBA4
:1029A00084000C300090CDE901810391C5F3C20091
:1029B000D6F81444EAE760F38F1509EA070006EB3E
:1029C0008000C56016E000BF04EA070C06EB8C0C23
:1029D000491CDCF80CC040F804CB641C9942F3D3CA
:1029E000C5F3C2000093D6F8105401AB5946A8476E
:1029F00000B17460FEF7B0FE80F0010071E70000E6
:102A000020020020034AFF239360002313605360D9
:102A100000F088B8200200202DE9F8430F4F8846C7
:102A20000446002569462846BE68FEF765FE002874
:102A300012D00B480021406861F38200009964F3D2
:102A4000C50001EA060265F3891007EB820268F30C
:102A50009F20491CD0600091BDE8F883200200202F
:102A6000103700002DE9F843124D8846044601272F
:102A7000914669463846AE68FEF73EFE002817D0FC
:102A80000D480021806861F38200009964F3C5005D
:102A900001EA060267F3891005EB820268F39F20C2
:102AA000491CD0600091314005EB8101C1F80C90C8
:102AB000BDE8F88320020020103700002DE9F84F10
:102AC000164C8846064602279A469146694638467D
:102AD000A568FEF711FE00281ED01148C16800202D
:102AE00060F38201009866F3C50100EA050267F30E
:102AF000891104EB820268F39F21401CD16000EA37
:102B0000050204EB8202401CC2F80C9000902840A1
:102B100004EB8000C0F80CA0BDE8F88F2002002074
:102B200010370000024A02F5826203C270470000BB
:102B30002002002070B506460020FFF769FD040062
:102B400008D1FFF761FD0546FFF7BCFE3246294676
:102B5000FFF758FF204670BD024A1060101D01604B
:102B6000704700002C76004002494058002800D0F1
:102B70000120704700700040034908B50844002256
:102B800002600068009008BD0070004040580028B6
:102B900000D0012070474058002800D00120704725
:102BA00008B5002242504058009008BD4058002807
:102BB00000D00120704708B50022425040580090D4
:102BC00008BDD0F80403084000D0012070474058E9
:102BD000002800D00120704708B50022425040581C
:102BE000009008BD70B5034600791B4901EB401009
:102BF0001968027F4FF0FF30002AD1F80C25D1F878
:102C00001465D1F80855D1F8104504D0C1F80C0569
:102C1000C1F8140503E0C1F81405C1F80C051968E2
:102C2000C1F80805C1F81005501C02D01046FFF786
:102C3000ADFC701C02D03046FFF7A8FC601C02D02F
:102C40002046FFF7A3FC681C04D02846BDE870406E
:102C5000FFF79CBC70BD0000A400002030B587B019
:102C60000C46024672A16846FEF7EEF9224670A1B4
:102C700002A8FEF7E9F96846FDF7F4FB022804D143
:102C800002A8FDF7EFFB022805D06846FDF7EAFB36
:102C900003281AD01EE09DF800008DF810000A22CB
:102CA00005A904A8FDF7E5FBC1B20022052000F04C
:102CB00083FC00221146032000F07EFC9DF80800F2
:102CC0008DF810000A2205A976E002A8FDF7CAFBDC
:102CD000032805D06846FDF7C5FB022839D03DE042
:102CE0009DF800008DF810000A2206A904A8FDF73F
:102CF000C0FB04469DF801008DF814000A2206A9C5
:102D000005A8FDF7B6FB0546E1B20022032000F05E
:102D100053FCE9B20022052000F04EFC9DF80800AB
:102D20008DF810000A2206A904A8FDF7A2FB0446AC
:102D30009DF809008DF814000A2206A905A86BE089
:102D400000F03AFC00221146042000F035FC07B0E8
:102D500030BD02A8FDF786FB032839D06846FDF791
:102D600081FB0328F3D102A8FDF77CFB0228EED1FA
:102D70009DF800008DF810000A2206A904A8FDF7AE
:102D800078FB04469DF801008DF814000A2206A97C
:102D900005A8FDF76EFB0546E1B20022032000F016
:102DA0000BFCE9B20022052000F006FC9DF80800AB
:102DB0008DF810000A2206A904A8FDF75AFBC1B23B
:102DC0000022012000F0F8FB002211461046B7E770
:102DD0009DF800008DF810000A2205A904A8FDF74F
:102DE00048FBC1B20022032000F0E6FB002211469E
:102DF000052000F0E1FB9DF808008DF810000A2284
:102E000005A904A8FDF735FB04469DF809008DF8D7
:102E100018000A2205A906A8FDF72BFB054600228B
:102E2000E1B2104600F0C8FB0022E9B2012087E7BA
:102E300025750A0030B585B002461CA16846FEF72C
:102E400003F96846FDF70EFB022824D06846FDF71B
:102E500009FB03281DD19DF800008DF808000A2207
:102E600003A902A8FDF705FB05469DF801008DF8B2
:102E700010000A2203A904A8FDF7FBFA0446002269
:102E8000E9B2104600F098FBE1B20022012000F008
:102E900093FB05B030BD9DF800008DF808000A22B4
:102EA00003A902A8FDF7E5FAC1B2EEE725750A000D
:102EB00070B50546C87D0C4600284FF4847128463D
:102EC0000AD0FFF778FED5F81805627EE1688854CD
:102ED000607E401C607670BDFFF76DFED5F818056A
:102EE00070BD1FB501238DF800308DF808100192D8
:102EF000D0E90012684690471FBD00000148FFF767
:102F0000EBBA00005800002070B50D460A46014695
:102F100001240648FDF794FAEAB204490448FFF791
:102F200055FA00B10024204670BD000020010020A9
:102F3000580000201CB50022019240F0E0008DF8FE
:102F400004000092022301AA0448FFF7E7F90449AC
:102F50000028886301D0FEF709FB1CBD94360000F1
:102F60000000002014494A6B521C4A63B0F5A07F50
:102F700021D188694FF47A72B0FBF2F302FB13029D
:102F8000A2B9CA783B2A05D2521CCA704A79521C8F
:102F90004A7108E00022CA704A710A79521C0A710B
:102FA0008A79521C8A71CA69521CCA614A6A521CC7
:102FB000401C4A62886170470000002010B514462A
:102FC00002004FF001000CD00846136806A24FF42F
:102FD0008071FEF721F801462046BDE81040FEF75B
:102FE00082BB0021216010BD5B253038645D00008C
:102FF0002DE9F041044640F20C602168890001F19E
:10300000A041C1F800076168890001F1A041C1F841
:1030100000072068FFF7DEFA6068FFF7DBFA216837
:1030200040F20D60890001F1A041C1F8000761681C
:10303000890001F1A041C1F800070420FFF712F850
:1030400000274FF0A04601252179D6F81005C84089
:1030500010F0010F02D0002F1DD010E0217805FAEA
:1030600001F0C6F80C050420FEF7FCFF2068FFF70E
:10307000B1FA0420FEF7F6FF7F1C092FE4DB20796C
:103080008540C6F80C550420FEF7ECFF6068BDE8EB
:10309000F041FFF79FBABDE8F081000010B501785C
:1030A00000290AD10079054C012804D1A27A04A193
:1030B0000320FFF7D7FC0120207010BD0000002086
:1030C0004150503A494E464F3A54656D70657261B1
:1030D000747572653A2025642043656C7369757355
:1030E00020646567726565732E0D0A001FB5094B74
:1030F0000FCB8DE80F0007480023074A6946383890
:10310000FFF7C6F808B1FEF731FA02483838FFF782
:10311000AFF81FBDCC3600009D3000002DE9F05FF8
:1031200006461F4615460C464FF0000A4FF0080BA6
:103130004FF482795068FFF705F800287ED04FF0F1
:10314000FF30C4F8080396F8240028B1B068C4F82A
:1031500004031120BDE8F09F780703D4F80601D4DA
:10316000012000E0002086F8240095E8070006F121
:103170000C0383E80700C7F3001086F82500687881
:10318000C4F888054FF482712046FFF709FD4FF41B
:1031900092712046FFF704FDF8074FF0010800D0B8
:1031A0004046C4F85005B80701D5404600E000206D
:1031B000C4F84005287800286CD001287DD002286A
:1031C0004ED0032814D04FF0070A380704D42878CB
:1031D000032801D044F80B80306800286ED07807AF
:1031E00002D54FF40070B060B068C4F80403B0E0DA
:1031F000A868FEF7A7FF08B34FF48070C4F8000278
:10320000A9786868C4F84405C4F848154FF4A87153
:103210002046FFF7C5FC4FF4B0712046FFF7C0FC15
:103220004FF4A4712046FFF7BBFCC4F82080C4F81B
:10323000088000BF4FF4A871204600E028E0FFF7A7
:10324000AAFC0028F6D04FF4A8712046FFF7A8FC8E
:10325000E878A968C4F84415C4F848053E4815E064
:10326000A8786968C4F84415C4F84805A868FEF74A
:1032700069FF68B1E878A968C4F83415C4F838055E
:103280004FF48450C4F8000240F20220B0609CE782
:1032900010205FE7A8786968C4F84415C4F84805A9
:1032A000B8060FD54FF48070C4F800022A48B06009
:1032B0004FF4A4794946204601E00CE01BE0FFF7FB
:1032C0006FFC05E04FF40070C4F80002801CB06091
:1032D000C4F8208079E7A8786968C4F83415C4F880
:1032E00038054FF48050C4F8000240F20220B0606C
:1032F0004FF0000BECE745464FF482774FF492789D
:103300000BE041462046FFF746FC30B141462046DF
:10331000FFF746FC25626561B94649462046FFF73E
:103320003AFC0028EDD0D4F8C404C4F8C404002149
:1033300086F8241068B10321C20701D04FF402417E
:10334000820701D548F20121400701D548F2022148
:103350008A465046FEE600000002040070B50C46A6
:1033600005464FF48E71FFF726FCA18AA068415CE8
:10337000A08A401CA082C5F81C1570BD1FB5002294
:103380008DF800208DF80810816801918275D0E9D0
:103390000012684690471FBD0078012801D10149FD
:1033A00088707047540000202DE9FF470C46054601
:1033B0004FF40071FFF705FC01274FF40178002658
:1033C00018B34FF4927949462846FFF7EFFBE0B176
:1033D00049462846FFF7EFFBC5F80883A07E00B9F1
:1033E0006F6002208DF80000D5F88004C5F88004D5
:1033F0000390E07D8DF80800E0680190E675267680
:10340000D4E900126846904727E004212846FFF7D8
:10341000D8FB10B34FF484712846FFF7C7FBE0B127
:1034200021462846FFF744FDE07D617E884214D1A5
:10343000207E38B1617EE268E0752069E060267622
:10344000667607E0A07E00B96F60C5F80883E67570
:10345000617EE2682046FFF744FD4FF48E784146D6
:103460002846FFF7A3FB88B1A08AA17D884204D239
:1034700021462846FFF772FF08E041462846FFF73D
:103480009AFBA17D11B12046FFF778FF4FF4A27897
:1034900041462846FFF78AFB002812D041462846BD
:1034A000FFF789FBA07E00B12F60E07D002808D0E7
:1034B000E675617EE26804B02046BDE8F047FFF79C
:1034C00010BDBDE8FF872DE9FF410C464FF4927710
:1034D00005463946FFF77BFB0026C0B13946284632
:1034E000FFF77AFB02208DF80000D5F88004C5F8BC
:1034F00080040390D5F83C058DF80800E068019041
:10350000E6752676D4E900126846904724E04FF429
:10351000887739462846FFF75AFBE8B139462846EE
:10352000FFF75AFBD5F83C05C1B2E07D884213D1C4
:10353000207E60B1E268D5F8000220F02000C5F8D6
:103540000002207EE0752069E060267601E0E675E5
:10355000E2682046FFF7C5FC4FF4A27739462846BB
:10356000FFF735FB68B139462846FFF735FBE07DAC
:1035700038B1E675D5F83C05E268C1B22046FFF7E0
:10358000B0FC4FF4907631462846FFF720FB002828
:103590000FD031462846FFF71FFBA07D002808D03A
:1035A000D5F84C0504B0C1B22046BDE8F041FFF7A4
:1035B000E5BEBDE8FF810000052805D8034B595C36
:1035C00041EAC21100F004B870470000BC360000A8
:1035D000052802D8014A22F8101070476C0000201C
:1035E0001FB5184A00218DF8041013888DF8053096
:1035F000190A8DF8061053888DF80730190A8DF8CE
:10360000081013898DF80930190A8DF80A10D3882B
:103610008DF80B30190A8DF80C1051898DF80D10AA
:10362000090A8DF80E100121009101460B2301AA11
:103630000548FEF773FE05490028886301D0FDF7B1
:1036400095FF1FBD6C000020943600000000002094
:10365000002211460520FFF7AFBF00B5002211463A
:103660000320FFF7A9FF002211460520FFF7A4FF62
:10367000002211460120FFF79FFF0022114610464D
:10368000FFF79AFF0022114604205DF804EBFFF7D4
:1036900093BF0000003000400001000000800040A7
:1036A0000004000000800040000400000000030748
:1036B0000000000000000307000000003F065B4F11
:1036C000666D7D077F6F777C395E79711B00000026
:1036D0001A00000000009801020000000000000035
:1036E0000200000100111213140D0E0F1000000053
:1036F000FFFFFFFFFFFFFFFFFFFFFFFFFFFFFFFFDA
:1037000000000000000000000000D60107010000DA
:10371000290000000100000001000000010000007D
:103720000100000001000000010000000100000095
:1037300002000000004040404040404040404141C5
:103740004141414040404040404040404040404076
:103750004040404040050202020202020202020210
:10376000020202020220202020202020202020020D
:10377000020202020202909090909090101010109D
:103780001010101010101010101010101010101039
:1037900002020202020288888888888808080808CD
:1037A0000808080808080808080808080808080899
:1037B0000202020240000000353700004F766572B9
:1037C000666C6F770D0A0000E837000000000020EB
:1037D0006C00000078100000543800006C000020DD
:1037E000CC2500008810000000010100000000004E
:1037F00000000000000000000000000000000000C9
:1038000000000000000000000100000000000000B7
:1038100000000000000000000000000000000000A8
:103820000000000000000000000000000000000098
:103830000000000000000000000000000000000088
:103840000020004000000000BC3700000090D003C2
:043850000000000074
:0400000500000401F2
:00000001FF
