:020000040000FA
:1000000078260020150400001D0400001F040000D5
:10001000210400002304000025040000000000006B
:1000200000000000000000000000000027040000A5
:1000300029040000000000002B0400002D04000033
:100040002F0400002F0400001D08000039050000E7
:100050002F0400002F0400002F0400002F040000D4
:100060002F0400002F0400002F0400002F040000C4
:100070002F0400002F0400002F0400002F040000B4
:100080002F0400002F0400002F0400002F040000A4
:100090002F0400002F0400002F0400002F04000094
:1000A0002F0400002F0400002F0400002F04000084
:1000B0002F0400002F0400000000000000000000DA
:1000C0002F0400002F0400002F0400002F04000064
:1000D0002F0400002F0400002F0400000000000087
:1000E0000000000000000000000000000000000010
:1000F0000000000000000000000000000000000000
:1001000000000000000000000000000000000000EF
:1001100000000000000000000000000000000000DF
:10040000DFF80CD000F066F800480047C123000078
:10041000782600200648804706480047FEE7FEE7AA
:10042000FEE7FEE7FEE7FEE7FEE7FEE7FEE7FEE7A4
:100430008105000001040000004870474C3F0000A7
:1004400040EA01039B0703D009E008C9121F08C056
:10045000042AFAD203E011F8013B00F8013B521ED6
:10046000F9D27047421C10F8011B0029FBD1801AF9
:1004700070472DE9F05F0546002092469B4688466E
:100480000646814640241BE0284641464746224610
:1004900000F041F853465A46C01A914110D3114614
:1004A0001846224600F028F82D1A67EB01084F463F
:1004B00022460120002100F01FF817EB00094E41F1
:1004C000201EA4F10104DFDC484631462A4643469B
:1004D000BDE8F09F064C074D06E0E06840F00103E0
:1004E00094E8070098471034AC42F6D3FFF78CFF2E
:1004F000643F0000843F0000202A04DB203A00FA19
:1005000002F1002070479140C2F1200320FA03F36A
:10051000194390407047202A04DB203A21FA02F068
:100520000021704721FA02F3D040C2F1200291402D
:100530000843194670470000F8B510480E4D0446B0
:100540004FF48C7102F0E7FB002813D00026C4F8AA
:100550001861D4F818010090A87E2C46FF2801D01D
:1005600002F03AFA66762671216801B0201DBDE8D6
:10057000F0400847F8BD0000C004002000300040F3
:10058000F0B598480023021D01780125101D4FF099
:100590008056062907D11478240704D10478C4F3BF
:1005A0000314032C02D0062904D00FE08F4F8E4C89
:1005B0007C670EE01478240708D10478C4F3031490
:1005C000032C06D0042C04D0052C02D0062907D019
:1005D0000EE0D6F84442864FC4F342343C6002E059
:1005E0001478240704D10478C4F30314032C02D034
:1005F000062906D011E07F4C276827F08077276016
:100600000EE01478240708D10478C4F30314032CF3
:1006100006D0042C04D0052C02D006290AD011E003
:100620004FF08044C4F80C31C4F81031704C241FD2
:10063000236002E01478240704D10478C4F303147F
:10064000032C02D0062905D00CE0694F032464373F
:100650003C600AE01478240704D10478C4F303143E
:10066000032C02D006290DD014E0634F05243C6012
:10067000614C78342560604C083423603F243F1D72
:100680003C6002E01478240704D10478C4F3031416
:10069000052C02D0062957D068E058490968584A05
:1006A00011605649091D0968121D1160534908312E
:1006B0000968121D116051490C310968121D116041
:1006C0004E4910310968121D11604C4914310968F6
:1006D000121D1160494918310968494A20321160D8
:1006E00046491C310968121D1160444920310968CE
:1006F000121D1160414924310968121D11603F49E2
:1007000028310968121D11603C492C310968121DFD
:1007100011603A4930310968394A4032116037492D
:1007200034310968121D1160344938310968121DCD
:10073000116032493C310968121D11602F49403166
:100740000968121D116002E0117809070ED10078C6
:10075000C0F30310032803D0042801D0052805D1D5
:10076000D6F85802274900F04F0008602148743835
:10077000016841F470010160BFF34F8FBFF36F8FC9
:100780004FF01021D1F80002002803DBD1F8040259
:10079000002822DA1C4A15601C480468002CFCD092
:1007A0001524C1F800420568002DFCD0C1F80442B0
:1007B00001680029FCD0136001680029FCD0BFF358
:1007C0004F8F0C48F0380168114A01F4E061114381
:1007D0000160BFF34F8F00BFFDE70F490D48086070
:1007E000F0BD0000E00F00F00DF0ADBA00C0074012
:1007F0003C050040FCED00E01056004004040010F1
:1008000020C50040E40E004004E5014000E4014042
:100810000400FA050090D003300000200448017F56
:1008200004480029024901D003F063BA03F0D2B9A9
:10083000E0040020002000400FB41CB50246002058
:1008400007AC00290BD0491ECDE90021054B6A46B3
:100850002146069800F02CF8009A002111701CBC6B
:100860005DF814FB130D00000FB4084B10B504A97C
:1008700002AA039800F01CF8044602A9002000F028
:1008800053FA204610BC5DF814FB0000290D00004F
:1008900002E008C8121F08C1002AFAD17047704749
:1008A000002001E001C1121F002AFBD170470000A7
:1008B0002DE9FF4F8DB00F460546002606E025289E
:1008C0000BD0DDE90F1290476D1C761C28780028AC
:1008D000F5D111B03046BDE8F08F0024A246A14604
:1008E0000122EC4900E0044315F8013F203B02FAE5
:1008F00003F00842F7D128782A2810D06FF02F0291
:100900002878A0F13001092914D80AEB8A0102EBFA
:10091000410144F0020400EB010A6D1CF0E701CF35
:100920005FEA000A03D544F40054CAF1000A44F017
:1009300002046D1C28782E2817D115F8010F44F0F9
:1009400004042A280ED06FF02F022878A0F130017D
:1009500009290AD809EB890102EB410100EB0109E1
:100960006D1CF2E757F8049B6D1C28786C280FD09B
:1009700006DC4C2817D068280DD06A2814D104E072
:10098000742810D07A280FD10DE044F400140AE046
:1009900044F4801401E044F440146978814202D1A7
:1009A00004F580146D1C6D1C2A786E2A1FD00CDC97
:1009B000632A31D004DC002A8BD0582A11D1A3E05D
:1009C000642A68D0692A0CD165E0732A2ED004DC31
:1009D0006F2A73D0702A04D19BE0752A6FD0782AD1
:1009E0006ED01046DDE90F129047761C50E1C4F33B
:1009F0000250022806D0032809D0042801CF09D0CC
:100A0000066045E101CFF117C0E9006140E101CF87
:100A100006803DE106703BE117F8040B8DF80000FD
:100A200000208DF80100EB46012003E057F804BBDD
:100A30004FF0FF3061074FF0000102D40DE008F1E4
:100A40000101884649450FDA8045F8DB1BF808109C
:100A50000029F4D108E008F1010188468142FADB5F
:100A60001BF808100029F6D1DDE90F23AAEB0800D6
:100A70008146214600F036F9304400EB080604E0D8
:100A8000DDE90F121BF8010B9047B8F10108F7D20E
:100A900021464846F7E00A21C4F302534FF0000B09
:100AA0000891022B04D001CFC117032B09D00AE013
:100AB000FF1D27F00707F7E8020108E032E01FE01A
:100AC00020E000B2C117042B01D140B2C117031EB0
:100AD00071F1000307DA4FF0000CD0EB0C006CEB67
:100AE00001012D2302E0230504D52B238DF82430AA
:100AF000012303E0E30701D02023F7E7984658E0FD
:100B00000A2110E010210EE010204FF0000B089099
:100B10000CE010214FF0000B44F004044FF00809E2
:100B2000089103E008214FF0000B0891C4F3025331
:100B3000022B04D001CF0021032B06D006E0FF1DBD
:100B400027F00707F7E8020103E080B2042B00D189
:100B5000C0B24FF0000823072BD5702A07D0DDF86C
:100B600020C08CF0100C5CEA0B0C05D00EE040238A
:100B70008DF82430012308E050EA010306D0302329
:100B80008DF824308DF8252002239846DDF820C00A
:100B90008CF0080C5CEA0B0C0BD150EA010301D17C
:100BA000630706D530238DF824304FF00108A9F1F2
:100BB0000109582A04D038A20B9208AA0A920BE025
:100BC0003AA2F9E75B46089AFFF753FC0B9B9B5C44
:100BD0000A9A521E0A92137050EA0102F2D10A9840
:100BE000ADEB000000F1200B600702D524F4803447
:100BF00001E04FF00109D94502DDA9EB0B0000E04F
:100C0000002000EB0B0141440890AAEB010AE0032D
:100C100006D4DDE90F232146504600F063F8064470
:100C20004FF0000908E009A911F80900DDE90F12E9
:100C3000904709F10109761CC145F4DBE0030CD5AE
:100C4000DDE90F232146504600F04CF8064404E04D
:100C5000DDE90F1230209047761C0899481E089055
:100C60000029F5DC08E00A980A990078491C0A91E5
:100C7000DDE90F129047761CBBF10001ABF1010BCF
:100C8000F1DC21465046DDE90F2300F019F8064457
:100C90006D1C1BE6092801003031323334353637FC
:100CA00038396162636465660000000030313233B8
:100CB0003435363738394142434445460000000058
:100CC0002DE9F041044600251E461746880404D449
:100CD00005E039462020B0476D1C641EF9D5284632
:100CE000BDE8F0812DE9F041044600251E469046FE
:100CF000C80301D5302700E02027880404D505E08B
:100D000041463846B0476D1C641EF9D52846BDE8FB
:100D1000F0814A68002A06D00A68531C0B601070E4
:100D20004868401E486070470A68531C0B6010708A
:100D30007047000008A1012001F0CAFFBFF34F8FE8
:100D40000B4801680B4A01F4E06111430160BFF3F5
:100D50004F8F00BFFDE700004150505F4552524F9A
:100D6000523A4552524F523A466174616C0D0A0034
:100D70000CED00E00400FA050EB500210091CDE96C
:100D800001106A4644F20100FFF7D4FF0EBD0000D7
:100D9000144B10B593F822402CB193F82240032C49
:100DA00003D0112010BD082010BD82B1042483F8A7
:100DB00022409C7A240700D44902C3E903019A82A5
:100DC0000020DA829883012A03D9522002E007200A
:100DD00010BD5120012202F0CFF808B1FFF7CCFF7F
:100DE000002010BD0005002070B5194B144693F883
:100DF00022202AB193F82220032A03D0112070BDAB
:100E0000082070BDECB1052283F822209A7A1507DC
:100E100000D44902C3E903019C820020DC8298834C
:100E2000012C10D002F0070001284FF001020DD074
:100E30002146D72002F0A0F808B1FFF79DFF00205F
:100E400070BD072070BD01225820F3E75920F1E75B
:100E500000050020054890F82210032904D090F8DE
:100E6000220008B1012070470020704700050020D3
:100E7000044890F82210032901D3001D7047002078
:100E80007047000000050020F0B52E4C054687B0E5
:100E900094F822000F4610B1082007B0F0BDEFB360
:100EA000E878FF284CD06978FF2949D02978FF29B4
:100EB00046D0A978FF2943D0002684F858000122A3
:100EC000009633461146019601F04EFD94F8580005
:100ED00001F089FD1C4B0DF1080C0FCB8CE80F00C5
:100EE000A8788DF8080028788DF8090068788DF8C2
:100EF0000A001548154A02A9083801F027FB08B175
:100F0000FFF73AFF44F8227B012004F819096078C2
:100F100020F00F006070A676FF2000E010E0E07780
:100F20000A20084B0090084838330122A3F1100131
:100F3000083801F099FB08B1FFF71EFF0020ACE76D
:100F40000720AAE700050020383E0000B93700005E
:100F50007CB50F4D95F8220028B195F822000328A2
:100F600003D011207CBD08207CBD0A4801F08AFB1B
:100F7000002495F858000094234622462146223545
:100F8000019401F0F1FC6C702C7000207CBD00001D
:100F900000050020303E00002DE9F04106460868BB
:100FA0000C46411C4FF0A0474FF0010506D005FA52
:100FB00000F1C7F80815206801F004FD6068411CC5
:100FC00002D0002101F0EBFC3079204901EB401008
:100FD000A169007F00283068C0F8241525D0607D05
:100FE000227D31681043C1F86C05D4E900123068E5
:100FF000C0F80C15C0F8142524E0A068411C02D0EC
:10100000002101F0CCFCE068411C05D08540C7F808
:101010000855E06801F0D6FCD4E902123068C0F847
:101020000825C0F81015BDE8F081607D217D32688B
:101030000843C2F86C05D4E900123068C0F81425E2
:10104000C0F80C15207D0128D7D0ECE7E004002083
:10105000087A0A782AB1012A03D0022A01D0032A89
:1010600009D100EB400204484978406800EB820057
:1010700001720021817270470C0000208069704766
:101080002DE9FE430E46016984698046B1F5007F73
:1010900002D00620BDE8FE83134D696809B1112016
:1010A000F8E7A660A261686010491430FFF7ECFE13
:1010B000070008D1A6B900BFFFF7CCFE0028FBD17E
:1010C000287878B10D27002068604EB1084A07CA19
:1010D0008DE80700A0690290A268694640469047E3
:1010E0003846D7E70027FBE71C000020313000001E
:1010F000783E000019B1012906D0062070470AB1D8
:10110000002010700020704712B1001D1060F9E738
:1011100007207047FEB51C4F0646846978680D4667
:10112000B04202D1FFF796FE08B11120FEBD95E84E
:10113000070004F10C0383E80700A888296882B23D
:10114000A868FFF725FE050009D1A068C0B900BF57
:10115000FFF780FE0028FBD1387898B10D25A068F4
:1011600070B16DB10948016B806B029004F10C0005
:10117000CDE90010A0690290A26869463046904708
:101180002846FEBD0025EAE71C000020603E000066
:10119000FEB5124F044685697868A04202D1FFF778
:1011A00059FE08B11120FEBDFFF7D2FE060000D1A6
:1011B0007860A86878B10A4907C98DE807000EB1C0
:1011C000012000E000208DF80100A8690290AA68C3
:1011D0006946204690473046FEBD00001C000020B6
:1011E000843E0000FEB51C4F0646846978680D46B3
:1011F000B04202D1FFF72EFE08B11120FEBD95E8E6
:10120000070004F10C0383E80700A888296882B26C
:10121000A868FFF7E9FD050009D1A068C0B900BFC3
:10122000FFF718FE0028FBD1387898B10D25A0688B
:1012300070B16DB10948C16B406C029004F10C00B3
:10124000CDE90010A0690290A26869463046904737
:101250002846FEBD0025EAE71C000020603E000095
:10126000002901DA00207047026811440160012062
:101270007047000010B504460020E070401EE06298
:10128000204601F00CF908B1042010BD04F22E2014
:1012900001F090F8A0F52A41553901D0032010BD86
:1012A00094F83000E92805D0EB2814D194F83200E6
:1012B000902810D104F1660001F071F80749B1EBF4
:1012C000002F06D004F1820001F069F80449884239
:1012D00001D1002010BD022010BD00000046415485
:1012E000464154334269891E921E8A4201D8002029
:1012F0007047826A408901FB002070472DE9F04168
:1013000005680F00804606D000F07CFF022809D255
:101310000120BDE8F081EE6816B16869B04207D8D7
:10132000012605E0411CF4D069698142F1D83E46AE
:1013300034466869641CA04202D80224022E0AD3F3
:101340002146404600F05EFF38B10128E1D0411C43
:10135000DFD0B442EDD10020DBE74FF0FF3632465C
:101360002146284601F034FD30B957B122463946AE
:10137000284601F02DFD20B101280FD00124204680
:10138000C7E7EC60D5E90401891E884201D2401EFE
:101390002861287940F001002871F0E73446EEE733
:1013A0002DE9F0410E4620300D6804460B22202125
:1013B00001F06EF80020014608232A5C401C202A18
:1013C00012D92F2A0BD05C2A09D02E2A01D099429B
:1013D00014D30B2B37D02E2A35D10CE0401C2B5CBC
:1013E0002F2BFBD05C2BF9D02844306059B32078E8
:1013F000E52834D035E008210B23DEE7A2F1810790
:101400001E2F02D95F3F1C2F13D82F5C401CA7F161
:10141000400CBCF13F0F04D3A7F1800CBCF17D0F51
:1014200011D2A3F1010C61450DD26254491C6754DD
:1014300013E010A700E07F1C97F800C0BCF1000F7C
:1014400004D09445F7D10620BDE8F081A2F16107F0
:10145000192F01D8203AD2B26254491CADE70520B9
:101460002070202A01D8042000E00020E072002033
:10147000EAE70000222A2B2C3A3B3C3D3E3F5B5DD5
:101480007C7F000020BF70472DE9F0410446002119
:10149000056800F0D8F8002826D12846A16900F098
:1014A000FEFF02001FD1E069017899B1C17A01F015
:1014B0003F01A171C17A09070FD404F120010B2665
:1014C00010F8013B11F8017BDB1B761E04D0002BCA
:1014D000F6D002E0042206E02BB10021204600F005
:1014E00005F80200D9D01046BDE8F0812DE9F0479B
:1014F00005460769046880698946203710B1B7F549
:10150000001F02D30420BDE8F087F90560D1401C1C
:10151000A86169694FF0000829B16089401E10EA8E
:10152000572F05D054E02089B0EB571F1DD94FE04D
:10153000284600F067FE064601281BD9701C33D0F0
:101540006069B0423ED8B9F1000F0ED028466969F3
:10155000FFF7D4FE06000BD0012E0BD0701C23D059
:10156000204602F0CDFAF8B906E0C5F81880C9E7C0
:101570000720C8E70220C6E74FF40072002104F1FB
:10158000300000F085FF4FF0000831462046FFF79D
:10159000A9FE4FF00109E0620DE000BF84F803905E
:1015A000204602F0ADFA08B10120ACE7E06A08F18C
:1015B0000108401CE06261894145EFD8E16AA1EB76
:1015C0000800E062314620466E61FFF78BFEA8619D
:1015D000C7F30800204430302F61E861002092E713
:1015E00070B504460021066800F02DF80DE0304685
:1015F000A16900F054FF50B9E0690078E52809D0EE
:1016000040B101212046FFF771FF0028EFD00428E8
:1016100007D007E03046A16900F041FF050003D084
:101620000FE0072005460CE020220021E06900F0D1
:101630002FFF0B2204F12001E06900F01FFF0120C1
:10164000F070284670BD2DE9F04107680E4605464A
:10165000B1F5001F36D2F00634D12E61AC6824B942
:101660003878032805D37C6A1CB178894FEA402872
:1016700012E03889B0EB561F24D9786A12E0284668
:1016800000F0C0FD0446401C1AD0022C1AD3786921
:10169000A04217D9A6EB080646452146EFD23846A8
:1016A000FFF720FEC5E9054060B100EB5620A861B8
:1016B000C6F3080038443030E8610020BDE8F0810E
:1016C0000120FBE70220F9E770B51C4C2178884225
:1016D0000DD2616800EB400551F825303BB101EBBC
:1016E00085014A7AD20704D04A6822B105E0032076
:1016F00070BD487A70BD124A4A6001228A72024661
:101700001868104906681846B04710B110E04068E4
:101710008047606800EB8500817A0029F7D1616815
:1017200001EB8501097A19B9417A21F00101417271
:10173000606800EB8500407A70BD00000C0000205E
:10174000851400005110000038B51D4D2B789842CB
:1017500001D3042038BD00EB400439B118480129F9
:10176000406815D002291DD0012038BD01208DF818
:10177000000068686A46002150F8240000F0A8FEC6
:1017800008B1112817D19DF800000028F1D112E00E
:1017900050F8240088B101681446496988470068F8
:1017A000206008E050F8240038B101681446496907
:1017B000884780882080002038BD032038BD000085
:1017C0000C000020FEB51D4C2578A8420DD263B157
:1017D00000EB4005606850F8256026B100EB8506F7
:1017E000777AFF0703D00320FEBD0420FEBD0092E0
:1017F000CDE901310121B17250F825606F463068A2
:1018000041693046884700680099884214D9306899
:10181000394682683046904710B10DE040688047F5
:10182000606800EB8500817A0029F7D1606800EBE1
:101830008500007A0028D9D00120FEBD0C000020D0
:1018400006490A78904201D301207047496800EBAD
:10185000400001EB8000407A704700000C0000203F
:10186000FEB5204C2578A8420DD263B100EB4005AF
:10187000606850F8256026B100EB8506777AFF078F
:1018800003D00320FEBD0420FEBD777A7F0701D57B
:101890000220FEBD0092CDE901310121B17250F864
:1018A00025606F4630684169304688470068009976
:1018B000884214D930683946C2683046904710B122
:1018C0000DE040688047606800EB8500817A002960
:1018D000F7D1606800EB8500007A0028D9D001209C
:1018E000FEBD00000C000020014A506011707047DE
:1018F0000C00002038B5044600F00CF9002807D190
:101900006946204602F06DFA002801D100212160CD
:1019100038BD000017B581B01446029800906846A3
:1019200000F0CFFC002802DA0B2004B010BD0B4AF7
:10193000002352F8201001B10B700199002900D04A
:101940000B7042F8201001D0012C01D00020ECE7F0
:10195000002201A902A800F0F5FAE6E7180000202D
:101960002DE9F7438CB005000BD002F03F0632465C
:1019700069460DA800F0E6FA04004FF0000804D014
:10198000C0E009200FB0BDE8F0830098019001A8E5
:101990000D9900F0FDFB040004D19DF82F00000616
:1019A00000D5062416F01C0F4CD04CB1042C03D1EA
:1019B00001A8FFF715FE044646F008065CB1A1E059
:1019C0009DF80A0010F0110F01D007249AE070076B
:1019D00001D5082496E0300743D54D4F0898394685
:1019E0000E3002F03CF808983946163002F037F80D
:1019F00008992020C8720899009800F0BDFC07469D
:101A000000220899009802F016F8089800211C306E
:101A100002F025F800990120C87007B3D1F82C9086
:101A20000022394601A801F048FA04006AD149466B
:101A3000009800F034FD04000098A7F10107C7608A
:101A40000BD05FE0CCBB9DF80A00C10601D5042491
:101A500058E0B10701D5C007B7D1300701D546F02E
:101A600040060098C16A296208996962089900F0E5
:101A700083FCA86008981C3000F091FCE860009896
:101A8000286000984FF400720021C088A8802E744E
:101A900085F81180C5F81C8005F128008146C5F83D
:101AA000148000F0F5FCB0062ED5EE6866B36E61CA
:101AB0000098A968408947020FE023E0284600F01B
:101AC000A1FB0146012800D80224481C02D0F61BC5
:101AD0001CB104E00124F61B01E0BE42EED8A9616E
:101AE00084B9F00510D00098FFF7FCFB70B100EB53
:101AF0005622EA610098012349464078FFF762FECA
:101B000010B10124C5F8008020463BE70224F9E724
:101B100000002148F8B50446694602F062F9002841
:101B20000ED1217C4A060BD508060ED50098E26935
:101B30000123407804F12801FFF792FE08B101204B
:101B4000F8BD207C00F07F002074154E216A0098BB
:101B500000F0A5FC0028F3D1656A2946E87A40F038
:101B60002000E872A268206801F065FF05F11C0002
:101B7000E16801F074FF314605F1160001F06FFFD6
:101B8000002105F1120001F072FF00980121C170DF
:101B900001F072FF217C01F0BF012174F8BD00004B
:101BA000000021482DE9FE4F884600211960994622
:101BB0001546044602A902F014F9002806D1607CFB
:101BC000002803D1207C800702D40720BDE8FE8FC7
:101BD0006069012742194FF0020A04F1280B824282
:101BE00000D2C54394E06069C1056ED1029949896C
:101BF000491E11EA502612D108B1A16902E0A0687D
:101C000028B900212046FFF779FB00287DD0012864
:101C10002DD0411C54D0A061A16801B9A060207CE6
:101C200000060BD50298E269012340785946FFF778
:101C300017FEA0BB207C00F07F002074A1690298F1
:101C4000FFF750FB98B130440190680A009027D00C
:101C5000029932184889824201D9801B0090DDE93F
:101C6000003248784146FFF7FBFDC0B903E084F835
:101C700011A00220AAE7E1690198081A0099884298
:101C80000AD208EB40214FF40072584600F0F6FBF0
:101C9000207C00F07F0020740098460227E00FE0CF
:101CA000E169019881420ED0E168606988420AD2F8
:101CB0000298012359464078019AFFF783FD10B13D
:101CC0006774012082E70198E061A08AC0F30800F0
:101CD000C0F50076AE4200D92E4620443246414639
:101CE000283000F0CBFB207C40F08000207460693D
:101CF000B04430446061E168884200D80846E06042
:101D0000D9F80000AD1B304400E004E0C9F8000041
:101D1000002D7FF468AF207C40F04000207400204C
:101D200054E70000F8B50D46064601213148FFF79B
:101D3000DBFD31A1032000F0CBFF03240020FFF7DF
:101D4000C3FC641E02D00028F8D102E008B134A11F
:101D500032E03D4F3D487969884740684FF4801133
:101D6000B1FBF0F4796939488847006838A1B0FBC5
:101D7000F4F2032000F0B0FF3CA1032000F0A8FF24
:101D8000012242A14248FFF7C5FD08B141A113E07D
:101D90004748407A0028FDD12AA1132000F098FF7F
:101DA00044A1032000F094FF41483322314618300B
:101DB000FFF7D6FD20B147A1032000F089FFF8BD51
:101DC00065B14FA13A486B4603221830FFF7EAFE8F
:101DD00030B14CA1032000F07BFF06E050A1F1E7F9
:101DE00050A10320009A00F077FF31481830FFF728
:101DF00081FDF8BD000000204150503A494E464F49
:101E00003A496E697469616C697A696E67206469C0
:101E1000736B20302028534443292E2E2E0D0A00A8
:101E20004150503A494E464F3A4469736B20696EAF
:101E3000697469616C697A6174696F6E2066616941
:101E40006C65642E0D0A0000483E0000143E000040
:101E50004150503A494E464F3A436170616369744C
:101E6000793A202564204D420D0A00004150503A35
:101E7000494E464F3A4D6F756E74696E6720766FA6
:101E80006C756D652E2E2E0D0A00000000000000FE
:101E9000340000204150503A494E464F3A4D6F753C
:101EA0006E74206661696C65642E0D0A0000000086
:101EB000640200204150503A494E464F3A577269E9
:101EC00074696E6720746F2066696C65202E2E2EF3
:101ED0000D0A00004150503A494E464F3A556E6146
:101EE000626C6520746F206F70656E206F72206366
:101EF00072656174652066696C653A202E0D0A0072
:101F0000310000004150503A494E464F3A577269ED
:101F10007465206661696C65640D0A2E000000001E
:101F2000300000004150503A494E464F3A25642057
:101F30006279746573207772697474656E2E0D0A08
:101F4000000000002DE9FF41002790460E460F607B
:101F500000F0B7F9050003D50B2004B0BDE8F0810F
:101F6000884850F825409CB13460207808F0FE067F
:101F700020B16078FFF764FCC1070BD02770E8B28E
:101F8000B8466070FFF7A0FBC10708D00320E4E764
:101F90000C20E2E70EB1400704D40020DDE71EB1BB
:101FA000400701D50A20D8E7002631462046FFF732
:101FB00061F9022822D100254FEA0D0704EB051034
:101FC00090F8F21100F5F77019B1083000F0E7F958
:101FD00000E0002047F825006D1C042DEED30025FD
:101FE00057F8256036B131462046FFF743F90228FD
:101FF00001D203E003206D1C042DF1D3042809D085
:1020000002286DD204F13B0000F0D4F9B0F5007F56
:1020100066D101E00120A0E704F1460000F0CAF912
:1020200018B904F1540000F0BAF9A06194F84050D6
:10203000A570012D01D0022D52D1454394F83D00E9
:102040006081E8B3411E08424AD104F1410000F02A
:10205000B1F92081000743D104F1430000F0AAF94F
:10206000070004D104F1500000F099F9074604F18B
:102070003E0000F09FF9010032D02389481900EB9F
:10208000131297422CD3B81A6789B0FBF7F0B8B196
:1020900003274FF6F57C604500D8022740F6F57C13
:1020A000604500D80127801C3244A262314460613F
:1020B000C4E90761032F15D013B12944616200E020
:1020C0000EE0022F1FD000F0010100EB400001EBF9
:1020D000500000BFA16900F2FF10B1EB502F14D2E5
:1020E0000D203AE704F15A0000F064F90028F7D116
:1020F00020890028F4D104F15C0000F050F96062FE
:1021000060698000E6E74000E4E74FF0FF302061BF
:10211000E06080202071032F2CD104F1600000F0DA
:1021200049F9012826D1711C204600F0B8F908BBF6
:1021300084F8048004F22E2000F03CF9A0F52A4136
:10214000553917D104F1300000F029F90E498842C1
:1021500010D104F5057000F022F90C49884209D12C
:1021600004F5067000F01BF9206104F5077000F01B
:1021700016F9E06003492770091F0888401C088091
:10218000E0800AE7180000205252614172724161FA
:1021900073B504460568019801E0401C0190017880
:1021A0002F29FAD05C29F8D00021A160019800788D
:1021B000202806D2802084F82B002046FFF743FA1F
:1021C0007CBD01A92046FFF7EBF80028F8D1204696
:1021D000FFF75AF994F82B1028B10428F0D14907D9
:1021E000EED405207CBD4907FCD4A079C006F8D503
:1021F000208AC0F3080041192846303100F0BCF8AD
:10220000A060DEE72DE9F04104680D4602290BD3FA
:102210006069A84208D920784FF0FF36012807D01E
:1022200002282BD0032839D001263046BDE8F081A2
:10223000206A05EB550700EB5721204600F02FF9E7
:102240000028F2D1C7F3080020447F1C90F83080AA
:10225000206A00EB5721204600F021F90028E4D144
:10226000C7F30800204490F8301048EA0120E9073D
:1022700001D00609D9E7C0F30B06D6E7206A00EBC8
:102280001521204600F00BF90028CED1E8B204EB6E
:102290004000303000F08EF80646C6E7206A00EBBA
:1022A000D511204600F0FBF80028BED140F2FF1007
:1022B00000EA85002044303000F071F820F07046CC
:1022C000B3E710B504464FF0FF302268002A13D060
:1022D000114600E0491C0B78212B0ED33A2BF9D183
:1022E00012F8013B303B0A2B06D28A4204D1002B64
:1022F00002D1491C1846216010BD002010BD00000D
:1023000070B50E460446007918494FF4A27501EBEA
:102310004010017F2068A1B14FF4887100F016FDD4
:102320004FF49071206800F011FD4FF49271206815
:1023300000F00CFD2946206800F008FD0C492068DB
:1023400009E04FF48E7100F0F0FC2946206800F09F
:10235000ECFC08492068C0F80413206800F0E2F89B
:102360003146BDE8704000F0C1B80000E004002034
:10237000100302008000020070B506460D4601F110
:102380001A0000F017F804463078032805D105F14B
:10239000140000F00FF844EA0044204670BDC178F4
:1023A000827842EA01214278007842EA012140EA3B
:1023B000012070474178007840EA01207047000012
:1023C0002DE9F041174900273C464FF0A046C1F8DF
:1023D0000077384600F08EFC08B1FEF7CDFC12A164
:1023E000032000F075FC00BFD6F8100516A1C0F35D
:1023F00080352A464046FEF737FA2A4613A10320C5
:1024000000F06AFC294617A0FFF78CFC3A4618A199
:10241000032000F061FC641CE4B20A2CE4D3002029
:10242000BDE8F081380000504150503A494E464FC7
:102430003A0D0A4641544653206578616D706C65CB
:102440002E0D0A0D0A000000256400004150503A8C
:10245000494E464F3A70696E2076616C75653A2038
:102460002575000053656E736F72362E7478740094
:102470004150503A494E464F3A257500002A05D042
:1024800011F8013B00F8013B521EF9D170470000E2
:102490005FFA81F100F8011B521EFBD1704770B545
:1024A0000446C06A0D460026A8420FD0204601F01F
:1024B00027FB06000AD1607801232A4604F1300187
:1024C000FFF780F908B1751E0126E562304670BD40
:1024D00003681B69184700F01F0201219140400961
:1024E000800000F1E020C0F8801170474907090E14
:1024F000002806DA00F00F0202F1E02282F8141D33
:1025000003E000F1E02282F8001400F01F02012134
:1025100091404009800000F1E020C0F88012C0F82E
:1025200000117047000B40B270470121B1EB507FA2
:1025300001D101207047002070470121B1EB507F8D
:1025400001D1012070470020704700002DE9FC5F99
:102550000C464179DFF80CA180460AEB4117387E22
:1025600010B10820BDE8FC9F3A60207B01254FF0A8
:10257000A046012805D8217805FA01F0C6F80C0517
:1025800002E0207800F028FA2178A946890001F1BC
:10259000A041C1F800576578FF2D07D009FA05F072
:1025A000C6F80C05284600F003FA01E04FF0FF35AD
:1025B000A0784FF0000BFF280AD0002206465B46A9
:1025C000CDF800B01146CDF804B000F0A9F901E053
:1025D0004FF0FF36E078FF2804D000F0FDF9E078F6
:1025E00000F0E6F998F80520E1780AEB42108176D0
:1025F000D8F800002178C0F80815C0F80C55C0F8CC
:102600001065A168C0F82415227B617B01B101210E
:10261000012A04D0022A05D0032A08D105E041F09E
:10262000020104E041F0040101E041F00601C0F8BC
:1026300054156179C0F8C015396811B14021C0F84E
:1026400004130721C0F80015386820B1217998F9E2
:102650000400FFF74BFF584687F819B087F8189029
:1026600080E70000C00400201FB5069C00918DF893
:10267000042002938DF80C400022694600F032F8E5
:1026800004B010BD2DE9F0414179154A02EB411526
:102690000122296859B190F9041001F01F0302FAD0
:1026A00003F34909890001F1E021C1F88031046890
:1026B0002868002670B1701EC4F80803687E48B10F
:1026C00062614FF482773946204600F024FB0028EF
:1026D000F9D06E76C4F800652E76BDE8F081000072
:1026E000C0040020F0B413460D464179134A02EBB2
:1026F00041114A7E12B1F0BC112070470C680122D2
:102700001CB113F0140F00D14A7695E8D0100831AF
:1027100081E8D01011F8154F24F0030401F81D4989
:102720008C7EFF2C04D04FF0A046A240C6F80C25AA
:1027300000682A46F0BC01F025B90000C004002062
:102740002DE9F04105460079164F904607EB4014FD
:102750000E46E07E10B10820BDE8F081707F207742
:102760002846FEF719FC5FEA0800606031692160C5
:1027700003D0317F2846FFF7C3FD287907EB4010CF
:10278000007F0028286801D0082100E00421C0F85B
:1027900000150020E0752076A0750121E176A07675
:1027A000DAE70000E00400202DE9F0470546007953
:1027B0003F4E904606EB40140F46207F18B1084666
:1027C000FFF7BBFE30B1284600F074F820B11120AD
:1027D000BDE8F0871020FBE784F81680A76000278B
:1027E000A78228794FF0010806EB40143E46207F6F
:1027F0000028286825D04FF49079494600F0A6FAC1
:102800004FF4AC7A5146286800F0A0FA2868A17D00
:10281000A268C0F84425C0F848152868C0F80880A8
:102820006068F0B94946286800F08BFA8046514646
:10283000286800F086FA58EA0001F3D058BBA77563
:102840000FE04FF48E7A514600F06FFA2868C0F816
:1028500008802146286801F097F961684FF480707C
:1028600089B13046B4E75146286800F059FA10B9EA
:10287000A08A4845F7D1A08A484505D02146286856
:1028800001F082F900E08146A08AA17D8842EAD366
:10289000A08A484501D10F26D1E75146286800F0AB
:1028A0003FFA0028F9D02868C0F80C80C7E700007C
:1028B000E00400200079044901EB4010807D0028ED
:1028C00000D0012070470000E004002070B50446ED
:1028D00000791149002601EB401520682A7FC0F8D5
:1028E0000065686888B1207901EB4010007F0028FE
:1028F000206801D0094901E008498C39C0F8081363
:102900002068FFF70FFEFFF7E6FD204600F024FAEF
:10291000EE766E6070BD0000E0040020100302003F
:1029200070B541EA4201DDE904564FF0A04441EAA6
:10293000830141EA052104EB800041EA0641C0F829
:10294000001770BD70B541EA4201DDE904564FF051
:10295000A04441EA830141EA052104EB800041EAF9
:102960000641C0F8001770BD70B541EA4201DDE9CB
:1029700004564FF0A04441EA830141EA052104EBEB
:10298000800041EA0641C0F8001770BD1CB5002167
:1029900000910B4601220191FFF7D4FF1CBD1CB52D
:1029A00000220B46009211460192FFF7CBFF1CBD9F
:1029B0001CB5002100910B46012201911146FFF741
:1029C000AFFF1CBD1CB5002100910B4601220191F7
:1029D0001146FFF7B7FF1CBD4FF0A0420121814017
:1029E000C2F8081570474FF0A04201218140C2F89B
:1029F00008157047004870476D2A000030B5184C24
:102A0000054689B0207828B16078854202D100203F
:102A100009B030BD202213496846FDF711FD0020A2
:102A20008DF81400062000900820019005200390E6
:102A3000072002904FF0EB7006900948001DFFF749
:102A400045FF0DB1002200E0074A05486946001D18
:102A5000FFF776FE0028DBD1012020706570D6E7F5
:102A600024000020A83E0000C53B00002DE9F04FE7
:102A7000C1B00D004FF0000140914D984B991C469C
:102A8000174601EB000B01D00A2000E00020804631
:102A900000F076FE00287CD16E46BCB9409840AA72
:102AA0003118284601F056F8002872D03846FDF754
:102AB000D9FCC22800D9C220054640982A46304495
:102AC0003946FDF7BDFC4098284440904FF0200A5D
:102AD000409901EB080231320DEB01050DEB0206C6
:102AE000002002E005F801AB401C4045FAD3002766
:102AF0005C4508D305F801AB05F801AB05F801AB5F
:102B000006F801AB2DE04B98844202D24A98005D52
:102B100002E0211A4C98405C2B4681460246012176
:102B2000880022FA00F000F00F00092801D93730A0
:102B300000E03030C1F1010C491E03F80C00EFD267
:102B40009D1C05F801ABFDF777FC016811F8090041
:102B500010F03E0F01D0484600E02E2006F8010B91
:102B6000641C7F1C102FC3D30D2030700A2070709E
:102B700085F800A04099684641444331409100F0F7
:102B800005FE30B100F0FCFD18B9002040905C4516
:102B90009ED341B02046BDE8F08F2DE9F043C7B089
:102BA00000251C46904689464E9F459500F0E8FD5D
:102BB00000287AD1459805AE311845AA484600F05C
:102BC000C9FF002835D0072F27D2DFE807F004120D
:102BD0001B35424F5D004046FDF744FC05464598D5
:102BE0002918FF2919D830442A464146FDF728FC08
:102BF00013E045982368C0F5807130444246FDF7E4
:102C00001BFE09E06068009045982368C0F580715C
:102C100030444246FDF710FE0546294645A8FEF71A
:102C20001FFB459978B3B1F5807F3ED805A800F029
:102C3000ADFD47B0BDE8F083D4E90101CDE9000165
:102C400045982368C0F5807130444246FDF7F4FD95
:102C5000E2E7201D07C88DE8070045982368C0F506
:102C6000807130444246FDF7E7FDD5E7201D0FC8CF
:102C70008DE80F0045982368C0F5807130444246C6
:102C8000FDF7DAFDC8E710E004F1080001AD0FC858
:102C900085E80F006068009045982368C0F5807152
:102CA00030444246FDF7C8FDB6E70020C1E700000A
:102CB000004870479B2B000038B50D460093034B2E
:102CC00000215C6913462A46A04738BD5C060020F7
:102CD00000231A46FFF7F0BF08B5012300926A46A9
:102CE000FFF7EAFF08BD0000014AC2E9050170478D
:102CF0005C06002070B50120FFF780FE040008D1BB
:102D0000FFF7D6FF0546FFF775FE01462846FFF799
:102D1000EBFF204670BD4058002800D001207047CE
:102D20004058002800D00120704708B500224250CA
:102D30004058009008BDD0F80403084000D001209E
:102D400070474058002800D00120704708B5002285
:102D500042504058009008BD70B5034600791B49A9
:102D600001EB40101968027F4FF0FF30002AD1F8C4
:102D70000C25D1F81465D1F80855D1F8104504D0C8
:102D8000C1F80C05C1F8140503E0C1F81405C1F839
:102D90000C051968C1F80805C1F81005501C02D0CF
:102DA0001046FFF7F3FD701C02D03046FFF7EEFD32
:102DB000601C02D02046FFF7E9FD681C04D02846BD
:102DC000BDE87040FFF7E2BD70BD0000E0040020E8
:102DD0002DE9F047022617460D460446022969D31D
:102DE0006069A84266D920784FF00109012804D013
:102DF000022836D003285DD143E0216A05EB55084F
:102E000001EB58212046FFF74AFB060052D1C8F3D8
:102E100008002044303008F10108E90704D00178A7
:102E2000FAB262F31F1100E03946017084F8039092
:102E3000216A204601EB5821FFF731FB060039D10A
:102E4000C8F3080020443030E90702D0C7F3071167
:102E500005E00178C7F3032201F0F001114301708E
:102E600026E0206A00EB15212046FFF718FB06003C
:102E700020D1E8B204EB4000B9B2303000F0F7FDE9
:102E800016E0206A00EBD5112046FFF708FB06008C
:102E900010D140F2FF1000EA850020443030054692
:102EA000FFF77DFA67F31B000146284600F0D7FDC7
:102EB00084F803903046BDE8F0872DE9F0410568BD
:102EC00013460E46074602292DD36869B0422AD917
:102ED0003BB14FF0FF3219462846FFF779FF002833
:102EE0001FD131463846FFF78DF9040018D0012C68
:102EF00019D0601C19D0002231462846FFF768FF20
:102F000000280ED1D5E90410821E914205D2491C39
:102F10002961297941F0010129712646B042E0D8A2
:102F20000020BDE8F0810220FBE70120F9E770B541
:102F30000546C87D0C4600284FF4847128460AD007
:102F4000FFF7F3FED5F81805627EE1688854607ECD
:102F5000401C607670BDFFF7E8FED5F8180570BD1F
:102F60001FB501238DF800308DF808100192D0E9CB
:102F70000012684690471FBD2DE9F0412B4B93F896
:102F8000234014B11120BDE8F0810125002783F80A
:102F90002350040612D5022483F82340772483F8B3
:102FA0002840002483F8294083F82A4083F82B40E6
:102FB000062783F82C40FF2483F82D40DC1900F00D
:102FC0007F0684F828600E0E84F829600E0C84F8C1
:102FD0002A600E0A84F82B6084F82C10402810D048
:102FE000482810D05FF0FF0184F82D100521022A37
:102FF0000BD0032A09D083F82450000608D50120FD
:1030000008E09521F0E78721EEE783F82410F4E744
:1030100093F82400054A0E30C3B238320621A2F1DB
:10302000100000F08FFB0020ADE70000000500203D
:10303000FEB5214E05464078307077682978BC6926
:1030400049B11E4801291CD002292FD0BDE8FE40FD
:103050000320FDF791BEFDF70BFF006820604FF4E1
:103060000070606070688069806800281DD0002052
:10307000009001900290687800B101208DF8010065
:103080000DE0A168002910D007C88DE80700687816
:1030900000B101208DF8010004F10C000190A0693D
:1030A0000290A268694638469047FEBDA168002993
:1030B000FBD00C30E8E700001C000020603E000060
:1030C0002DE9F84FA44C1746D0F80120264612BA35
:1030D000037922F0FF02B6F820C042EA030E8A46C6
:1030E000A38B06F1480596F80AB001784FF40678EC
:1030F00004220CF1010C00261FFA8CF943456ED016
:1031000020DC40F2F315A3F2F31CAB423CD00EDC02
:103110004FF4F87773B3BB4228D10122002140203D
:10312000FFF72AFF08B1FDF727FEA5836DE08A4867
:10313000BCF1060F807A20F0070035D0BCF1130FE8
:1031400014D14DE040F2412CA3F24128634577D0E1
:1031500006DCA3F500732D3B79D0062B06D185E064
:10316000B8F10A0F6ED0B8F10F0F6CD0A683032010
:10317000BDE8F88F012200214020FFF7FDFE08B1D5
:10318000FDF7FAFDA78340E0880801D03A70BBE064
:1031900003224FF4D5714820FFF7EEFE08B1FDF78A
:1031A000EBFD40F2F91015E04B0703D4C01CA072F0
:1031B0008808EBD12684A07A00F0070003280BD002
:1031C00000210222E920FFF7D7FE08B1FDF7D4FD68
:1031D00040F20620A08318E04FF08041F1E716E0AE
:1031E0004B0734D5401CA072A4F82090B9F5FA6FB3
:1031F00001D9022079E0022200214120FFF7BCFE24
:1032000008B1FDF7B9FDA4F81C800120B0E78808DB
:10321000BCD1C807E8D131E0A4F82090B9F5FA6F25
:10322000E7D80BF0070003280ED000210222E92086
:10323000FFF7A2FE08B1FDF79FFD40F22D20C9E780
:103240002CE004E03AE044E04FF08041EEE78808EB
:103250009CD1C807E0D1022200217A20FFF78CFE22
:1032600008B1FDF789FD40F23320B3E788088DD11E
:103270005FEA4E0002D54BF00800A072A07A00F081
:10328000070003280CD0012251025020FFF774FEE2
:1032900008B1FDF771FD40F241209BE7880888D115
:1032A0000120E560A082024600214920FFF764FE6C
:1032B00008B1FDF761FD40F24B208BE78908A7D1EB
:1032C000AAF1010101F0FF0AE6834FF41471A18312
:1032D000401C6B461022514600F080F8022801D2B3
:1032E000002045E79DF8000008B138700CE0287810
:1032F00080090CD0012823D0022808D03046606015
:103300004FF4007020813E70A683022030E7287AB7
:10331000E979800900EB8100A979AA7A01F003011B
:1033200000EB81206B7A6979D20903F0030301F085
:103330000F0102EB43021144401CC91F8840DEE725
:10334000287A0102E87901EB0040697A084480029A
:1033500000F58060D3E7000000050020F8B51E4CA2
:1033600016464FF41E73A28B002542B19A4210D02C
:10337000A2F50072823A2AD0A5830320F8BD027814
:10338000920801D0042010E0491EE583C9B2A3834E
:10339000401C6B464FF4007200F020F8022801D266
:1033A0000020F8BD9DF8000008B1307010E0A08A40
:1033B00001280CD9012200214C20FFF7DDFD08B1C6
:1033C000FDF7DAFC40F28220A0830120F8BD3570C1
:1033D000A5830220F8BD0000000500202DE9F05F64
:1033E000554C9A461646E38B254605F1380240F2C5
:1033F000B91B2835A3F2B91C4FF000095B4560D01A
:1034000005DC7BB1A3F58073A73B06D155E0BCF189
:10341000070F7AD0BCF1130F76D0A4F81E900320CA
:10342000BDE8F09FA38AE38270E000BFA4F820907B
:1034300084F82870A4F81890032384F82330238C90
:1034400044F620675B1C9BB22384BB4204D9022153
:103450000AE0491EC9B2401C59B10378FF2BF8D0CD
:10346000DBB2FE2B0FD005218AF80010A4F81E90C5
:1034700060E010230121284600F064F940F2A71013
:10348000E0830120CCE7491E0423C9B2401C84F824
:103490002330B14201D9374600E00F46002306E051
:1034A000D4F80C8010F803C008F803C05B1CBB42C2
:1034B000F6D32783E3683B44E36094F82330032B7F
:1034C000BDD0208BB04213D2301A86B2F02E00D974
:1034D000F026F3B201212846E26800F033F9E068F3
:1034E0003044E060208B30442083A4F81EB0C8E74D
:1034F000E08A0223401EE0820121284600F022F9E2
:103500004FF4E070BCE700E00EE00021E38AFF2703
:10351000002B8BD184F8287002230121284600F06B
:1035200011F94FF4E670ABE784F823908AF8009025
:10353000A4F81E90022073E7000500202DE9F05F3B
:103540007F4C164623460746B4F81C8003F1380228
:1035500003F1280093F823909D8A00234FF0040A7A
:103560004FF0020E4FF0030C44F6206BB8F5337F9A
:1035700074D00EDCB8F1000F1AD0A8F50078B8F1BD
:10358000A3082ED0B8F1100F55D0B8F1210F0BD1F0
:1035900051E0A8F50078B8F1EA086ED0B8F1160F3E
:1035A0006CD0B8F1260F6AD0A3830320BDE8F09F4A
:1035B0003978890803D000BF86F800A0ABE0A17A73
:1035C00001F0070101290FD0012D0DD90122592049
:1035D0002169FFF7D1FC08B1FDF7CEFB40F2A32033
:1035E00016E039788908E7D1E5826FE0238384F813
:1035F00023A084F82810012D01D9FC2100E0FE2130
:1036000084F829100223194600F09CF840F2B320F8
:10361000A0836EE0C3F5007085B2F02D00D9F025CF
:10362000C818E9B2012300F08DF8208B28442083CC
:103630004FF43170ECE74249238BC968B3F5007F42
:10364000E8D301F50071E16084F823C00323012170
:1036500000F078F84FF43370DAE7FFE794F83A10A7
:1036600001F01F01052906D00B2901D00D29A3D196
:10367000052030704FE0238422E011E03BE04DE074
:10368000218C491C89B22184594502D986F800E071
:1036900041E01023012100F055F840F2EA20B7E79D
:1036A0004FF0000C0AE000BF17F80C80B8F1000FD3
:1036B00002D084F8233006E00CF1010C8C45F3D3E2
:1036C000B9F1030FDCD0E18A491EE182E78AFF21CC
:1036D000002F8BD1012D31D984F82810FD2184F8D9
:1036E0002910032302211C3400F02CF84FF4407001
:1036F000208001205AE7238484F823C0218C491CB0
:1037000089B221845945C1D81023012100F01AF84B
:103710004FF444707CE7A383022047E7002508E0CC
:1037200017F805C0BCF1000F02D084F8233005E083
:103730006D1C8D42F4D3B9F1030FDFD03370EAE78B
:1037400000050020F8B50C460B494FF0A04691F853
:1037500058500121A940C6F80C15009313460146A4
:1037600022460648FEF780FF002803D0BDE8F84057
:10377000FDF702BBF8BD000000050020303E000050
:103780000148FFF797B800002800002070B50D46EB
:103790000A46014601240648FCF752FEEAB20449F3
:1037A0000448FFF701F800B10024204670BD000076
:1037B0005C050020280000202DE9F04FDFF8BC81D7
:1037C0000746057CC468B8F8160087B018B998F8A1
:1037D0005800FFF708F998F8230000264FF0020B75
:1037E0004FF003094FF0010A022801D001284BD104
:1037F0007968AD1FA41D0978EDB24C2903D15DB1E4
:103800006D1EEDB2641C1DB12278FF2AF8D005E0D0
:103810004C2901D0002402E00125641E5CBB98F80D
:103820002210012927D08DF801A098F822105046C7
:10383000012907D0022905D004290DD005290ED071
:10384000032006E08DF8006088F82290FDF780FBE9
:1038500038B1FDF791FA04E08DF8000001E08DF831
:1038600000B098F85800FFF7BEF888F82290684634
:10387000D8F8001065E0022804D188F823A0207849
:10388000400814D088F8236006208DF80C0098F8C2
:103890002200012817D0022819D0042838D0052882
:1038A00051D00320FDF768FA07B0BDE8F08F98F813
:1038B0002400324A0E30C3B238320621A2F10A0087
:1038C000FFF740FFF0E788F822B0A8F81C6003AAD1
:1038D00029462046FFF7F4FB0228E5D38DF808605F
:1038E0009DF80C008DF8090088F8229098F858008F
:1038F000FFF779F89DF80C0020B1FDF729FB08B11E
:10390000FDF73AFA1E494FF08040C1F8240515E052
:1039100003AA29462046FFF721FD0228C4D38DF8CB
:1039200008A09DF80C008DF8090088F82290A8F8EE
:103930001460A8F8166088F8236019E0D8F8001021
:1039400002A88847B0E703AA29462046FFF7F6FDFC
:103950000228A9D38DF808B09DF80C008DF8090055
:1039600088F8229088F82360A8F81460A8F81660F8
:1039700098F85800FFF737F8E0E70000000500204E
:10398000003000402DE9F843044610681E461546F5
:103990000F464FF0000810B1FEF7C7FDF8B1A86858
:1039A00010B1FEF7C2FDD0B128792968C4F84415DA
:1039B000C4F84805287BA968C4F83415C4F838054C
:1039C0004FF48C754046C4F81881D4F81811009152
:1039D000F2074FF0010107D0C4F8501506E087F850
:1039E00019801020BDE8F883C4F85005B20702D54D
:1039F000C4F8401501E0C4F84005300700D4216147
:103A0000386848B146F38000401C4FF040000FD0AA
:103A1000C4F804030020E5E729462046FFF77BF9B8
:103A20000028F9D0B87EFF28F4D0FEF7D5FFF1E7E3
:103A3000C4F80803EEE770B50C460646154691B289
:103A400004F11A0000F013F83078032806D1290C8D
:103A500004F11400BDE8704000F009B870BD0170B9
:103A6000090A4170090A8170090AC1707047017022
:103A7000090A41707047000070B5044600F040F834
:103A8000050036D1207803282CD12079012829D1AE
:103A9000420204F1300000210646FEF7F9FC4AF626
:103AA000552104F22E20FFF7E2FF13493046FFF7BD
:103AB000D6FF124904F50570FFF7D1FF04F5067033
:103AC0002169FFF7CCFF04F50770E168FFF7C7FF36
:103AD000E2690123521CE26260783146FDF7C0FEC4
:103AE00000202071002260781146FDF72DFE00B104
:103AF0000125284670BD0000525261417272416139
:103B00002DE9F0410446C0780027F8B1E56A04F1D8
:103B10003001607801232A468846FDF7A1FE08B1EE
:103B2000012713E00020E070206AA169281A88426A
:103B30000CD2A67808E0A0690123054460782A46E3
:103B40004146FDF78DFE761E022EF4D23846BDE8C2
:103B5000F081000010B5144602004FF001000CD0B7
:103B60000846136806A24FF48071FCF765FE014613
:103B70002046BDE81040FDF773BB0021216010BD59
:103B80005B253038645D000070B50C4605464FF487
:103B90008E71FFF7CAF8A18AA068415CA08A401C18
:103BA000A082C5F81C1570BD1FB500228DF800203D
:103BB0008DF80810816801918275D0E9001268467D
:103BC00090471FBD0078012801D1014988707047D6
:103BD000240000202DE9FF470C4605464FF40071F4
:103BE000FFF7A9F801274FF40178002618B34FF426
:103BF000927949462846FFF793F8E0B149462846AE
:103C0000FFF793F8C5F80883A07E00B96F60022023
:103C10008DF80000D5F88004C5F880040390E07D9D
:103C20008DF80800E0680190E6752676D4E9001268
:103C30006846904727E004212846FFF77CF810B338
:103C40004FF484712846FFF76BF8E0B1214628460F
:103C5000FFF76DF9E07D617E884214D1207E38B196
:103C6000617EE268E0752069E0602676667607E0AE
:103C7000A07E00B96F60C5F80883E675617EE268D2
:103C80002046FFF76DF94FF48E7841462846FFF73E
:103C900047F888B1A08AA17D884204D221462846EF
:103CA000FFF772FF08E041462846FFF73EF8A17D86
:103CB00011B12046FFF778FF4FF4A278414628461D
:103CC000FFF72EF8002812D041462846FFF72DF8BE
:103CD000A07E00B12F60E07D002808D0E675617EEF
:103CE000E26804B02046BDE8F047FFF739B9BDE807
:103CF000FF872DE9FF410C464FF492770546394680
:103D0000FFF71FF80026C0B139462846FFF71EF816
:103D100002208DF80000D5F88004C5F880040390D7
:103D2000D5F83C058DF80800E0680190E675267628
:103D3000D4E900126846904724E04FF4887739466A
:103D40002846FEF7FEFFE8B139462846FEF7FEFF9B
:103D5000D5F83C05C1B2E07D884213D1207E60B128
:103D6000E268D5F8000220F02000C5F80002207EAD
:103D7000E0752069E060267601E0E675E26820469D
:103D8000FFF7EEF84FF4A27739462846FEF7D9FF41
:103D900068B139462846FEF7D9FFE07D38B1E675AF
:103DA000D5F83C05E268C1B22046FFF7D9F84FF4D8
:103DB000907631462846FEF7C4FF00280FD03146E2
:103DC0002846FEF7C3FFA07D002808D0D5F84C0593
:103DD00004B0C1B22046BDE8F041FFF7E5BEBDE842
:103DE000FF8170B50D4604000CD0206850B10178F9
:103DF00041B1C188A288914204D14078FDF720FDED
:103E0000C00703D000202860092070BD206828600A
:103E1000002070BD483E00005C3F0000583F00009D
:103E2000503F00000002000017181916A4040020DB
:103E30000030004003000100000000FF07FF000009
:103E4000000000040000000081100000911100003B
:103E500015110000E5110000F51000007D100000B4
:103E6000020000000000000000000000030000004D
:103E70000000000000000000000100000000000041
:103E80000000000001000000000000000000000031
:103E9000020100000000000000000000020100001C
:103EA0000000000000000000FFFFFFFFFFFFFFFF1A
:103EB000FFFFFFFFFFFFFFFF00000000000000000A
:103EC0000000D60107010000004040404040404053
:103ED00040404141414141404040404040404040DD
:103EE0004040404040404040400502020202020281
:103EF00002020202020202020220202020202020D0
:103F000020202002020202020202909090909090E3
:103F100010101010101010101010101010101010A1
:103F20001010101002020202020288888888888815
:103F30000808080808080808080808080808080801
:103F4000080808080202020240000000C93E000002
:103F5000312E303000000000534443004E6F726435
:103F600069630000843F000000000020340000006E
:103F700090080000B83F00003400002044260000F4
:103F8000A0080000143E0000000000000001000036
:103F90000000000000000000000000000000000021
:103FA00000000000000000000000000000200040B1
:083FB000000000000090D003A6
:0400000500000401F2
:00000001FF
