:020000040001F9
:10200000A82D0020492401005124010015240100BD
:10201000552401005724010059240100000000004C
:102020000000000000000000000000005B24010030
:102030005D240100000000005F2401006124010014
:10204000E126010063240100212A0100632401002C
:102050006324010063240100B5240100632401000E
:102060006324010063240100632401006324010050
:102070006324010063240100632401006324010040
:102080006324010039270100632401006324010057
:102090005D27010063240100612701006324010022
:1020A0006324010063240100632401006324010010
:1020B0006324010063240100000000000000000010
:1020C00063240100632401006324010063240100F0
:1020D0006324010063240100632401000000000068
:1020E00000000000000000000000000000000000F0
:1020F00000000000000000000000000000000000E0
:1021000000000000000000000000000000000000CF
:1021100000000000000000000000000000000000BF
:10240000DFF80CD000F044F8004800475D370100C9
:10241000A82D0020094B1EF0040F1CBFEFF309800C
:102420001847EFF308800649064A884201D89042CF
:1024300002D88D464FF00000184700002926010001
:10244000A82D0020A80D0020064880470648004718
:10245000FEE7FEE7FEE7FEE7FEE7FEE7FEE7FEE754
:10246000FEE7FEE78527010001240100D2B201E06A
:1024700000F8012B491EFBD270470022F6E710B589
:1024800013460A4604461946FFF7F0FF204610BDE2
:10249000064C074D06E0E06840F0010394E80700B1
:1024A00098471034AC42F6D3FFF7AEFF6842010004
:1024B000884201002DE9F04700268CB0DFF86091DA
:1024C000B0464FF48075012437460696284601F041
:1024D0008BFB38B1D9F80403204203D0284601F021
:1024E00079FB26432D1D64007F1CADB2082FEDD370
:1024F0004FF4BE74204601F077FB48B1204601F04E
:1025000069FB46F0004606AA0121002001F04EFBBF
:10251000444D16F0FF0F15D00127002437420DD08F
:1025200009EB8401D1F81005D1F81015C0F304208F
:1025300055F82420C1F3014102B190477F00641C8B
:10254000082CEBD3002E67DA4FF0FF30CDE908807E
:1025500000263446281910F8507F90F9000027F023
:10256000C008401C44D009A9404601F033F958B3D3
:102570004FEA9719404600F007FF55F820701FB149
:10258000B9F1030F03D00FE0B9F1030F30D108A860
:102590004FEAD80208F00703815C4FF0010C0CFAF7
:1025A00003FC41EA0C0181544FF0A04101EB88008B
:1025B000D0F8000706A9C0F3014A404601F00AF925
:1025C00018B1BAF1020F03D012E0BAF1030F0FD124
:1025D000B9F1030F08D1BAF1020F1BD00221404616
:1025E00001F0C8FA761CF6B217B149464046B84722
:1025F000641C042CAED3002E0ED06A4601210020AC
:1026000001F0D4FA06990098884205D006900898FF
:1026100009909DE70321E2E70CB0BDE8F0870000D8
:1026200000600040DC0C002000F000F8BFF34F8F8A
:1026300005480168054A01F4E06111430160BFF3F8
:102640004F8F00BFFDE700000CED00E00400FA052D
:1026500000F01F02012191404009800000F1E020BC
:10266000C0F88012704700F01F020121914040091C
:10267000800000F1E020C0F88011704700F01F02D8
:10268000012191404009800000F1E020C0F80011D4
:10269000704700F01F02012191404009800000F1C5
:1026A000E020C0F80011704700F01F0201219140A6
:1026B0004009800000F1E020C0F80012704749078F
:1026C000090E002806DA00F00F0000F1E02080F883
:1026D000141D704700F1E02080F8001470470000DE
:1026E0002DE9F0414FF48077384601F07BF8012462
:1026F000104EA50748B1384601F07BF80120C5F817
:1027000008037470002000F047FE4FF482773846CB
:1027100001F068F800280BD0384601F06AF8022072
:10272000C5F80803B470BDE8F041012000F034BEE4
:10273000BDE8F081C80C002007480021C0F8401116
:10274000C0F84411C0F84811C0F84C11C0F800118D
:10275000C0F8041101F0DABB0010014001F04EBBDB
:10276000074810B5406830B18047002807D0BDE861
:10277000104000F0C5BABDE8104000F0F3BE10BD37
:10278000D00A0020F0B598480023021D01780125E9
:10279000101D4FF08056062907D11478240704D164
:1027A0000478C4F30314032C02D0062904D00FE0EC
:1027B0008F4F8E4C7C670EE01478240708D1047884
:1027C000C4F30314032C06D0042C04D0052C02D02F
:1027D000062907D00EE0D6F84442864FC4F34234AF
:1027E0003C6002E01478240704D10478C4F3031495
:1027F000032C02D0062906D011E07F4C276827F071
:10280000807727600EE01478240708D10478C4F399
:102810000314032C06D0042C04D0052C02D0062966
:102820000AD011E04FF08044C4F80C31C4F81031E4
:10283000704C241F236002E01478240704D104782C
:10284000C4F30314032C02D0062905D00CE0694F11
:10285000032464373C600AE01478240704D1047828
:10286000C4F30314032C02D006290DD014E0634FE7
:1028700005243C60614C78342560604C083423604A
:102880003F243F1D3C6002E01478240704D1047803
:10289000C4F30314052C02D0062957D068E0584928
:1028A0000968584A11605649091D0968121D1160CE
:1028B000534908310968121D116051490C310968EA
:1028C000121D11604E4910310968121D11604C49EA
:1028D00014310968121D1160494918310968494AC3
:1028E0002032116046491C310968121D11604449AB
:1028F00020310968121D1160414924310968121DF7
:1029000011603F4928310968121D11603C492C3182
:102910000968121D11603A4930310968394A40325C
:102920001160374934310968121D1160344938315A
:102930000968121D116032493C310968121D11608D
:102940002F4940310968121D116002E01178090712
:102950000ED10078C0F30310032803D0042801D05F
:10296000052805D1D6F85802274900F04F00086025
:1029700021487438016841F470010160BFF34F8F42
:10298000BFF36F8F4FF01021D1F80002002803DB56
:10299000D1F80402002822DA1C4A15601C48046899
:1029A000002CFCD01524C1F800420568002DFCD095
:1029B000C1F8044201680029FCD0136001680029B5
:1029C000FCD0BFF34F8F0C48F0380168114A01F476
:1029D000E06111430160BFF34F8F00BFFDE70F4976
:1029E0000D480860F0BD0000E00F00F00DF0ADBA3A
:1029F00000C007403C050040FCED00E010560040E0
:102A00000404001020C50040E40E004004E501402D
:102A100000E401400400FA050090D003E00A002021
:102A20000448017F04480029024901D001F05DBB40
:102A300001F0CCBA340D00200020004002E008C8AC
:102A4000121F08C1002AFAD170477047002001E028
:102A500001C1121F002AFBD170470000012120286C
:102A600003DA81400548014003E0402802DA2038BB
:102A7000814009B10120704700207047FC06FFBC6F
:102A8000022000F025BA00000E2807D10448827801
:102A90004168114302D1417000F010BC7047000042
:102AA000800A0020FEB5044690F821000027394D29
:102AB0000A2819D00DDC042824D005281ED00628A9
:102AC00006D1002000F016FA012000F01BFA6F601A
:102AD000FEBD11280FD08028FAD16078502819D077
:102AE0007228F5D100264FE0002000F00BFA0120FB
:102AF00000F000FAFEBD00F0E1FBFEBD002000F09A
:102B0000F9F9E4E7002000F0F5F9012000F0FAF906
:102B1000AF70FEBDA0788DF80000D4F80300CDF8AA
:102B20000100D4F80700CDF80500A07800F0E0001F
:102B30002870684600F0AAFBFEBD2978602900D104
:102B40002F7029782031CAB22A70A1780B0607D5D8
:102B5000F3000833181A401C02D142F0800028709C
:102B600001F01F00297808438DF8000004EBC6002F
:102B700050F8031FCDF801104068CDF805006846F5
:102B800000F084FB761CF6B22078411EB1EBC60F34
:102B9000D3DCFEBD800A002000B5144885B00021BA
:102BA0004170134A4160817007CA8DE807004FF0F9
:102BB0008050006E0FA1ADF80600D1E90001CDE90B
:102BC0000301684600F01AF808B100F099F80821EE
:102BD00003A8DBDF08B100F093F80020C4DF002871
:102BE00001D000F08DF805B000BD0000800A002083
:102BF0000C420100010300000000000010B5044673
:102C00008378827A41780078C2DF002811D1237955
:102C10006279E1882078D3DF00280AD1E178207832
:102C2000CDDF002805D1A178C90702D121892078FC
:102C3000D1DF10BD0EB5034A07CA8DE8070068460C
:102C4000FADF0EBD5042010070B50024064D06E0CB
:102C50006868012110F8340000F078FE641C2878C0
:102C60008442F5D3002070BD9C0A0020F8B51546BB
:102C70000C460646052A01D20720F8BD00F04CFF9D
:102C800018B900F01BFF0028F7D1104900204E6052
:102C90000C70C1E902500E4D08610DE006EBC40056
:102CA0006968009181788DF801100078094A6946B9
:102CB00000F09EFE0028E0D1641EE4B2EED2BDE832
:102CC000F840054A0021024800F026B89C0A00207E
:102CD000604201000D3501006D340100BFF34F8FDC
:102CE00005480168054A01F4E06111430160BFF342
:102CF0004F8F00BFFDE700000CED00E00400FA0577
:102D00000EB500210091CDE901106A4644F20100A0
:102D1000FFF7E4FF0EBD0000074B5B6823B12AB14B
:102D200020B10068037C1BB1082070470720704762
:102D30004174426100207047C00A00202DE9F0472D
:102D4000074698461446894690074FF0000526D15D
:102D50002CB300F085FF134E06F11000C6F80C806E
:102D60000570457080F8029044607560357075702C
:102D70001420FFF76DFC07211420FFF7A0FC14209E
:102D8000FFF77CFC0848076007211120FFF797FC3C
:102D90000548001F0068B0600020BDE8F0870720EC
:102DA000FBE70000B00A0020081501402DE9FC47B0
:102DB000DFF87890D9F8043073B368B3052902D2EC
:102DC0000720BDE8FC87436933B3437C012B25D042
:102DD000002704460025884616468DF800506846B0
:102DE00000F038F801A801F0F9F9C8B1012101702B
:102DF0000F4944600968C0E90218C0E904769DF8EB
:102E0000040089F801009DF8000000F047F8142044
:102E1000FFF74AFC2846D4E70820D2E70F46D8E758
:102E200004259DF8000000F039F8F3E7C00A0020FF
:102E3000041501400649496839B130B1416921B1F1
:102E400000210174022101F03DB808207047000004
:102E5000C00A002030B5EFF3108172B60D4A9468B5
:102E6000012324B10370002900D162B630BD936004
:102E70004FF0E023D3F88051074C25401560C3F88C
:102E80008041D3F8844154605A17C3F8842100224A
:102E90000270E8E7740D0020FC06FFBC0B498A684D
:102EA000002A11D000280FD1EFF3108072B60B6802
:102EB0004FF0E022C2F800314B68C2F80431002222
:102EC0008A60002800D162B670470000740D0020AF
:102ED00007490B5C4FF0A041D1F804250120984030
:102EE00020EA0203C1F808351040C1F80C0570470C
:102EF0001C4201000249085C012100F04CBE0000A8
:102F00001C4201000249085C002100F044BE0000A0
:102F10001C4201000649095C4FF0A040D0F80405AE
:102F2000C84010F0010000D0012080F0010070477F
:102F30001C4201007CB50024084E25460122305D6C
:102F4000009500231146019500F0F0FD641C042C4F
:102F5000F4D3BDE87C4000F003B800001C4201003F
:102F600010B500242046FFF7C5FF641C042CF9D3DC
:102F700010BD10B500242046FFF7C4FF641C042CCC
:102F8000F9D310BD10B50246064B4FF0FF300021BB
:102F90005C5C944201D1084610BD491C0429F7D35A
:102FA00010BD0000204201002DE9F0470D4681468A
:102FB000FFF7E8FF0446042838D2DFF878801C4881
:102FC0001D4EA8F1100735B3012D0ED0022D2DD1C5
:102FD00004EB440030444578002D27D0F9680029DF
:102FE00024D02846BDE8F047084704EB4401755C4F
:102FF0000E44717859B179680E4A01EB810149009C
:103000000E3A8068FFF7D2FE08B987F80290B178CF
:1030100008F80410E0E78068FFF70CFF04EB4401B8
:10302000314418F804008D78A842D5D0BDE8F08767
:1030300024420100980A00201C0C002070B50023D7
:10304000042810D20D4D00EB4004012A02D10129C1
:103050000CD00022094E00EB4000304461B1012940
:1030600006D0022906D00723184670BD0E30C2B222
:103070002A55F9E74270F7E78270F5E71C0C00204B
:103080002DE9F04106461F4800240F464160C0E983
:103090000262B0071FD50025012211462846FFF71E
:1030A000CDFF6D1C0446042D02D2002CF4D012E09A
:1030B0008CB97A0804211448FFF7D8FD04000AD11E
:1030C000FFF7C2FD040006D10F48104A0021001F7F
:1030D000FFF722FE0446F00701D0FFF72BFF74B97B
:1030E00009480B4A00210C38FFF716FE040006D1F0
:1030F0000548084A01210838FFF70EFE044620461D
:10310000BDE8F081880A0020304201001D33010033
:10311000E9350100812A01002DE9F047594C0546A7
:103120000026607818B100206070FFF719FF0120B9
:10313000554F4FF47A694FF4C87A4FF06408182D50
:103140002CD2DFE805F0890C0C2C3A4751565A6115
:103150005A619B6969696969898C8F929B9B002080
:10316000FFF7D8FE00284FF0000008D0FFF7C2FE9E
:10317000022D02D14FF4E16006E0484604E0FFF77B
:10318000C1FE022D2ED05046B0FBF8F125706068CC
:10319000414300223868FFF709FE064659E0002047
:1031A000FFF7B8FE28B10020FFF7A4FE4FF44870E7
:1031B000EAE70020FFF7A6FE14E00020FFF7AAFED2
:1031C00000284FF0000002D0FFF794FED5E7FFF78C
:1031D00099FED8E70020FFF79DFE0028E9D00020E7
:1031E000FFF788FEC820CFE70020FFF771FE2570AB
:1031F00007E000203FE025702BE060700120FFF722
:1032000067FE00226168C5E760700120FFF760FE7D
:10321000606800EB8001BCE77868FFF70BFE0646AC
:10322000D5F1110000D01EB10220FFF763FE10E0BF
:1032300001280BD9C82110FB01F1B1FBF8F160683E
:10324000002241437868FFF7B1FD06460220FFF7F0
:1032500059FE3046BDE8F087FFF782FECBE7FFF767
:103260007FFEC6E7FFF77CFE04E0FFF779FE002053
:10327000FFF748FE0120FFF745FEBCE7FFF779FEA8
:10328000B9E70000880A00202442010010B5007848
:10329000094C410907D0000604D50020FFF72AFE9B
:1032A0000020A07010BD0020FFF72CFE0120FFF7CA
:1032B00021FE0120F5E70000800A002070B5154CC2
:1032C000002680256068B0F5005F22D200B9012693
:1032D000C0F50050802802D846F00206C5B2802111
:1032E0000D48FFF7CAF80C4A002005E06178115438
:1032F000491C401C6170C0B22946A842F6D333462F
:10330000054A0020C9DF08B1FFF7FAFC60682844CD
:10331000606070BD800A0020E40A0020007802216D
:10332000FFF742BE05494FF0FF32082841F8202040
:1033300002D3084480F8482070470000DC0C0020CD
:10334000F0B54FF0FF3512B10023082601E0082345
:103350000C260C4C05E000BF54F823707F1C04D0F1
:103360005B1CB342F8D32846F0BD26185DB286F840
:10337000305044F82310002AF5D1E11881F84800B4
:10338000F1E70000DC0C00200249084490F930000D
:1033900070470000DC0C002070B5084C050009D017
:1033A00010342168002907D0086820604968284641
:1033B0008847F6E70834F4E770BD0000C80C002029
:1033C0002DE9F05F26484168F1B3DFF898B00E6848
:1033D0008146DBF8004087688078E11B21F07F455B
:1033E000ED1CB0B9DFF880804FF48030C8F844039A
:1033F000C8F804031120FFF72BF91120FFF73EF95D
:103400004FF0010AC8F800A02F2000F0FBF989F85E
:1034100002A0B54200D23546124BE8193C3320F0E9
:103420007F401860DBF800105A46091B21F07F41ED
:10343000001B20F07F40C91C81420FD91068186022
:103440002F2000F0DFF900E004E0BDE8F05F11207C
:10345000FFF72AB9BDE8F05F00F002BCBDE8F09FBD
:10346000B00A002004150140001001402DE9F04190
:1034700000260125144C22E06068226900EBC60793
:10348000387805FA00F1114217D08A43226100F022
:103490000BFB02463878E36805FA00F1194002FA9E
:1034A00000F3994209D17978012901D0012100E086
:1034B000002151407A6802B19047761CF6B220781C
:1034C0008642D9D3BDE8F0819C0A00200E4910B590
:1034D0000A784C780023A24212D0521CD2B20A7051
:1034E000022A00D10B70084A0B78183252F82320B8
:1034F00002608868104420F07F408860012010BD81
:103500000360002010BD0000B00A00202DE9F0414A
:10351000124E07460125BD403068FFF78BFC00289E
:103520000DD10F4C2069284207D1384600F0BCFA73
:103530000028E06805D0284304E0A8432061BDE8E6
:10354000F081A843E060206928432061A1683068C9
:10355000BDE8F0410022FFF729BC000060420100F5
:103560009C0A00202DE9F8431D4C2078002834D017
:10357000A068002758B10025607800282DD1684642
:1035800048DF052805D030B1FFF7BAFB0AE0012576
:10359000F2E7012706E0009800F0B6F9E16809B10A
:1035A000009888470F4E06F1210820368DB96078C3
:1035B000002812D10B4A41463046C1DF052803D00E
:1035C00020B1FFF79DFB04E0012502E0A16805485A
:1035D0008847002FD0D0002DE8D0BDE8F883000048
:1035E000D00A0020800D00200348017AC90702D0CC
:1035F0000078FFF791BD7047880A00202DE9F0435D
:10360000264CA4F110092278D9F8048099F80350C7
:10361000404694F801C0D9F8086031E002EB42035B
:103620006168521C01EBC301A378D2B2934200D16E
:1036300000220B78022B02D0032B21D11DE0034680
:103640004F68194603E0B94203D00B46C969B9B1C6
:10365000F9E7A9B18B4205D1C06918B9104E01250F
:10366000B56000260F68C969D96149B10B683B4450
:103670000B6005E00174C06900E000210028F9D169
:103680009445CBD1C9E9010689F80350404502D0E1
:103690000120BDE8F0830020FBE70000C00A002005
:1036A000001001402DE9F0412A4F0446002607F1A1
:1036B0001005D7F804803EE002D02046E4691DE002
:1036C0002878696800EB4002401CC0B201EBC201DF
:1036D0002870AA78904200D12E700A784868012A92
:1036E0002BD1027C4ABB8A684260CA6882600A6940
:1036F000C26049698161F97801B146604368BA687E
:10370000DFF854C0991A21F07F41614502D28268E6
:10371000114406E0D11A826821F07F418A4202D921
:10372000511A016000E00660466001218660017464
:10373000C66100F0A9FB002CBED1287869788842C8
:10374000BED17968414502D00120BDE8F08100205A
:10375000FBE70000B00A0020FFFF7F0008B5194812
:103760000023194A0068009005211846FFF7E6FA81
:1037700008B1FFF7C5FA154A40F6CD410320FFF71F
:103780007FFC08B1FFF7BCFAFFF7D4FB104800F04C
:10379000E3FA08B1FFF7B4FA00231A46194668465F
:1037A00000F0E6FA08B1FFF7ABFAFFF743FA08B109
:1037B000FFF7A6FAFFF7F0F93EDF0028FCD0FFF78D
:1037C0009FFAF9E718420100640B0020892A0100E2
:1037D000A52A0100C20800F007030120895C984077
:1037E0000840704700F180400068002800D00120A8
:1037F000704708B500F1804000210160006800902A
:1038000008BD000000283ED01F49204A096800BFBB
:1038100000BF00BF00BF00BF00BF00BF00BF91429C
:103820002FD000BF00BF00BF00BF00BF00BF00BF60
:1038300000BF00BF00BF00BF00BF00BF00BF00BF90
:1038400000BF00BF00BF00BF00BF00BF00BF00BF80
:1038500000BF00BF00BF00BF00BF00BF00BF00BF70
:1038600000BF00BF00BF00BF00BF00BF00BF00BF60
:1038700000BF00BF00BF00BF00BF00BF00BF00BF50
:1038800000BF401EC3D17047E00A00200024F400AE
:1038900070B50F4C0025207808B1852516E0002171
:1038A000A16061602161E1604FF0E020D0F800018B
:1038B000012610F0010F03D10721002000F029F8A4
:1038C00000F096FA08B9034806602670284670BDD5
:1038D000C80C00201805004038B500208DF8000005
:1038E0006846FFF7B7FA074C207808B9FFF7D0FF12
:1038F000E068401CE0600120A0709DF80000FFF728
:10390000CDFA38BDC80C0020002801D1FFF744BD16
:1039100070474907090E002806DA00F00F0202F18D
:10392000E02282F8141D03E000F1E02282F8001486
:1039300000F01F02012191404009800000F1E020C9
:10394000C0F88012C0F80011704700002DE9F04166
:103950008846054600F06CF9234E002828461AD008
:10396000FFF712FD304490F848008009032802D088
:1039700001280ED007E04FF0A040D0F81005E84035
:1039800010F0010F05D003212846BDE8F04100F0FA
:10399000F1B80221F8E700F057F9002822D02846B4
:1039A000FFF7F2FC04464FF4807000EB84000F4FE9
:1039B00081B207EB8400D0F8102542F00102C0F874
:1039C0001025084600F006F9B8F1000F0AD0284685
:1039D000FFF7DAFC56F82000002803D00120A040B1
:1039E000C7F80403BDE8F081DC0C00200060004053
:1039F0002DE9FC41DFF8A480044608EB0400002711
:103A000090F930001346C0170E46401C01D008271D
:103A100041E0F27819462046FFF792FC0546401C2B
:103A200038D0B07850B14FF0A04000EB8400D0F80F
:103A3000001721F00201C0F8001707E00021737899
:103A4000204600910A46019100F082F8F078C0B15A
:103A50001348317800EB8500D0F81025114B1A403F
:103A6000C0F810254FF4F8524FF4403302EA042214
:103A700003EA01410A43D0F810150A43C0F81025A3
:103A800009E008EB0500327810F8481F41EA82117E
:103A9000017000E004273846BDE8FC81DC0C002002
:103AA00000600040FFE0FCFF4FF0A041D1F810158E
:103AB000C14011F0010000D00120704770B5144DD5
:103AC00095F8540008B1082070BD0020411E2A1846
:103AD000401CC0B282F830102028F8D300242046C1
:103AE000FFF720FC641CE4B20C2CF8D3072106205D
:103AF000FFF70FFF4FF4BE7000F06CF805494FF070
:103B00000040C1F80403012085F85400002070BD76
:103B1000DC0C002000600040034890F854000028AE
:103B200000D0012070470000DC0C002070B541EA95
:103B30004201DDE904564FF0A04441EA830141EA25
:103B4000052104EB800041EA0641C0F8001770BD72
:103B500070B541EA4201DDE904564FF0A04441EA64
:103B6000830141EA052104EB800041EA0641C0F8E7
:103B7000001770BD4FF0A04202EB8000D0F8002784
:103B800022F44032C0F80027D0F8002742EA014171
:103B9000C0F80017704701224FF0A043824011B1D6
:103BA000C3F808257047C3F80C25704718B5084BB3
:103BB0006C4601441B68009306E000BF54F82030B7
:103BC000D3F81035401C08C28142F7D818BD000058
:103BD0005C420100034908B5084400210160006807
:103BE000009008BD0060004002494058012800D004
:103BF00000207047006000404058002800D001209D
:103C0000704708B5002242504058009008BDD0F8D7
:103C10000403084000D0012070474058002800D01D
:103C20000120704708B5002242504058009008BD5E
:103C30000449084490F93000082801DB012070474E
:103C400000207047DC0C00200449084490F9300043
:103C5000082801D20120704700207047DC0C0020AA
:103C600070B5012670044FF0E0210025C1F88001F5
:103C7000084C4010C4F84803C4F8080366602F20BD
:103C8000FFF7C0FDA660044C2F20A560FFF7BAFD2A
:103C9000A57070BD00100140B00A002070B5054647
:103CA000C87D0C4600284FF4847128460AD0FFF7DF
:103CB000A8FFD5F81805627EE1688854607E401C34
:103CC000607670BDFFF79DFFD5F8180570BD1FB574
:103CD00001238DF800308DF808100192D0E9001210
:103CE000684690471FBD000010B50446FEF7B6FEBB
:103CF00040B1002C09DA04F00F0000F1E02090F848
:103D0000140D06E042F2010010BD04F1E02090F82D
:103D100000044109082914D299B1012911D00429BC
:103D20000FD005290DD00B480122816861B16109CE
:103D300050F8213004F01F04A240134340F8213012
:103D400005E042F2020010BD2046FEF7A2FC002072
:103D500010BD0000740D002018B1034988600020D8
:103D600070470E2070470000D00A0020FEF7B6BF53
:103D70002DE9F041124E07464FF0E0207360D0F875
:103D800000010024012510F0010F03D02C46002073
:103D9000FEF769FC0BA21549384610DF070006D074
:103DA00014B10020FEF775FC3846BDE8F08135708F
:103DB000FFF792FDBDE8F0411620FFF795BF000028
:103DC000D00A0020333833312D353231642D376439
:103DD00066392D323464382D656666332D343637B6
:103DE000622D323235662D61303065006D3D010047
:103DF0000148007870470000D00A00202DE9F84FF4
:103E0000204C00256846D4E901B6FFF75FFB8046E9
:103E1000FFF7F4FB0746A946B8F1000F25D00023B1
:103E2000009ACC46606819E007680146974202D9BB
:103E3000BA1A026014E0C1F800C0D1F80C80D21B9D
:103E4000C8693B448A46B8F1000F07D0F71827F03D
:103E50007F47C1E90178CAF81C500D460028E3D11C
:103E600060602846FFF71EFC04E02846FFF71AFCB6
:103E700000B917B15846FFF7A3FA84F80390BDE8DC
:103E8000F88F0000B00A00200D4B10B5596831B111
:103E900002680C68A24204D8A21A0A60C161586084
:103EA00010BD0B4603E00B46C969121B21B10C681B
:103EB0009442F8D3A41A0C600260C161D86110BDAD
:103EC000B00A00207CB5064600240D468DF800405F
:103ED0006846FEF7BFFF01A800F080F970B10570D9
:103EE000094946609DF8040048709DF80000FEF7FF
:103EF000D5FF1420FEF7D8FB20467CBD04249DF896
:103F00000000FEF7CBFFF7E7C00A00202DE9F041E3
:103F10001D4D6C68002C35D01C4800270068A9682E
:103F2000B846401A20F07F462068B04215D8224695
:103F3000361A0744E469107C68B182F81080EB6897
:103F400033B1D2E90501984728B1FEF7D9FE02E066
:103F5000D2E905108847002CE6D12978687881429B
:103F600006D1401CC0B26870022801D185F80180DA
:103F700005486978183040F82170BDE8F0411420F8
:103F8000FEF792BBBDE8F081B00A002004150140A5
:103F900070B50C4605464FF48E71FFF732FEA18ACC
:103FA000A068415CA08A401CA082C5F81C1570BDA9
:103FB0001FB500228DF800208DF80810816801914E
:103FC0008275D0E90012684690471FBD2DE9FF4772
:103FD0000C4605464FF40071FFF719FE01274FF418
:103FE0000178002618B34FF4927949462846FFF726
:103FF00003FEE0B149462846FFF703FEC5F80883F3
:10400000A07E00B96F6002208DF80000D5F8800412
:10401000C5F880040390E07D8DF80800E068019009
:10402000E6752676D4E900126846904727E0042119
:104030002846FFF7ECFD10B34FF484712846FFF7D4
:10404000DBFDE0B121462846FFF728FEE07D617EDA
:10405000884214D1207E38B1617EE268E075206923
:10406000E0602676667607E0A07E00B96F60C5F84E
:104070000883E675617EE2682046FFF728FE4FF46C
:104080008E7841462846FFF7B7FD88B1A08AA17D0A
:10409000884204D221462846FFF77AFF08E04146CD
:1040A0002846FFF7AEFDA17D11B12046FFF780FF46
:1040B0004FF4A27841462846FFF79EFD002812D013
:1040C00041462846FFF79DFDA07E00B12F60E07DB0
:1040D000002808D0E675617EE26804B02046BDE89D
:1040E000F047FFF7F4BDBDE8FF872DE9FF410C461F
:1040F0004FF4927705463946FFF78FFD0026C0B191
:1041000039462846FFF78EFD02208DF80000D5F8CD
:104110008004C5F880040390D5F83C058DF80800AC
:10412000E0680190E6752676D4E90012684690476B
:1041300024E04FF4887739462846FFF76EFDE8B152
:1041400039462846FFF76EFDD5F83C05C1B2E07D43
:10415000884213D1207E60B1E268D5F8000220F0D9
:104160002000C5F80002207EE0752069E060267618
:1041700001E0E675E2682046FFF7A9FD4FF4A2775B
:1041800039462846FFF749FD68B139462846FFF70A
:1041900049FDE07D38B1E675D5F83C05E268C1B26D
:1041A0002046FFF794FD4FF4907631462846FFF7FE
:1041B00034FD00280FD031462846FFF733FDA07D9F
:1041C000002808D0D5F84C0504B0C1B22046BDE89F
:1041D000F041FFF7EDBEBDE8FF8100000A4A10B5CF
:1041E00053789478591CC9B28C4200D100211478BC
:1041F0008C4201D1002010BD0170506803EB4301D7
:1042000000EBC10010BD0000C00A002000100042F9
:104210000102000000200000010000071112131429
:104220000D0E0F10DC0B0020FC0B0020280C0020D2
:104230000D000300A92F01000E000300A92F0100AB
:104240000F000300A92F010010000300A92F010097
:1042500001002000480C00208000000000000050F9
:10426000540D00200300000088420100800A002055
:10427000640000003C2A0100EC420100E40A002036
:10428000C42200004C2A01000000000000000000D1
:10429000000000000000000000000000000000001E
:1042A000000000000000000000000000000000000E
:1042B00000000000000000000000000000000000FE
:1042C00000000000000000000000000000000000EE
:1042D00000000000000000000000000000000000DE
:0C42E00000000000000000000090D0036F
:0400000500012401D1
:00000001FF
