:020000040000FA
:10000000082B0020150400001D0400001F04000040
:10001000210400002304000025040000000000006B
:1000200000000000000000000000000027040000A5
:1000300029040000000000002B0400002D04000033
:100040002F0400002F040000F90A0000BD07000083
:10005000CD0700002F0400002F04000065060000FB
:10006000AD0A00002F0400002F0400002F04000040
:100070002F0400002F0400002F0400002F040000B4
:100080002F0400002F0400002F0400002F040000A4
:100090002F0400002F0400002F0400002F04000094
:1000A0002F0400002F0400002F0400002F04000084
:1000B0002F0400002F0400000000000000000000DA
:1000C0002F0400002F0400002F0400002F04000064
:1000D0002F0400002F0400002F0400000000000087
:1000E0000000000000000000000000000000000010
:1000F0000000000000000000000000000000000000
:1001000000000000000000000000000000000000EF
:1001100000000000000000000000000000000000DF
:10040000DFF80CD000F0EEF800480047A929000002
:10041000082B00200648804706480047FEE7FEE715
:10042000FEE7FEE7FEE7FEE7FEE7FEE7FEE7FEE7A4
:1004300011080000010400000048704758510000F6
:1004400040EA01039B0703D009E008C9121F08C056
:10045000042AFAD203E011F8013B00F8013B521ED6
:10046000F9D27047421C10F8011B0029FBD1801AF9
:1004700070472DE9F04791460F4680460446002616
:1004800014F8015B2DB1FFF7D7FF0068405DC0078E
:10049000F6D12B2D02D02D2D18D0641E4A46394698
:1004A000204600F04FF827B13968A14201D1C7F8C2
:1004B000008071054FF002040BD54042002803DD97
:1004C00000F054FB0460A007BDE8F08746F48066A6
:1004D000E4E70028F8DA00F049FB04606FF0004020
:1004E000F2E72DE9F05F0546002092469B468846DC
:1004F0000646814640241BE02846414647462246A0
:1005000000F091F853465A46C01A914110D3114653
:100510001846224600F078F82D1A67EB01084F467E
:1005200022460120002100F06FF817EB00094E4130
:10053000201EA4F10104DFDC484631462A4643462A
:10054000BDE8F09F2DE9F05F824600780027154650
:100550008B460AF10104B946302801D09DB113E061
:1005600014F8010B0127782803D0582801D045B191
:100570000AE00DB1102D07D10027102514F8010B4A
:1005800002E0082500E00A250026B0460EE005FB43
:10059000080005FB06F1012701EB10461FFA80F861
:1005A000B6F5803F00D3B94614F8010B294600F098
:1005B0004AF80028EBDABBF1000F05D00FB1641E3A
:1005C00000E05446CBF80040B9F1000F06D000F02F
:1005D000CDFA02210160C81EBDE8F09F48EA06403E
:1005E000FAE70000064C074D06E0E06840F0010322
:1005F00094E8070098471034AC42F6D3FFF704FFA5
:100600007C5100009C510000202A04DB203A00FAB3
:1006100002F1002070479140C2F1200320FA03F359
:10062000194390407047202A04DB203A21FA02F057
:100630000021704721FA02F3D040C2F1200291401C
:100640000843194670473A2800D2303820F020027B
:10065000412A01D3A2F13700884201D34FF0FF3085
:10066000704700002DE9FE434FF48278404603F0C6
:1006700053F9504F0025504C012600B3404603F07B
:1006800053F994F82B0010B194F82C10D1B18DF8D7
:100690000050616801912189ADF80810E16829B125
:1006A0006160A18A2181E56018B103E084F82950D6
:1006B00000E03E6021686846884784F82C5094F832
:1006C0002B0098B34FF48077384603F025F968B3D0
:1006D000384603F029F9E28A72B194F82A108A4266
:1006E00010D9A2EB010080B2E0822289A2EB0000C7
:1006F000626802EB40000BE0208994F82A10A0EB1E
:100700000100F0E707D1E06828B184F82C60E582A9
:1007100003F0FAF804E08A4202D184F82C60E58202
:10072000404603F001F92348001D06604FF4887726
:10073000384603F0F1F850B1384603F0F5F884F884
:10074000295002208DF800002168684688474FF440
:100750008A77384603F0E0F830B1384603F0E4F821
:1007600084F82950BDE8FE834FF000484FF48C799F
:1007700027691CE0B7FA87F028FA00F109EB800539
:100780008F43284603F0C8F888B1284603F0CCF818
:10079000A5F58C75E8088DF8040045F38000401C31
:1007A0008DF800608DF80500216868468847002FA5
:1007B000E0D1D7E700700040580500200149024809
:1007C00002F028B8F004002000300040F8B54FF0E7
:1007D00040200E4D04464FF48C7103F0AFF8002812
:1007E00013D00026C4F81861D4F818010090A87E30
:1007F0002C46FF2801D002F0FAFD667626712168AA
:1008000001B0201DBDE8F0400847F8BD38050020C4
:10081000F0B598480023021D01780125101D4FF006
:100820008056062907D11478240704D10478C4F32C
:100830000314032C02D0062904D00FE08F4F8E4CF6
:100840007C670EE01478240708D10478C4F30314FD
:10085000032C06D0042C04D0052C02D0062907D086
:100860000EE0D6F84442864FC4F342343C6002E0C6
:100870001478240704D10478C4F30314032C02D0A1
:10088000062906D011E07F4C276827F08077276083
:100890000EE01478240708D10478C4F30314032C61
:1008A00006D0042C04D0052C02D006290AD011E071
:1008B0004FF08044C4F80C31C4F81031704C241F40
:1008C000236002E01478240704D10478C4F30314ED
:1008D000032C02D0062905D00CE0694F03246437AD
:1008E0003C600AE01478240704D10478C4F30314AC
:1008F000032C02D006290DD014E0634F05243C6080
:10090000614C78342560604C083423603F243F1DDF
:100910003C6002E01478240704D10478C4F3031483
:10092000052C02D0062957D068E058490968584A72
:1009300011605649091D0968121D1160534908319B
:100940000968121D116051490C310968121D1160AE
:100950004E4910310968121D11604C491431096863
:10096000121D1160494918310968494A2032116045
:1009700046491C310968121D11604449203109683B
:10098000121D1160414924310968121D11603F494F
:1009900028310968121D11603C492C310968121D6B
:1009A00011603A4930310968394A4032116037499B
:1009B00034310968121D1160344938310968121D3B
:1009C000116032493C310968121D11602F494031D4
:1009D0000968121D116002E0117809070ED1007834
:1009E000C0F30310032803D0042801D0052805D143
:1009F000D6F85802274900F04F00086021487438A3
:100A0000016841F470010160BFF34F8FBFF36F8F36
:100A10004FF01021D1F80002002803DBD1F80402C6
:100A2000002822DA1C4A15601C480468002CFCD0FF
:100A30001524C1F800420568002DFCD0C1F804421D
:100A400001680029FCD0136001680029FCD0BFF3C5
:100A50004F8F0C48F0380168114A01F4E0611143EE
:100A60000160BFF34F8F00BFFDE70F490D480860DD
:100A7000F0BD0000E00F00F00DF0ADBA00C007407F
:100A80003C050040FCED00E010560040040400105E
:100A900020C50040E40E004004E5014000E40140B0
:100AA0000400FA050090D0034C0000202DE9F84323
:100AB00000250F4C04274FF4A078BE034FEA050928
:100AC00008EB850006FA05F122585AB1D4F8042340
:100AD0000A4207D044F800902158064A0091516814
:100AE000126890476D1CEDB2BD42E9D3BDE8F883B2
:100AF00000800040880500200448017F0448002948
:100B0000024901D004F06FB904F0DEB818050020E6
:100B1000002000400FB41CB50246002007AC00299D
:100B20000BD0491ECDE90021054B6A4621460698A7
:100B300000F030F8009A002111701CBC5DF814FB25
:100B4000F70F00000FB4084B10B504A902AA0398D0
:100B500000F020F8044602A9002000F057FA2046D1
:100B600010BC5DF814FB00000D1000000048704739
:100B70005000002002E008C8121F08C1002AFAD164
:100B800070477047002001E001C1121F002AFBD10D
:100B9000704700002DE9FF4F8DB00F460546002637
:100BA00006E025280BD0DDE90F1290476D1C761C5E
:100BB00028780028F5D111B03046BDE8F08F002428
:100BC000A246A1460122EC4900E0044315F8013F8A
:100BD000203B02FA03F00842F7D128782A2810D0E7
:100BE0006FF02F022878A0F13001092914D80AEB00
:100BF0008A0102EB410144F0020400EB010A6D1C82
:100C0000F0E701CF5FEA000A03D544F40054CAF1CB
:100C1000000A44F002046D1C28782E2817D115F81C
:100C2000010F44F004042A280ED06FF02F02287818
:100C3000A0F1300109290AD809EB890102EB410131
:100C400000EB01096D1CF2E757F8049B6D1C287836
:100C50006C280FD006DC4C2817D068280DD06A28E5
:100C600014D104E0742810D07A280FD10DE044F498
:100C700000140AE044F4801401E044F4401469785C
:100C8000814202D104F580146D1C6D1C2A786E2AF5
:100C90001FD00CDC632A31D004DC002A8BD0582A08
:100CA00011D1A3E0642A68D0692A0CD165E0732AC7
:100CB0002ED004DC6F2A73D0702A04D19BE0752AF1
:100CC0006FD0782A6ED01046DDE90F129047761C5F
:100CD00050E1C4F30250022806D0032809D00428AA
:100CE00001CF09D0066045E101CFF117C0E90061ED
:100CF00040E101CF06803DE106703BE117F8040BAF
:100D00008DF8000000208DF80100EB46012003E083
:100D100057F804BB4FF0FF3061074FF0000102D4D9
:100D20000DE008F10101884649450FDA8045F8DBFE
:100D30001BF808100029F4D108E008F101018846E9
:100D40008142FADB1BF808100029F6D1DDE90F23F8
:100D5000AAEB08008146214600F036F9304400EB4A
:100D6000080604E0DDE90F121BF8010B9047B8F10B
:100D70000108F7D221464846F7E00A21C4F302539E
:100D80004FF0000B0891022B04D001CFC117032BA9
:100D900009D00AE0FF1D27F00707F7E8020108E085
:100DA00032E01FE020E000B2C117042B01D140B2B5
:100DB000C117031E71F1000307DA4FF0000CD0EBEE
:100DC0000C006CEB01012D2302E0230504D52B233D
:100DD0008DF82430012303E0E30701D02023F7E757
:100DE000984658E00A2110E010210EE010204FF044
:100DF000000B08900CE010214FF0000B44F00404AD
:100E00004FF00809089103E008214FF0000B08910A
:100E1000C4F30253022B04D001CF0021032B06D0D0
:100E200006E0FF1D27F00707F7E8020103E080B2A4
:100E3000042B00D1C0B24FF0000823072BD5702A35
:100E400007D0DDF820C08CF0100C5CEA0B0C05D04C
:100E50000EE040238DF82430012308E050EA01031E
:100E600006D030238DF824308DF8252002239846B3
:100E7000DDF820C08CF0080C5CEA0B0C0BD150EABA
:100E8000010301D1630706D530238DF824304FF0DC
:100E90000108A9F10109582A04D038A20B9208AA26
:100EA0000A920BE03AA2F9E75B46089AFFF719FBB2
:100EB0000B9B9B5C0A9A521E0A92137050EA010225
:100EC000F2D10A98ADEB000000F1200B600702D5CB
:100ED00024F4803401E04FF00109D94502DDA9EB8B
:100EE0000B0000E0002000EB0B0141440890AAEB4E
:100EF000010AE00306D4DDE90F232146504600F045
:100F000063F806444FF0000908E009A911F8090048
:100F1000DDE90F12904709F10109761CC145F4DBA8
:100F2000E0030CD5DDE90F232146504600F04CF8D4
:100F3000064404E0DDE90F1230209047761C089942
:100F4000481E08900029F5DC08E00A980A99007804
:100F5000491C0A91DDE90F129047761CBBF1000194
:100F6000ABF1010BF1DC21465046DDE90F2300F027
:100F700019F806446D1C1BE6092801003031323394
:100F800034353637383961626364656600000000C5
:100F900030313233343536373839414243444546AF
:100FA000000000002DE9F041044600251E461746CA
:100FB000880404D405E039462020B0476D1C641E27
:100FC000F9D52846BDE8F0812DE9F0410446002519
:100FD0001E469046C80301D5302700E0202788042C
:100FE00004D505E041463846B0476D1C641EF9D56E
:100FF0002846BDE8F0814A68002A06D00A68531CDA
:101000000B6010704868401E486070470A68531CA7
:101010000B601070704700000BA1012002F008FC6B
:1010200002F060FB02F062FB0028FBD1BFF34F8FA0
:101030000B4801680B4A01F4E06111430160BFF302
:101040004F8F00BFFDE700004150505F4552524FA7
:10105000523A4552524F523A466174616C0D0A0041
:101060000CED00E00400FA050EB500210091CDE979
:1010700001106A4644F20100FFF7CEFF0EBD0000EA
:10108000144B10B593F822402CB193F82240032C56
:1010900003D0112010BD082010BD82B1042483F8B4
:1010A00022409C7A240700D44902C3E903019A82B2
:1010B0000020DA829883012A03D9522002E0072017
:1010C00010BD5120012202F0E1FD08B1FFF7CCFF75
:1010D000002010BD9405002070B5194B144693F8FC
:1010E00022202AB193F82220032A03D0112070BDB8
:1010F000082070BDECB1052283F822209A7A1507EA
:1011000000D44902C3E903019C820020DC82988359
:10111000012C10D002F0070001284FF001020DD081
:101120002146D72002F0B2FD08B1FFF79DFF002055
:1011300070BD072070BD01225820F3E75920F1E768
:1011400094050020054890F82210032904D090F857
:10115000220008B10120704700207047940500204C
:10116000044890F82210032901D3001D7047002085
:101170007047000094050020F0B52E4C054687B05E
:1011800094F822000F4610B1082007B0F0BDEFB36D
:10119000E878FF284CD06978FF2949D02978FF29C1
:1011A00046D0A978FF2943D0002684F858000122B0
:1011B000009633461146019602F0DAF894F858008A
:1011C00002F01CF91C4B0DF1080C0FCB8CE80F0042
:1011D000A8788DF8080028788DF8090068788DF8CF
:1011E0000A001548154A02A9083801F0A1FD08B106
:1011F000FFF73AFF44F8227B012004F819096078D0
:1012000020F00F006070A676FF2000E010E0E0778D
:101210000A20084B0090084838330122A3F110013E
:10122000083801F013FE08B1FFF71EFF0020ACE7FD
:101230000720AAE79405002020500000FD4400008C
:101240007CB50F4D95F8220028B195F822000328AF
:1012500003D011207CBD08207CBD0A4801F004FEAB
:10126000002495F858000094234622462146223552
:10127000019402F07DF86C702C7000207CBD0000A1
:10128000940500201850000000F002B800F008B8E3
:1012900072B602480168491C0160704730000020A6
:1012A00003490868401E086000D162B6704700001C
:1012B000300000202DE9F041064608680C46411C2C
:1012C0004FF0A0474FF0010506D005FA00F1C7F82E
:1012D0000815206802F070F86068411C02D00021F7
:1012E00002F061F83079204901EB4010A169007FDC
:1012F00000283068C0F8241525D0607D227D316833
:101300001043C1F86C05D4E900123068C0F80C1520
:10131000C0F8142524E0A068411C02D0002102F08E
:1013200042F8E068411C05D08540C7F80855E068E0
:1013300002F042F8D4E902123068C0F80825C0F87B
:101340001015BDE8F081607D217D32680843C2F848
:101350006C05D4E900123068C0F81425C0F80C15EB
:10136000207D0128D7D0ECE7180500201CB581228C
:1013700042EA40008DF8040000200090012301AAF9
:10138000044801F0ABFE04490028886001D0FFF753
:101390006BFE1CBDA04F000000000020087A0A78F8
:1013A0002AB1012A03D0022A01D0032A09D100EB75
:1013B000400204484978406800EB82000172002135
:1013C0008172704720000020806970472DE9FE433C
:1013D0000E46016984698046B1F5007F02D006207F
:1013E000BDE8FE83134D696809B11120F8E7A660D6
:1013F000A261686010491430FFF7BEFE070008D1F3
:10140000A6B900BFFFF79EFE0028FBD1287878B16F
:101410000D27002068604EB1084A07CA8DE8070012
:10142000A0690290A2686946404690473846D7E7CF
:101430000027FBE734000020453D0000605000001D
:1014400019B1012906D0062070470AB1002010709A
:101450000020704712B1001D1060F9E707207047A7
:10146000FEB51C4F0646846978680D46B04202D12D
:10147000FFF768FE08B11120FEBD95E8070004F1F2
:101480000C0383E80700A888296882B2A868FFF7E0
:10149000F7FD050009D1A068C0B900BFFFF752FEF3
:1014A0000028FBD1387898B10D25A06870B16DB1D6
:1014B0000948016B806B029004F10C00CDE900102B
:1014C000A0690290A2686946304690472846FEBD52
:1014D0000025EAE73400002048500000FEB5124F16
:1014E000044685697868A04202D1FFF72BFE08B157
:1014F0001120FEBDFFF7A4FE060000D17860A868A9
:1015000078B10A4907C98DE807000EB1012000E053
:1015100000208DF80100A8690290AA68694620465B
:1015200090473046FEBD0000340000206C500000A3
:10153000FEB51C4F0646846978680D46B04202D15C
:10154000FFF700FE08B11120FEBD95E8070004F189
:101550000C0383E80700A888296882B2A868FFF70F
:10156000BBFD050009D1A068C0B900BFFFF7EAFDC7
:101570000028FBD1387898B10D25A06870B16DB105
:101580000948C16B406C029004F10C00CDE90010D9
:10159000A0690290A2686946304690472846FEBD81
:1015A0000025EAE7340000204850000007490B5CA2
:1015B0004FF0A041D1F804250120984020EA020311
:1015C000C1F808351040C1F80C0570470D500000F7
:1015D0000249085C012101F018BF00000D50000015
:1015E0007CB50024084E25460122305D009500237D
:1015F0001146019501F086FE641C042CF4D3BDE86D
:101600007C4000F003B800000D50000010B500242D
:101610002046FFF7DDFF641C042CF9D310BD002920
:1016200001DA002070470268114401600120704710
:1016300070B5461C0D4601240020FFF725FE114A17
:1016400010682860D2E900109568081A2B1A701CDF
:101650005B1C98420FD963B10B480C4B29400068C2
:101660001B6802EB810163F39F20C8601068401C77
:101670001060002401E0881910600020FFF706FECA
:10168000204670BDF0060020B05000004800002049
:10169000034803C8814201D10120704700207047F0
:1016A000F006002010B504460020E070401EE06205
:1016B000204601F04EFA08B1042010BD04F22E209D
:1016C00001F06DF9A0F52A41553901D0032010BD74
:1016D00094F83000E92805D0EB2814D194F83200B2
:1016E000902810D104F1660001F04EF90749B1EBE2
:1016F000002F06D004F1820001F046F90449884227
:1017000001D1002010BD022010BD00000046415450
:101710004641543300200549024600BF21F81020FD
:10172000401CC0B20828F9D370470000C404002050
:101730004269891E921E8A4201D800207047826A3F
:10174000408901FB002070472DE9F04105680F003A
:10175000804606D000F07CFF022809D20120BDE8B7
:10176000F081EE6816B16869B04207D8012605E03D
:10177000411CF4D069698142F1D83E46344668691B
:10178000641CA04202D80224022E0AD321464046FD
:1017900000F05EFF38B10128E1D0411CDFD0B44237
:1017A000EDD10020DBE74FF0FF36324621462846D8
:1017B00002F098F930B957B122463946284602F06E
:1017C00091F920B101280FD001242046C7E7EC6031
:1017D000D5E90401891E884201D2401E286128797A
:1017E00040F001002871F0E73446EEE72DE9F041C2
:1017F0000E4620300D6804460B22202101F0A2F98C
:101800000020014608232A5C401C202A12D92F2AD6
:101810000BD05C2A09D02E2A01D0994214D30B2B6D
:1018200037D02E2A35D10CE0401C2B5C2F2BFBD05F
:101830005C2BF9D02844306059B32078E52834D0A7
:1018400035E008210B23DEE7A2F181071E2F02D924
:101850005F3F1C2F13D82F5C401CA7F1400CBCF13C
:101860003F0F04D3A7F1800CBCF17D0F11D2A3F17F
:10187000010C61450DD26254491C675413E010A756
:1018800000E07F1C97F800C0BCF1000F04D0944525
:10189000F7D10620BDE8F081A2F16107192F01D828
:1018A000203AD2B26254491CADE705202070202AAC
:1018B00001D8042000E00020E0720020EAE70000E8
:1018C000222A2B2C3A3B3C3D3E3F5B5D7C7F000057
:1018D00020BF70472DE9F04104460021056800F063
:1018E000D8F8002826D12846A16901F032F9020073
:1018F0001FD1E069017899B1C17A01F03F01A1716E
:10190000C17A09070FD404F120010B2610F8013B1E
:1019100011F8017BDB1B761E04D0002BF6D002E011
:10192000042206E02BB10021204600F005F8020059
:10193000D9D01046BDE8F0812DE9F047054607698A
:10194000046880698946203710B1B7F5001F02D3BB
:101950000420BDE8F087F90560D1401CA8616969E1
:101960004FF0000829B16089401E10EA572F05D0BA
:1019700054E02089B0EB571F1DD94FE0284600F0F6
:1019800067FE064601281BD9701C33D06069B0423F
:101990003ED8B9F1000F0ED028466969FFF7D4FE92
:1019A00006000BD0012E0BD0701C23D0204602F075
:1019B00047FFF8B906E0C5F81880C9E70720C8E76F
:1019C0000220C6E74FF40072002104F1300001F05C
:1019D000B9F84FF0000831462046FFF7A9FE4FF056
:1019E0000109E0620DE000BF84F80390204602F098
:1019F00027FF08B10120ACE7E06A08F10108401CAC
:101A0000E06261894145EFD8E16AA1EB0800E0623C
:101A1000314620466E61FFF78BFEA861C7F30800D0
:101A2000204430302F61E861002092E770B5044611
:101A30000021066800F02DF80DE03046A16901F0A4
:101A400088F850B9E0690078E52809D040B1012153
:101A50002046FFF771FF0028EFD0042807D007E0E9
:101A60003046A16901F075F8050003D00FE00720AA
:101A700005460CE020220021E06901F063F80B220A
:101A800004F12001E06901F053F80120F0702846CC
:101A900070BD2DE9F04107680E460546B1F5001FFF
:101AA00036D2F00634D12E61AC6824B938780328D8
:101AB00005D37C6A1CB178894FEA402812E0388946
:101AC000B0EB561F24D9786A12E0284600F0C0FD1A
:101AD0000446401C1AD0022C1AD37869A04217D9A8
:101AE000A6EB080646452146EFD23846FFF720FE12
:101AF000C5E9054060B100EB5620A861C6F30800B7
:101B000038443030E8610020BDE8F0810120FBE777
:101B10000220F9E770B51C4C217888420DD261682B
:101B200000EB400551F825303BB101EB85014A7AC5
:101B3000D20704D04A6822B105E0032070BD487A7C
:101B400070BD124A4A6001228A7202461868104922
:101B500006681846B04710B110E0406880476068DA
:101B600000EB8500817A0029F7D1616801EB8501DE
:101B7000097A19B9417A21F001014172606800EBDC
:101B80008500407A70BD000020000020D1180000C0
:101B90009D13000038B51D4D2B78984201D30420C9
:101BA00038BD00EB400439B118480129406815D010
:101BB00002291DD0012038BD01208DF80000686881
:101BC0006A46002150F8240000F0DCFF08B111281B
:101BD00017D19DF800000028F1D112E050F8240040
:101BE00088B101681446496988470068206008E0A8
:101BF00050F8240038B10168144649698847808844
:101C00002080002038BD032038BD000020000020C7
:101C1000FEB51D4C2578A8420DD263B100EB4005FE
:101C2000606850F8256026B100EB8506777AFF07DB
:101C300003D00320FEBD0420FEBD0092CDE901319A
:101C40000121B17250F825606F4630684169304615
:101C5000884700680099884214D9306839468268FC
:101C60003046904710B10DE040688047606800EB57
:101C70008500817A0029F7D1606800EB8500007A41
:101C80000028D9D00120FEBD2000002006490A7896
:101C9000904201D301207047496800EB400001EBFE
:101CA0008000407A7047000020000020FEB5204CE4
:101CB0002578A8420DD263B100EB4005606850F86A
:101CC000256026B100EB8506777AFF0703D0032055
:101CD000FEBD0420FEBD777A7F0701D50220FEBD40
:101CE0000092CDE901310121B17250F825606F46B3
:101CF000306841693046884700680099884214D9A5
:101D000030683946C2683046904710B10DE04068EF
:101D10008047606800EB8500817A0029F7D1606810
:101D200000EB8500007A0028D9D00120FEBD00001C
:101D300020000020014A50601170704720000020F0
:101D400038B5044600F00CF9002807D16946204652
:101D500003F0C1F8002801D10021216038BD000046
:101D600017B581B0144602980090684600F0CFFC89
:101D7000002802DA0B2004B010BD0B4A002352F8F1
:101D8000201001B10B700199002900D00B7042F8AE
:101D9000201001D0012C01D00020ECE7002201A985
:101DA00002A800F0F5FAE6E72C0000202DE9F74341
:101DB0008CB005000BD002F03F06324669460DA8F4
:101DC00000F0E6FA04004FF0000804D0C0E009205B
:101DD0000FB0BDE8F0830098019001A80D9900F0C4
:101DE000FDFB040004D19DF82F00000600D5062459
:101DF00016F01C0F4CD04CB1042C03D101A8FFF7F6
:101E000015FE044646F008065CB1A1E09DF80A0004
:101E100010F0110F01D007249AE0700701D50824B3
:101E200096E0300743D54D4F089839460E3002F002
:101E3000B6FC08983946163002F0B1FC089920200B
:101E4000C8720899009800F08CFD07460022089996
:101E5000009802F090FC089800211C3002F09FFCD2
:101E600000990120C87007B3D1F82C9000223946A0
:101E700001A801F0ACFE04006AD14946009800F0C8
:101E800068FE04000098A7F10107C7600BD05FE06F
:101E9000CCBB9DF80A00C10601D5042458E0B10767
:101EA00001D5C007B7D1300701D546F040060098EC
:101EB000C16A296208996962089900F052FDA86018
:101EC00008981C3000F060FDE860009828600098D9
:101ED0004FF400720021C088A8802E7485F811800C
:101EE000C5F81C8005F128008146C5F8148000F073
:101EF00029FEB0062ED5EE6866B36E610098A9681B
:101F0000408947020FE023E0284600F0A1FB01468C
:101F1000012800D80224481C02D0F61B1CB104E0A2
:101F20000124F61B01E0BE42EED8A96184B9F00598
:101F300010D00098FFF7FCFB70B100EB5622EA616D
:101F40000098012349464078FFF762FE10B1012452
:101F5000C5F8008020463BE70224F9E7000021484D
:101F6000F8B50446694602F0B6FF00280ED1217C80
:101F70004A060BD508060ED50098E2690123407881
:101F800004F12801FFF792FE08B10120F8BD207C82
:101F900000F07F002074154E216A009800F0D9FDF2
:101FA0000028F3D1656A2946E87A40F02000E872FB
:101FB000A268206802F0DFFB05F11C00E16802F076
:101FC000EEFB314605F1160002F0E9FB002105F1B8
:101FD000120002F0ECFB00980121C17002F0ECFB52
:101FE000217C01F0BF012174F8BD000000002148F0
:101FF0002DE9FE4F88460021196099461546044692
:1020000002A902F068FF002806D1607C002803D1F5
:10201000207C800702D40720BDE8FE8F606901277D
:1020200042194FF0020A04F1280B824200D2C54344
:1020300094E06069C1056ED102994989491E11EA8F
:10204000502612D108B1A16902E0A06828B9002188
:102050002046FFF779FB00287DD001282DD0411CB8
:1020600054D0A061A16801B9A060207C00060BD506
:102070000298E269012340785946FFF717FEA0BB9A
:10208000207C00F07F002074A1690298FFF750FBCC
:1020900098B130440190680A009027D00299321814
:1020A0004889824201D9801B0090DDE900324878DE
:1020B0004146FFF7FBFDC0B903E084F811A0022000
:1020C000AAE7E1690198081A009988420AD208EB48
:1020D00040214FF40072584600F02AFD207C00F0A9
:1020E0007F0020740098460227E00FE0E169019824
:1020F00081420ED0E168606988420AD202980123C9
:1021000059464078019AFFF783FD10B167740120AA
:1021100082E70198E061A08AC0F30800C0F500766C
:10212000AE4200D92E46204432464146283000F0C7
:10213000FFFC207C40F0800020746069B044304493
:102140006061E168884200D80846E060D9F8000084
:10215000AD1B304400E004E0C9F80000002D7FF41E
:1021600068AF207C40F040002074002054E700005D
:10217000F8B50D46064601213148FFF7DBFD31A1D8
:10218000032001F055FB03240020FFF7C3FC641E6D
:1021900002D00028F8D102E008B134A132E03D4F6E
:1021A0003D487969884740684FF48011B1FBF0F4ED
:1021B000796939488847006838A1B0FBF4F20320F8
:1021C00001F05CFB3CA1032001F032FB012242A1A3
:1021D0004248FFF7C5FD08B141A113E04748407AE6
:1021E0000028FDD12AA1132001F022FB44A10320E5
:1021F00001F01EFB4148332231461830FFF7D6FD6F
:1022000020B147A1032001F013FBF8BD65B14FA138
:102210003A486B4604221830FFF7EAFE30B14CA171
:10222000032001F005FB06E050A1F1E750A10320D7
:10223000009A01F023FB31481830FFF781FDF8BD0B
:10224000140000204150503A494E464F3A496E69B9
:102250007469616C697A696E67206469736B203098
:102260002028534443292E2E2E0D0A004150503A67
:10227000494E464F3A4469736B20696E69746961CF
:102280006C697A6174696F6E206661696C65642E31
:102290000D0A000030500000D84F00004150503A65
:1022A000494E464F3A43617061636974793A20251B
:1022B00064204D420D0A00004150503A494E464FAD
:1022C0003A4D6F756E74696E6720766F6C756D65CB
:1022D0002E2E2E0D0A0000000000000054000020E9
:1022E0004150503A494E464F3A4D6F756E742066D4
:1022F00061696C65642E0D0A0000000084020020F4
:102300004150503A494E464F3A57726974696E6768
:1023100020746F2066696C65202E2E2E0D0A000039
:102320004150503A494E464F3A556E61626C6520B5
:10233000746F206F70656E206F72206372656174B8
:10234000652066696C653A202E0D0A00313B0A0053
:102350004150503A494E464F3A577269746520666B
:1023600061696C65640D0A2E00000000303B0A00B4
:102370004150503A494E464F3A256420627974657F
:1023800073207772697474656E2E0D0A0000000068
:102390002DE9FF41002790460E460F6000F0B7F987
:1023A000050003D50B2004B0BDE8F081884850F843
:1023B00025409CB13460207808F0FE0620B160789A
:1023C000FFF764FCC1070BD02770E8B2B846607015
:1023D000FFF7A0FBC10708D00320E4E70C20E2E7E9
:1023E0000EB1400704D40020DDE71EB1400701D53F
:1023F0000A20D8E7002631462046FFF753F9022885
:1024000022D100254FEA0D0704EB051090F8F211D8
:1024100000F5F77019B1083000F0B6FA00E00020BE
:1024200047F825006D1C042DEED3002557F82560D4
:1024300036B131462046FFF735F9022801D203E0D4
:1024400003206D1C042DF1D3042809D002286DD27D
:1024500004F13B0000F0A3FAB0F5007F66D101E083
:102460000120A0E704F1460000F099FA18B904F140
:10247000540000F089FAA06194F84050A570012D35
:1024800001D0022D52D1454394F83D006081E8B35C
:10249000411E08424AD104F1410000F080FA208137
:1024A000000743D104F1430000F079FA070004D19A
:1024B00004F1500000F068FA074604F13E0000F015
:1024C0006EFA010032D02389481900EB13129742AB
:1024D0002CD3B81A6789B0FBF7F0B8B103274FF6D1
:1024E000F57C604500D8022740F6F57C604500D8B1
:1024F0000127801C3244A26231446061C4E9076153
:10250000032F15D013B12944616200E00EE0022FC1
:102510001FD000F0010100EB400001EB500000BFB4
:10252000A16900F2FF10B1EB502F14D20D203AE751
:1025300004F15A0000F033FA0028F7D1208900286E
:10254000F4D104F15C0000F01FFA60626069800061
:10255000E6E74000E4E74FF0FF302061E0608020D4
:102560002071032F2CD104F1600000F018FA01282B
:1025700026D1711C204600F0ECFA08BB84F80480D8
:1025800004F22E2000F00BFAA0F52A41553917D19C
:1025900004F1300000F0F8F90E49884210D104F53A
:1025A000057000F0F1F90C49884209D104F5067074
:1025B00000F0EAF9206104F5077000F0E5F9E06049
:1025C00003492770091F0888401C0880E0800AE73B
:1025D0002C000020525261417272416173B5044671
:1025E0000568019801E0401C019001782F29FAD07C
:1025F0005C29F8D00021A16001980078202806D23B
:10260000802084F82B002046FFF743FA7CBD01A907
:102610002046FFF7EBF80028F8D12046FFF75AF9DB
:1026200094F82B1028B10428F0D14907EED40520E6
:102630007CBD4907FCD4A079C006F8D5208AC0F338
:10264000080041192846303100F08BF9A060DEE720
:102650002DE9F04104680D4602290BD36069A842B8
:1026600008D920784FF0FF36012807D002282BD058
:10267000032839D001263046BDE8F081206A05EBF9
:10268000550700EB5721204600F063FA0028F2D1ED
:10269000C7F3080020447F1C90F83080206A00EBCC
:1026A0005721204600F055FA0028E4D1C7F308006E
:1026B000204490F8301048EA0120E90701D00609CB
:1026C000D9E7C0F30B06D6E7206A00EB15212046B8
:1026D00000F03FFA0028CED1E8B204EB40003030E1
:1026E00000F05DF90646C6E7206A00EBD5112046EA
:1026F00000F02FFA0028BED140F2FF1000EA85005A
:102700002044303000F040F920F07046B3E710B5B7
:1027100004464FF0FF302268002A13D0114600E033
:10272000491C0B78212B0ED33A2BF9D112F8013B1F
:10273000303B0A2B06D28A4204D1002B02D1491C1D
:102740001846216010BD002010BD00001CB50446D5
:102750000FA00123006801900020009001AA2146EB
:102760000C4800F0BBFC0C49886008B1FEF77CFC0B
:102770000A2000F00AFA21460020FEF7F7FD0A20A1
:1027800000F003FA21460F2001F0A0FE1CBD00005E
:1027900021000000A04F00000000002070B50E4690
:1027A0000446007918494FF4A27501EB4010017FEF
:1027B0002068A1B14FF4887101F0E6F84FF49071F0
:1027C000206801F0E1F84FF49271206801F0DCF824
:1027D0002946206801F0D8F80C49206809E04FF438
:1027E0008E7101F0C0F82946206801F0BCF8084954
:1027F0002068C0F80413206800F07FFA3146BDE875
:10280000704000F05EBA00001805002010030200BE
:10281000800002002DE9FF470D464FF492770446F1
:10282000394601F090F84FF002094FF001084FF4DB
:10283000827640B13946204601F08AF8314620467A
:1028400001F081F8B0B3B2463146204601F07BF882
:102850004FF0FF36002770B35146204601F078F85C
:1028600005F10C0001AB07C883E8070095F82300C9
:1028700078B1287B01282DD0D4F84C05C0B28DF852
:102880000600287B022828D0D4F84C05C0B28DF869
:1028900007004FF4B071204601F05AF84FF4AE71C2
:1028A000204601F055F895F8250080B395F82300EF
:1028B00068BB3CE000E013E0A868C4F80803C5F872
:1028C0000890A868C4F80403C4F82080C4F81480F1
:1028D000BDE8FF87D4F83C05D0E7D4F83C05D5E740
:1028E0004FF4A471204601F033F8287B80B14FF4F7
:1028F0000070C4F80002801CA860C4F80863A868CF
:10290000C4F80403C4F80880C4F82080E0E708E0B5
:1029100005F10C0001AB07C883E8070095F8250016
:1029200028B90020C4F80002AF60C4F80863D4F8E6
:10293000C404C4F8C404810702D58DF8008006E001
:10294000400702D58DF8009001E08DF8007095F8F1
:10295000250008B985F82470D5E90021684690471C
:10296000B6E770B506460D4601F11A0000F017F8FB
:1029700004463078032805D105F1140000F00FF863
:1029800044EA0044204670BDC178827842EA0121C1
:102990004278007842EA012140EA012070474178FC
:1029A000007840EA012070470EB5424900204FF000
:1029B000A045C1F8000700F095FF08B1FEF754FBF1
:1029C0003DA1032000F034FF002000F08BFF08B190
:1029D000FEF74AFB00F08AFE0028FBD13EA103204F
:1029E00000F026FF02F012F841A1032000F020FFC2
:1029F0000A2000F0CAF87020FFF7A8FE0A2000F0B5
:102A0000C4F87120FFF7A2FE0A2000F0BEF800BF54
:102A100000F06CFE0028FBD1FEF77CFE0C2000F0DD
:102A2000F5FF712002F084FA0A2000F0AEF84FF4AE
:102A30007A74FEF7D5FD3249324AD1E90801CDE971
:102A400001012F4801A9103000F0A2FA08B1FEF7E9
:102A50000BFB2B482146103000F0E2FA0246012021
:102A60000346009026480021103000F07BFA2448ED
:102A7000103000F069FA244EFEF74CFED5F8100530
:102A8000C0F34034214621A0FFF772FB224622A169
:102A9000032000F0F3FE707800F0B8FF702002F021
:102AA00047FA0A2000F071F800F020FE0028FBD160
:102AB00030BFE1E7340000504150503A494E464F94
:102AC0003A0D0A4641544653206578616D706C6535
:102AD0002E0D0A0D0A0000004150503A494E464F53
:102AE0003A74776920696E6974203A20000000000A
:102AF0004150503A494E464F3A696E6974000000A1
:102B0000A04F000095480000000000206D61696E34
:102B1000302E6373760000004150503A494E464FC4
:102B20003A70696E5F76616C7565202575200A00C4
:102B3000002A05D011F8013B00F8013B521EF9D1E3
:102B4000704700005FFA81F100F8011B521EFBD1B3
:102B5000704770B50446C06A0D460026A8420FD0E3
:102B6000204601F06DFE06000AD1607801232A4656
:102B700004F13001FFF74CF808B1751E0126E5623B
:102B8000304670BD03681B6918474FF47A7148439B
:102B9000AFF3008000283ED01F49204A096800BFDB
:102BA00000BF00BF00BF00BF00BF00BF00BF914219
:102BB0002FD000BF00BF00BF00BF00BF00BF00BFDD
:102BC00000BF00BF00BF00BF00BF00BF00BF00BF0D
:102BD00000BF00BF00BF00BF00BF00BF00BF00BFFD
:102BE00000BF00BF00BF00BF00BF00BF00BF00BFED
:102BF00000BF00BF00BF00BF00BF00BF00BF00BFDD
:102C000000BF00BF00BF00BF00BF00BF00BF00BFCC
:102C100000BF401EC3D170474C0000200024F400C8
:102C200000283ED01F49204A096800BF00BF00BFEE
:102C300000BF00BF00BF00BF00BF91422FD000BF48
:102C400000BF00BF00BF00BF00BF00BF00BF00BF8C
:102C500000BF00BF00BF00BF00BF00BF00BF00BF7C
:102C600000BF00BF00BF00BF00BF00BF00BF00BF6C
:102C700000BF00BF00BF00BF00BF00BF00BF00BF5C
:102C800000BF00BF00BF00BF00BF00BF00BF00BF4C
:102C900000BF00BF00BF00BF00BF00BF00BF401E9D
:102CA000C3D170474C0000200024F40000F01F0244
:102CB000012191404009800000F1E020C0F880111E
:102CC00070474907090E002806DA00F00F0202F1EA
:102CD000E02282F8141D03E000F1E02282F80014E3
:102CE00000F01F02012191404009800000F1E02026
:102CF000C0F88012C0F800117047000B40B2704756
:102D00000121B1EB507F01D10120704700207047B5
:102D10000121B1EB507F01D10120704700207047A5
:102D20000121B1EB507F01D1012070470020704795
:102D30002DE9FC5F0C464179DFF80CA180460AEBD7
:102D40004117387E10B10820BDE8FC9F3A60207B17
:102D500001254FF0A046012805D8217805FA01F099
:102D6000C6F80C0502E0207800F041FB2178A94666
:102D7000890001F1A041C1F800576578FF2D07D007
:102D800009FA05F0C6F80C05284600F01FFB01E023
:102D90004FF0FF35A0784FF0000BFF280AD000223B
:102DA00006465B46CDF800B01146CDF804B000F001
:102DB000CDFA01E04FF0FF36E078FF2804D000F0B4
:102DC00016FBE07800F002FB98F80520E1780AEBAA
:102DD00042108176D8F800002178C0F80815C0F8B4
:102DE0000C55C0F81065A168C0F82415227B617BE2
:102DF00001B10121012A04D0022A05D0032A08D1F9
:102E000005E041F0020104E041F0040101E041F07D
:102E10000601C0F854156179C0F8C015396811B1C0
:102E20004021C0F804130721C0F80015386820B10C
:102E3000217998F90400FFF744FF584687F819B044
:102E400087F8189080E70000380500201FB5069C21
:102E500000918DF8042002938DF80C400022694601
:102E600000F032F804B010BD2DE9F0414179154A67
:102E700002EB41150122296859B190F9041001F0C3
:102E80001F0302FA03F34909890001F1E021C1F8A7
:102E9000803104682868002670B1701EC4F80803E9
:102EA000687E48B162614FF482773946204600F06F
:102EB00045FD0028F9D06E76C4F800652E76BDE891
:102EC000F081000038050020F0B413460D4641792A
:102ED000134A02EB41114A7E12B1F0BC1120704737
:102EE0000C6801221CB113F0140F00D14A7695E84A
:102EF000D010083181E8D01011F8154F24F00304E8
:102F000001F81D498C7EFF2C04D04FF0A046A24052
:102F1000C6F80C2500682A46F0BC01F0D3BB0000BF
:102F20003805002030B54FF4803405688C4013B16B
:102F3000C5F8044301E0C5F80843006800EB8100D0
:102F4000C0F8402530BD0000016801220A60007908
:102F5000034A00EB400002EB80000221017270473F
:102F600088050020F0B40468049E40F20115D4F8EE
:102F700000728D40AF43C4F800720468D4F8005268
:102F80001D43C4F800523346F0BCFFF7CBBF00002E
:102F9000F8B504460D460079204900EB400001EBEE
:102FA0008006307A08B10820F8BD3AB1326068680E
:102FB0007060002003464FF4A07709E00720F8BDB9
:102FC000226807EB800153505158401CC0B2009159
:102FD00061798142F4D82068E978000B40B2FFF7AC
:102FE00070FE20686978D0F8042561F30102C0F80A
:102FF00004252068A978D0F8082561F30102C0F8FB
:10300000082520682978D0F8102561F30302C0F85C
:103010001025012030720020F8BD00008805002036
:103020000068D0F810254FF47A504843D0407047DC
:103030000179064A01EB8101006802EBC101062219
:10304000C0F80025022081F822007047F00400201B
:1030500070B506460D4600791F4900EB800001EB74
:10306000C00494F8220008B1082070BD0020C4E913
:103070000023A06084F8250084F82400A87B84F84D
:103080002700687B10B1284601F042FC296840F215
:103090000C60890001F1A041C1F80007696889004E
:1030A00001F1A041C1F80007D5E900123068C0F86D
:1030B0000815C0F80C25A968C0F82415206828B1A7
:1030C0003068297B000B40B2FFF7FBFD012084F83C
:1030D0002200002070BD0000F00400203EB5002555
:1030E0000095069C8DF8011002958DF80230019232
:1030F0000CB1202200E00022694600F001F83EBD3C
:1031000030B40379064C03EB830304EBC30400687B
:1031100013460A460146204630BC01F08FBC000031
:10312000F00400202DE9F04105460079164F904645
:1031300007EB40140E46E07E10B10820BDE8F08198
:10314000707F20772846FEF7B5F85FEA08006060D8
:103150003169216003D0317F2846FFF71FFB2879B2
:1031600007EB4010007F0028286801D0082100E00C
:103170000421C0F800150020E0752076A07501211B
:10318000E176A076DAE70000180500202DE9F04787
:10319000054600793F4E904606EB40140F46207FCF
:1031A00018B10846FFF7B4FD30B1284600F074F8B6
:1031B00020B11120BDE8F0871020FBE784F81680CD
:1031C000A7600027A78228794FF0010806EB40147A
:1031D0003E46207F0028286825D04FF49079494644
:1031E00000F0D2FB4FF4AC7A5146286800F0CCFBDB
:1031F0002868A17DA268C0F84425C0F84815286851
:10320000C0F808806068F0B94946286800F0B7FB4C
:1032100080465146286800F0B2FB58EA0001F3D01E
:1032200058BBA7750FE04FF48E7A514600F09BFB18
:103230002868C0F808802146286801F01FFD6168F1
:103240004FF4807089B13046B4E75146286800F0E9
:1032500085FB10B9A08A4845F7D1A08A484505D01A
:103260002146286801F00AFD00E08146A08AA17D80
:103270008842EAD3A08A484501D10F26D1E75146BA
:10328000286800F06BFB0028F9D02868C0F80C8093
:10329000C7E70000180500200079044901EB401041
:1032A000807D002800D00120704700001805002014
:1032B00070B5044600791149002601EB40152068DD
:1032C0002A7FC0F80065686888B1207901EB40105A
:1032D000007F0028206801D0094901E008498C39A5
:1032E000C0F808132068FFF708FDFFF7DFFC204651
:1032F00000F050FBEE766E6070BD000018050020F7
:103300001003020070B541EA4201DDE904564FF0B6
:10331000A04441EA830141EA052104EB800041EA2F
:103320000641C0F8001770BD70B541EA4201DDE901
:1033300004564FF0A04441EA830141EA052104EB21
:10334000800041EA0641C0F8001770BD70B541EA3F
:103350004201DDE904564FF0A04441EA830141EA0D
:10336000052104EB800041EA0641C0F8001770BD5A
:1033700070B541EA4201DDE904564FF0A04441EA4C
:10338000830141EA052104EB800041EA0641C0F8CF
:10339000001770BD1CB5002100910B460122019160
:1033A000FFF7C2FF1CBD1CB500220B460092114660
:1033B0000192FFF7B9FF1CBD1CB5002100910B461F
:1033C000012201911146FFF7AFFF1CBD1CB5002182
:1033D00000910B46012201911146FFF7B7FF1CBD7A
:1033E0004FF0A04201218140C2F8081570474FF00C
:1033F000A04201218140C2F8081570474FF0A04259
:1034000001218140C2F80815704701224FF0A04306
:10341000824011B1C3F808257047C3F80C257047E6
:10342000004870479934000030B5184C054689B003
:10343000207828B16078854202D1002009B030BDE3
:10344000202213496846FCF7FBFF00208DF814008A
:10345000062000900820019005200390072002908C
:103460004FF0EB7006900948001DFFF721FF0DB1EA
:10347000002200E0074A05486946001DFFF752FE9A
:103480000028DBD1012020706570D6E73C000020C9
:1034900090500000B94C00002DE9F04FC1B00D0074
:1034A0004FF0000140914D984B991C46174601EB97
:1034B000000B01D00A2000E00020804600F0EAFF67
:1034C00000287CD16E46BCB9409840AA31182846E5
:1034D00001F004FA002872D03846FCF7C3FFC22876
:1034E00000D9C220054640982A4630443946FCF7A8
:1034F000A7FF4098284440904FF0200A409901EBE4
:10350000080231320DEB01050DEB0206002002E04E
:1035100005F801AB401C4045FAD300275C4508D3B1
:1035200005F801AB05F801AB05F801AB06F801ABF6
:103530002DE04B98844202D24A98005D02E0211AA5
:103540004C98405C2B46814602460121880022FAB5
:1035500000F000F00F00092801D9373000E03030CA
:10356000C1F1010C491E03F80C00EFD29D1C05F8B7
:1035700001ABFCF761FF016811F8090010F03E0F84
:1035800001D0484600E02E2006F8010B641C7F1C89
:10359000102FC3D30D2030700A20707085F800A062
:1035A0004099684641444331409100F079FF30B181
:1035B00000F070FF18B9002040905C459ED341B0E8
:1035C0002046BDE8F08F2DE9F043C7B000251C462A
:1035D000904689464E9F459500F05CFF00287AD1C1
:1035E000459805AE311845AA484601F077F90028FC
:1035F00035D0072F27D2DFE807F004121B35424FE2
:103600005D004046FCF72EFF054645982918FF2926
:1036100019D830442A464146FCF712FF13E045987A
:103620002368C0F5807130444246FDF773FA09E023
:103630006068009045982368C0F580713044424628
:10364000FDF768FA0546294645A8FDF7E8FF4599C4
:1036500078B3B1F5807F3ED805A800F021FF47B0D0
:10366000BDE8F083D4E90101CDE900014598236864
:10367000C0F5807130444246FDF74CFAE2E7201D68
:1036800007C88DE8070045982368C0F5807130446D
:103690004246FDF73FFAD5E7201D0FC88DE80F0021
:1036A00045982368C0F5807130444246FDF732FAF0
:1036B000C8E710E004F1080001AD0FC885E80F006D
:1036C0006068009045982368C0F580713044424698
:1036D000FDF720FAB6E70020C1E700000048704778
:1036E000C73500000120FFF79FBE00002DE9F04F15
:1036F00087B0FDF7CDFF18B1002007B0BDE8F08F0F
:10370000454ED6E9014704EA070006EB8000A146D2
:10371000641CC5680CE000BFC5F3891000EB955030
:10372000044404EA070006EB8000A146C568641C57
:10373000A807F1D005F003004FF0000B022805D0D8
:10374000AA0A01A8C5F38313002153E004EA070085
:1037500006EB800004F1010A0AEA0704C268381B7C
:1037600080004FEA9558001DC5F38913804521D983
:1037700029490C3138B106EB840400F0FF0CA8EBAA
:1037800000000C3404E00C46002108F0FF0C084651
:10379000C0B2CDE90210CDE9004CD6F81444C5F30F
:1037A000C2005946A047404511D108F103080AEB71
:1037B00098042AE0002106EB84000C300090CDE94B
:1037C00001810391C5F3C200D6F81444EAE760F31F
:1037D0008F1509EA070006EB8000C56016E000BF00
:1037E00004EA070C06EB8C0C491CDCF80CC040F812
:1037F00004CB641C9942F3D3C5F3C2000093D6F8FE
:10380000105401AB5946A84700B17460FDF740FF62
:1038100080F0010071E70000F0060020034AFF235A
:10382000936000231360536000F054B8F00600204A
:103830002DE9F8430F4F884604460025694628467F
:10384000BE68FDF7F5FE002812D00B480021406845
:1038500061F38200009964F3C50001EA060265F392
:10386000891007EB820268F39F20491CD060009109
:10387000BDE8F883F0060020B05000002DE9F843C1
:10388000124D884604460127914669463846AE687F
:10389000FDF7CEFE002817D00D480021806861F3A7
:1038A0008200009964F3C50001EA060267F38910FB
:1038B00005EB820268F39F20491CD06000913140E3
:1038C00005EB8101C1F80C90BDE8F883F0060020FB
:1038D000B0500000024A02F5826203C27047000045
:1038E000F006002070B506460020FFF79DFD04009D
:1038F00008D1FFF795FD0546FFF7F0FE3246294651
:10390000FFF78CFF204670BD024A1060101D016059
:10391000704700002C76004002494058002800D033
:103920000120704700700040034908B50844002298
:1039300002600068009008BD0070004040580028F8
:1039400000D0012070474058002800D00120704767
:1039500008B5002242504058009008BD4058002849
:1039600000D00120704708B5002242504058009016
:1039700008BDD0F80403084000D00120704740582B
:10398000002800D00120704708B50022425040585E
:10399000009008BD70B5034600791B4901EB40104B
:1039A0001968027F4FF0FF30002AD1F80C25D1F8BA
:1039B0001465D1F80855D1F8104504D0C1F80C05AC
:1039C000C1F8140503E0C1F81405C1F80C05196825
:1039D000C1F80805C1F81005501C02D01046FFF7C9
:1039E000D9FC701C02D03046FFF7D4FC601C02D01A
:1039F0002046FFF7CFFC681C04D02846BDE8704085
:103A0000FFF7C8BC70BD00001805002030B587B0B6
:103A1000024633A16846FDF795F86846FCF722FD9B
:103A2000012823D06846FCF71DFD022829D06846EE
:103A3000FCF718FD032844D06846FCF713FD032863
:103A40003FD09DF800100022052001F05DFA9DF89E
:103A500001100022032001F057FA9DF80210002205
:103A6000012001F051FA9DF8031024E09DF80000B8
:103A70008DF808000A2203A902A8FCF7FAFCC1B2DB
:103A800019E09DF800008DF808000A2204A902A898
:103A9000FCF7EFFC05469DF801008DF80C000A22AA
:103AA00005A903A8FCF7E5FC0446E9B200220120C1
:103AB00001F02AFAE1B20022104601F025FA07B01F
:103AC00030BD9DF800100022032001F01DFA9DF882
:103AD00001100022012001F017FA9DF80210EAE718
:103AE00025750A002DE9F047022617460D460446C3
:103AF000022969D36069A84266D920784FF001098C
:103B0000012804D0022836D003285DD143E0216A81
:103B100005EB550801EB58212046FFF71AF806007F
:103B200052D1C8F308002044303008F10108E907F9
:103B300004D00178FAB262F31F1100E03946017037
:103B400084F80390216A204601EB5821FFF701F821
:103B5000060039D1C8F3080020443030E90702D00C
:103B6000C7F3071105E00178C7F3032201F0F00164
:103B70001143017026E0206A00EB15212046FEF774
:103B8000E8FF060020D1E8B204EB4000B9B23030C3
:103B900000F00DFE16E0206A00EBD5112046FEF77E
:103BA000D8FF060010D140F2FF1000EA8500204443
:103BB00030300546FEF7E8FE67F31B000146284655
:103BC00000F0EDFD84F803903046BDE8F0872DE964
:103BD000F041056813460E46074602292DD3686951
:103BE000B0422AD93BB14FF0FF3219462846FFF7C1
:103BF00079FF00281FD131463846FEF729FD040021
:103C000018D0012C19D0601C19D00022314628464A
:103C1000FFF768FF00280ED1D5E90410821E9142FB
:103C200005D2491C2961297941F0010129712646F3
:103C3000B042E0D80020BDE8F0810220FBE701207F
:103C4000F9E770B50546C87D0C4600284FF484712D
:103C500028460AD0FFF787FED5F81805627EE1688E
:103C60008854607E401C607670BDFFF77CFED5F8FE
:103C7000180570BD1FB501238DF800308DF80810B0
:103C80000192D0E90012684690471FBD2DE9F0412E
:103C90002B4B93F8234014B11120BDE8F08101258E
:103CA000002783F82350040612D5022483F823400A
:103CB000772483F82840002483F8294083F82A4099
:103CC00083F82B40062783F82C40FF2483F82D40EF
:103CD000DC1900F07F0684F828600E0E84F8296055
:103CE0000E0C84F82A600E0A84F82B6084F82C10DD
:103CF000402810D0482810D05FF0FF0184F82D1024
:103D00000521022A0BD0032A09D083F8245000068B
:103D100008D5012008E09521F0E78721EEE783F838
:103D20002410F4E793F82400054A0E30C3B2383269
:103D30000621A2F1100000F08FFB0020ADE700008B
:103D400094050020FEB5214E054640783070776816
:103D50002978BC6949B11E4801291CD002292FD0FD
:103D6000BDE8FE400320FDF77FB9FDF7F9F90068D3
:103D700020604FF40070606070688069806800287F
:103D80001DD00020009001900290687800B10120C1
:103D90008DF801000DE0A168002910D007C88DE85A
:103DA0000700687800B101208DF8010004F10C00D3
:103DB0000190A0690290A268694638469047FEBD0E
:103DC000A1680029FBD00C30E8E700003400002097
:103DD000485000002DE9F84FA44C1746D0F80120B8
:103DE000264612BA037922F0FF02B6F820C042EA52
:103DF000030E8A46A38B06F1480596F80AB00178AF
:103E00004FF4067804220CF1010C00261FFA8CF9FD
:103E100043456ED020DC40F2F315A3F2F31CAB4215
:103E20003CD00EDC4FF4F87773B3BB4228D10122AB
:103E300000214020FFF72AFF08B1FDF715F9A583FF
:103E40006DE08A48BCF1060F807A20F0070035D07B
:103E5000BCF1130F14D14DE040F2412CA3F24128E4
:103E6000634577D006DCA3F500732D3B79D0062B94
:103E700006D185E0B8F10A0F6ED0B8F10F0F6CD003
:103E8000A6830320BDE8F88F012200214020FFF720
:103E9000FDFE08B1FDF7E8F8A78340E0880801D0EF
:103EA0003A70BBE003224FF4D5714820FFF7EEFED5
:103EB00008B1FDF7D9F840F2F91015E04B0703D42B
:103EC000C01CA0728808EBD12684A07A00F00700FD
:103ED00003280BD000210222E920FFF7D7FE08B10A
:103EE000FDF7C2F840F20620A08318E04FF08041B1
:103EF000F1E716E04B0734D5401CA072A4F82090DF
:103F0000B9F5FA6F01D9022079E00222002141209F
:103F1000FFF7BCFE08B1FDF7A7F8A4F81C8001204C
:103F2000B0E78808BCD1C807E8D131E0A4F82090F8
:103F3000B9F5FA6FE7D80BF0070003280ED000217F
:103F40000222E920FFF7A2FE08B1FDF78DF840F24A
:103F50002D20C9E72CE004E03AE044E04FF0804136
:103F6000EEE788089CD1C807E0D1022200217A2020
:103F7000FFF78CFE08B1FDF777F840F23320B3E786
:103F800088088DD15FEA4E0002D54BF00800A07280
:103F9000A07A00F0070003280CD001225102502023
:103FA000FFF774FE08B1FDF75FF840F241209BE790
:103FB000880888D10120E560A082024600214920BE
:103FC000FFF764FE08B1FDF74FF840F24B208BE796
:103FD0008908A7D1AAF1010101F0FF0AE6834FF495
:103FE0001471A183401C6B461022514600F080F8EA
:103FF000022801D2002045E79DF8000008B1387082
:104000000CE0287880090CD0012823D0022808D0A1
:10401000304660604FF4007020813E70A68302201D
:1040200030E7287AE979800900EB8100A979AA7A3A
:1040300001F0030100EB81206B7A6979D20903F06A
:10404000030301F00F0102EB43021144401CC91F9E
:104050008840DEE7287A0102E87901EB0040697ABE
:104060000844800200F58060D3E70000940500203A
:10407000F8B51E4C16464FF41E73A28B002542B1B4
:104080009A4210D0A2F50072823A2AD0A58303206A
:10409000F8BD0278920801D0042010E0491EE583A3
:1040A000C9B2A383401C6B464FF4007200F020F8A5
:1040B000022801D20020F8BD9DF8000008B1307040
:1040C00010E0A08A01280CD9012200214C20FFF722
:1040D000DDFD08B1FCF7C8FF40F28220A08301207B
:1040E000F8BD3570A5830220F8BD000094050020BE
:1040F0002DE9F05F554C9A461646E38B254605F1AF
:10410000380240F2B91B2835A3F2B91C4FF0000960
:104110005B4560D005DC7BB1A3F58073A73B06D17E
:1041200055E0BCF1070F7AD0BCF1130F76D0A4F89C
:104130001E900320BDE8F09FA38AE38270E000BFD9
:10414000A4F8209084F82870A4F81890032384F829
:104150002330238C44F620675B1C9BB22384BB4234
:1041600004D902210AE0491EC9B2401C59B10378A2
:10417000FF2BF8D0DBB2FE2B0FD005218AF8001000
:10418000A4F81E9060E010230121284600F064F995
:1041900040F2A710E0830120CCE7491E0423C9B2F6
:1041A000401C84F82330B14201D9374600E00F4665
:1041B000002306E0D4F80C8010F803C008F803C010
:1041C0005B1CBB42F6D32783E3683B44E36094F86F
:1041D0002330032BBDD0208BB04213D2301A86B2CD
:1041E000F02E00D9F026F3B201212846E26800F053
:1041F00033F9E0683044E060208B30442083A4F839
:104200001EB0C8E7E08A0223401EE0820121284652
:1042100000F022F94FF4E070BCE700E00EE000216E
:10422000E38AFF27002B8BD184F828700223012119
:10423000284600F011F94FF4E670ABE784F82390BC
:104240008AF80090A4F81E90022073E794050020DD
:104250002DE9F05F7F4C164623460746B4F81C80D4
:1042600003F1380203F1280093F823909D8A00237C
:104270004FF0040A4FF0020E4FF0030C44F6206B8F
:10428000B8F5337F74D00EDCB8F1000F1AD0A8F562
:104290000078B8F1A3082ED0B8F1100F55D0B8F1BE
:1042A000210F0BD151E0A8F50078B8F1EA086ED0E3
:1042B000B8F1160F6CD0B8F1260F6AD0A383032093
:1042C000BDE8F09F3978890803D000BF86F800A0C8
:1042D000ABE0A17A01F0070101290FD0012D0DD922
:1042E000012259202169FFF7D1FC08B1FCF7BCFE7F
:1042F00040F2A32016E039788908E7D1E5826FE023
:10430000238384F823A084F82810012D01D9FC21EF
:1043100000E0FE2184F829100223194600F09CF8E1
:1043200040F2B320A0836EE0C3F5007085B2F02D9B
:1043300000D9F025C818E9B2012300F08DF8208BD0
:10434000284420834FF43170ECE74249238BC9683D
:10435000B3F5007FE8D301F50071E16084F823C074
:104360000323012100F078F84FF43370DAE7FFE718
:1043700094F83A1001F01F01052906D00B2901D04D
:104380000D29A3D1052030704FE0238422E011E0F5
:104390003BE04DE0218C491C89B22184594502D96A
:1043A00086F800E041E01023012100F055F840F2CA
:1043B000EA20B7E74FF0000C0AE000BF17F80C80C6
:1043C000B8F1000F02D084F8233006E00CF1010CA4
:1043D0008C45F3D3B9F1030FDCD0E18A491EE182A9
:1043E000E78AFF21002F8BD1012D31D984F82810C5
:1043F000FD2184F82910032302211C3400F02CF83D
:104400004FF44070208001205AE7238484F823C0B1
:10441000218C491C89B221845945C1D8102301211E
:1044200000F01AF84FF444707CE7A383022047E7BA
:10443000002508E017F805C0BCF1000F02D084F891
:10444000233005E06D1C8D42F4D3B9F1030FDFD0AA
:104450003370EAE794050020F8B50C460B494FF09D
:10446000A04691F858500121A940C6F80C150093B8
:104470001346014622460648FEF7E8FC002803D012
:10448000BDE8F840FCF7F0BDF8BD00009405002041
:10449000185000000148FEF7FFBE00004000002059
:1044A00070B50D460A46014601240648FBF7C8FFD1
:1044B000EAB204490448FEF769FE00B10024204630
:1044C00070BD0000F0050020400000201CB5002257
:1044D000019240F0E0008DF804000092022301AA4E
:1044E0000448FEF7FBFD04490028886001D0FCF772
:1044F000BBFD1CBDA04F0000000000202DE9F04FC7
:10450000DFF8BC810746057CC468B8F8160087B0A0
:1045100018B998F85800FEF771FF98F823000026A4
:104520004FF0020B4FF003094FF0010A022801D0AF
:1045300001284BD17968AD1FA41D0978EDB24C2933
:1045400003D15DB16D1EEDB2641C1DB12278FF2A4E
:10455000F8D005E04C2901D0002402E00125641EBA
:104560005CBB98F82210012927D08DF801A098F89B
:1045700022105046012907D0022905D004290DD068
:1045800005290ED0032006E08DF8006088F82290FF
:10459000FCF756FE38B1FCF767FD04E08DF800002B
:1045A00001E08DF800B098F85800FEF727FF88F872
:1045B00022906846D8F8001066E0022804D188F8F6
:1045C00023A02078400814D088F8236006208DF8B6
:1045D0000C0098F82200012817D0022819D00428CE
:1045E00039D0052852D00320FCF73EFD07B0BDE8C6
:1045F000F08F98F82400324A0E30C3B238320621C8
:10460000A2F10A00FFF728FFF0E788F822B0A8F827
:104610001C6003AA29462046FFF7DCFB0228E5D3ED
:104620008DF808609DF80C008DF8090088F822903C
:1046300098F85800FEF7E2FE9DF80C0020B1FCF758
:10464000FFFD08B1FCF710FD4FF040214FF0804016
:10465000C1F8240515E003AA29462046FFF708FD06
:104660000228C3D38DF808A09DF80C008DF809002E
:1046700088F82290A8F81460A8F8166088F82360DB
:1046800019E0D8F8001002A88847AFE703AA294626
:104690002046FFF7DDFD0228A8D38DF808B09DF86D
:1046A0000C008DF8090088F8229088F82360A8F89B
:1046B0001460A8F8166098F85800FEF79FFEE0E72F
:1046C000940500202DE9F843044610681E4615465F
:1046D0000F464FF0000810B1FEF722FBF8B1A868B2
:1046E00010B1FEF71DFBD0B128792968C4F8441534
:1046F000C4F84805287BA968C4F83415C4F83805FF
:104700004FF48C754046C4F81881D4F81811009104
:10471000F2074FF0010107D0C4F8501506E087F802
:1047200019801020BDE8F883C4F85005B20702D5FF
:10473000C4F8401501E0C4F84005300700D42161F9
:10474000386848B146F38000401C4FF040000FD05D
:10475000C4F804030020E5E729462046FFF7EEF8F9
:104760000028F9D0B87EFF28F4D0FEF740FEF1E72C
:10477000C4F80803EEE770B50C460646154691B23C
:1047800004F11A0000F013F83078032806D1290C40
:1047900004F11400BDE8704000F009B870BD01706C
:1047A000090A4170090A8170090AC17070470170D5
:1047B000090A41707047000070B5044600F040F8E7
:1047C000050036D1207803282CD12079012829D161
:1047D000420204F1300000210646FEF7B3F94AF622
:1047E000552104F22E20FFF7E2FF13493046FFF770
:1047F000D6FF124904F50570FFF7D1FF04F50670E6
:104800002169FFF7CCFF04F50770E168FFF7C7FFE8
:10481000E2690123521CE26260783146FDF746FAF4
:1048200000202071002260781146FDF7B3F900B135
:104830000125284670BD00005252614172724161EB
:104840002DE9F0410446C0780027F8B1E56A04F18B
:104850003001607801232A468846FDF727FA08B11F
:10486000012713E00020E070206AA169281A88421D
:104870000CD2A67808E0A0690123054460782A4696
:104880004146FDF713FA761E022EF4D23846BDE8F3
:10489000F08100000A4910B54A6802F00304521C76
:1048A0004A60B0F5A07F09D14A7806A10320FEF73F
:1048B000E5FF2046BDE81040FCF778BE10BD0000C3
:1048C000000000204150503A494E464F3A6368720A
:1048D0006F6E6F203D2025750000000010B5144656
:1048E00002004FF001000CD00846136806A24FF4F6
:1048F0008071FCF70FF901462046BDE81040FCF737
:104900008EBE0021216010BD5B253038645D000043
:104910002DE9F041044640F20C602168890001F164
:10492000A041C1F800076168890001F1A041C1F808
:1049300000072068FEF754FD6068FEF751FD21680E
:1049400040F20D60890001F1A041C1F800076168E3
:10495000890001F1A041C1F800070420FEF760F9C9
:1049600000274FF0A04601252179D6F81005C84050
:1049700010F0010F02D0002F1DD010E0217805FAB1
:1049800001F0C6F80C050420FEF74AF92068FEF78E
:1049900027FD0420FEF744F97F1C092FE4DB207972
:1049A0008540C6F80C550420FEF73AF96068BDE86A
:1049B000F041FEF715BDBDE8F081000010B50178AB
:1049C00000290AD10079054C012804D1A27804A15C
:1049D0000320FEF753FF0120207010BD00000020CF
:1049E0004150503A494E464F3A54656D7065726178
:1049F000747572653A2025642043656C736975731C
:104A000020646567726565732E0D0A001FB5094B3A
:104A10000FCB8DE80F0007480023074A694654383A
:104A2000FEF716FB08B1FCF71FFB02485438FEF7EF
:104A3000FFFA1FBDF44F0000BD4900002DE9F05FF3
:104A400006461F4615460C464FF0000A4FF0080B6D
:104A50004FF482795068FEF753F900287ED04FF06A
:104A6000FF30C4F8080396F8240028B1B068C4F8F1
:104A700004031120BDE8F09F780703D4F80601D4A1
:104A8000012000E0002086F8240095E8070006F1E8
:104A90000C0383E80700C7F3001086F82500687848
:104AA000C4F888054FF482712046FEF751FF4FF499
:104AB00092712046FEF74CFFF8074FF0010800D036
:104AC0004046C4F85005B80701D5404600E0002034
:104AD000C4F84005287800286CD001287DD0022831
:104AE0004ED0032814D04FF0070A380704D4287892
:104AF000032801D044F80B80306800286ED0780776
:104B000002D54FF40070B060B068C4F80403B0E0A0
:104B1000A868FEF7F5F808B34FF48070C4F80002F7
:104B2000A9786868C4F84405C4F848154FF4A8711A
:104B30002046FEF70DFF4FF4B0712046FEF708FF48
:104B40004FF4A4712046FEF703FFC4F82080C4F898
:104B5000088000BF4FF4A871204600E028E0FEF76F
:104B6000F2FE0028F6D04FF4A8712046FEF7F0FEC2
:104B7000E878A968C4F84415C4F848053E4815E02B
:104B8000A8786968C4F84415C4F84805A868FEF711
:104B9000B7F868B1E878A968C4F83415C4F83805DE
:104BA0004FF48450C4F8000240F20220B0609CE749
:104BB00010205FE7A8786968C4F84415C4F8480570
:104BC000B8060FD54FF48070C4F800022A48B060D0
:104BD0004FF4A4794946204601E00CE01BE0FEF7C3
:104BE000B7FE05E04FF40070C4F80002801CB0600E
:104BF000C4F8208079E7A8786968C4F83415C4F847
:104C000038054FF48050C4F8000240F20220B06032
:104C10004FF0000BECE745464FF482774FF4927863
:104C20000BE041462046FEF78EFE30B1414620465D
:104C3000FEF78EFE25626561B94649462046FEF7BD
:104C400082FE0028EDD0D4F8C404C4F8C4040021C6
:104C500086F8241068B10321C20701D04FF4024145
:104C6000820701D548F20121400701D548F202210F
:104C70008A465046FEE600000002040070B50C466D
:104C800005464FF48E71FEF76EFEA18AA068415C66
:104C9000A08A401CA082C5F81C1570BD1FB500225B
:104CA0008DF800208DF80810816801918275D0E997
:104CB0000012684690471FBD0078012801D10149C4
:104CC000887070473C0000202DE9FF470C460546E0
:104CD0004FF40071FEF74DFE01274FF401780026D6
:104CE00018B34FF4927949462846FEF737FEE0B1F3
:104CF00049462846FEF737FEC5F80883A07E00B96E
:104D00006F6002208DF80000D5F88004C5F880049B
:104D10000390E07D8DF80800E0680190E675267646
:104D2000D4E900126846904727E004212846FEF7A0
:104D300020FE10B34FF484712846FEF70FFEE0B159
:104D400021462846FEF77DFFE07D617E884214D132
:104D5000207E38B1617EE268E0752069E0602676E9
:104D6000667607E0A07E00B96F60C5F80883E67537
:104D7000617EE2682046FEF77DFF4FF48E78414663
:104D80002846FEF7EBFD88B1A08AA17D884204D2B7
:104D900021462846FFF772FF08E041462846FEF705
:104DA000E2FDA17D11B12046FFF778FF4FF4A27814
:104DB00041462846FEF7D2FD002812D0414628463B
:104DC000FEF7D1FDA07E00B12F60E07D002808D065
:104DD000E675617EE26804B02046BDE8F047FEF764
:104DE00049BFBDE8FF872DE9FF410C464FF492779C
:104DF00005463946FEF7C3FD0026C0B139462846B0
:104E0000FEF7C2FD02208DF80000D5F88004C5F839
:104E100080040390D5F83C058DF80800E068019007
:104E2000E6752676D4E900126846904724E04FF4F0
:104E3000887739462846FEF7A2FDE8B1394628466C
:104E4000FEF7A2FDD5F83C05C1B2E07D884213D142
:104E5000207E60B1E268D5F8000220F02000C5F89D
:104E60000002207EE0752069E060267601E0E675AC
:104E7000E2682046FEF7FEFE4FF4A2773946284648
:104E8000FEF77DFD68B139462846FEF77DFDE07DE1
:104E900038B1E675D5F83C05E268C1B22046FEF7A8
:104EA000E9FE4FF4907631462846FEF768FD00286B
:104EB0000FD031462846FEF767FDA07D002808D0B8
:104EC000D5F84C0504B0C1B22046BDE8F041FFF76B
:104ED000E5BEBDE8FF8170B50D4604000CD020682A
:104EE00050B1017841B1C188A288914204D1407883
:104EF000FCF7CCFEC00703D000202860092070BD5D
:104F000020682860002070BD052805D8034B595C37
:104F100041EAC21100F004B870470000C84F000019
:104F2000052802D8014A22F810107047C404002056
:104F30001FB5184A00218DF8041013888DF805302C
:104F4000190A8DF8061053888DF80730190A8DF864
:104F5000081013898DF80930190A8DF80A10D388C2
:104F60008DF80B30190A8DF80C1051898DF80D1041
:104F7000090A8DF80E100121009101460B2301AAA8
:104F80000548FEF7ABF805490028886001D0FCF71A
:104F90006BF81FBDC4040020A04F000000000020DB
:104FA00000300040000100000080004000040000CC
:104FB0000080004000040000000000070000000026
:104FC00000000007000000003F065B4F666D7D0794
:104FD0007F6F777C395E7971305000006851000036
:104FE000645100005C5100000002000017181916FF
:104FF000D40400201B0000001A00000000009801EB
:105000000200000000000000020000010011121365
:10501000140D0E0F100000000040004004000100BD
:10502000000000FF07FF0000000000040000000077
:10503000CD130000DD1400006114000031150000E4
:1050400041140000C913000002000000000000002D
:10505000000000000300000000000000000000004D
:10506000000100000000000000000000010000003E
:10507000000000000000000002010000000000002D
:10508000000000000201000000000000000000001D
:10509000FFFFFFFFFFFFFFFFFFFFFFFFFFFFFFFF20
:1050A00000000000000000000000D6010701000021
:1050B00029000000010000000100000001000000C4
:1050C00001000000010000000100000001000000DC
:1050D000020000000040404040404040404041410C
:1050E00041414140404040404040404040404040BD
:1050F0004040404040050202020202020202020257
:105100000202020202202020202020202020200253
:1051100002020202020290909090909010101010E3
:10512000101010101010101010101010101010107F
:105130000202020202028888888888880808080813
:1051400008080808080808080808080808080808DF
:105150000202020240000000D5500000312E303023
:1051600000000000534443004E6F72646963000006
:105170004F766572666C6F770D0A00009C510000D7
:105180000000002054000000740B0000F0510000EB
:1051900054000020B42A0000840B0000000000002E
:1051A00000000000000000000000000000000000FF
:1051B000D84F0000000000000001000000000000C7
:1051C00000000000000000000000000000000000DF
:1051D000000000000000000000000000002000406F
:1051E00000000000705100000090D003000000009B
:0400000500000401F2
:00000001FF
